{
  "contractName": "Locker",
  "abi": [
    {
      "anonymous": false,
      "inputs": [
        {
          "indexed": false,
          "internalType": "address",
          "name": "SentToAddress",
          "type": "address"
        },
        {
          "indexed": false,
          "internalType": "uint256",
          "name": "AmountTransferred",
          "type": "uint256"
        }
      ],
      "name": "LogWithdrawal",
      "type": "event"
    },
    {
      "anonymous": false,
      "inputs": [
        {
          "indexed": true,
          "internalType": "address",
          "name": "previousOwner",
          "type": "address"
        },
        {
          "indexed": true,
          "internalType": "address",
          "name": "newOwner",
          "type": "address"
        }
      ],
      "name": "OwnershipTransferred",
      "type": "event"
    },
    {
      "inputs": [
        {
          "internalType": "uint256",
          "name": "",
          "type": "uint256"
        }
      ],
      "name": "allDepositIds",
      "outputs": [
        {
          "internalType": "uint256",
          "name": "",
          "type": "uint256"
        }
      ],
      "stateMutability": "view",
      "type": "function"
    },
    {
      "inputs": [],
      "name": "depositId",
      "outputs": [
        {
          "internalType": "uint256",
          "name": "",
          "type": "uint256"
        }
      ],
      "stateMutability": "view",
      "type": "function"
    },
    {
      "inputs": [
        {
          "internalType": "address",
          "name": "",
          "type": "address"
        },
        {
          "internalType": "uint256",
          "name": "",
          "type": "uint256"
        }
      ],
      "name": "depositsByWithdrawalAddress",
      "outputs": [
        {
          "internalType": "uint256",
          "name": "",
          "type": "uint256"
        }
      ],
      "stateMutability": "view",
      "type": "function"
    },
    {
      "inputs": [],
      "name": "lockServicePrice",
      "outputs": [
        {
          "internalType": "uint256",
          "name": "",
          "type": "uint256"
        }
      ],
      "stateMutability": "view",
      "type": "function"
    },
    {
      "inputs": [
        {
          "internalType": "uint256",
          "name": "",
          "type": "uint256"
        }
      ],
      "name": "lockedToken",
      "outputs": [
        {
          "internalType": "address",
          "name": "tokenAddress",
          "type": "address"
        },
        {
          "internalType": "address",
          "name": "withdrawalAddress",
          "type": "address"
        },
        {
          "internalType": "uint256",
          "name": "tokenAmount",
          "type": "uint256"
        },
        {
          "internalType": "uint256",
          "name": "unlockTime",
          "type": "uint256"
        },
        {
          "internalType": "bool",
          "name": "withdrawn",
          "type": "bool"
        }
      ],
      "stateMutability": "view",
      "type": "function"
    },
    {
      "inputs": [],
      "name": "owner",
      "outputs": [
        {
          "internalType": "address",
          "name": "",
          "type": "address"
        }
      ],
      "stateMutability": "view",
      "type": "function"
    },
    {
      "inputs": [],
      "name": "renounceOwnership",
      "outputs": [],
      "stateMutability": "nonpayable",
      "type": "function"
    },
    {
      "inputs": [
        {
          "internalType": "address",
          "name": "newOwner",
          "type": "address"
        }
      ],
      "name": "transferOwnership",
      "outputs": [],
      "stateMutability": "nonpayable",
      "type": "function"
    },
    {
      "inputs": [
        {
          "internalType": "address",
          "name": "",
          "type": "address"
        },
        {
          "internalType": "address",
          "name": "",
          "type": "address"
        }
      ],
      "name": "walletTokenBalance",
      "outputs": [
        {
          "internalType": "uint256",
          "name": "",
          "type": "uint256"
        }
      ],
      "stateMutability": "view",
      "type": "function"
    },
    {
      "inputs": [
        {
          "internalType": "address",
          "name": "_tokenAddress",
          "type": "address"
        },
        {
          "internalType": "address",
          "name": "_withdrawalAddress",
          "type": "address"
        },
        {
          "internalType": "uint256",
          "name": "_amount",
          "type": "uint256"
        },
        {
          "internalType": "uint256",
          "name": "_unlockTime",
          "type": "uint256"
        }
      ],
      "name": "lockTokens",
      "outputs": [
        {
          "internalType": "uint256",
          "name": "_id",
          "type": "uint256"
        }
      ],
      "stateMutability": "payable",
      "type": "function"
    },
    {
      "inputs": [
        {
          "internalType": "uint256",
          "name": "amount",
          "type": "uint256"
        }
      ],
      "name": "updateLockServicePrice",
      "outputs": [],
      "stateMutability": "nonpayable",
      "type": "function"
    },
    {
      "inputs": [
        {
          "internalType": "uint256",
          "name": "_id",
          "type": "uint256"
        },
        {
          "internalType": "uint256",
          "name": "_unlockTime",
          "type": "uint256"
        }
      ],
      "name": "extendLockDuration",
      "outputs": [],
      "stateMutability": "nonpayable",
      "type": "function"
    },
    {
      "inputs": [
        {
          "internalType": "uint256",
          "name": "_id",
          "type": "uint256"
        },
        {
          "internalType": "address",
          "name": "_receiverAddress",
          "type": "address"
        }
      ],
      "name": "transferLocks",
      "outputs": [],
      "stateMutability": "nonpayable",
      "type": "function"
    },
    {
      "inputs": [
        {
          "internalType": "uint256",
          "name": "_id",
          "type": "uint256"
        }
      ],
      "name": "withdrawTokens",
      "outputs": [],
      "stateMutability": "nonpayable",
      "type": "function"
    },
    {
      "inputs": [
        {
          "internalType": "address",
          "name": "_tokenAddress",
          "type": "address"
        }
      ],
      "name": "getTotalTokenBalance",
      "outputs": [
        {
          "internalType": "uint256",
          "name": "",
          "type": "uint256"
        }
      ],
      "stateMutability": "view",
      "type": "function"
    },
    {
      "inputs": [
        {
          "internalType": "address",
          "name": "_tokenAddress",
          "type": "address"
        },
        {
          "internalType": "address",
          "name": "_walletAddress",
          "type": "address"
        }
      ],
      "name": "getTokenBalanceByAddress",
      "outputs": [
        {
          "internalType": "uint256",
          "name": "",
          "type": "uint256"
        }
      ],
      "stateMutability": "view",
      "type": "function"
    },
    {
      "inputs": [],
      "name": "getAllDepositIds",
      "outputs": [
        {
          "internalType": "uint256[]",
          "name": "",
          "type": "uint256[]"
        }
      ],
      "stateMutability": "view",
      "type": "function"
    },
    {
      "inputs": [
        {
          "internalType": "uint256",
          "name": "_id",
          "type": "uint256"
        }
      ],
      "name": "getDepositDetails",
      "outputs": [
        {
          "internalType": "address",
          "name": "_tokenAddress",
          "type": "address"
        },
        {
          "internalType": "address",
          "name": "_withdrawalAddress",
          "type": "address"
        },
        {
          "internalType": "uint256",
          "name": "_tokenAmount",
          "type": "uint256"
        },
        {
          "internalType": "uint256",
          "name": "_unlockTime",
          "type": "uint256"
        },
        {
          "internalType": "bool",
          "name": "_withdrawn",
          "type": "bool"
        }
      ],
      "stateMutability": "view",
      "type": "function"
    },
    {
      "inputs": [
        {
          "internalType": "address",
          "name": "_withdrawalAddress",
          "type": "address"
        }
      ],
      "name": "getDepositsByWithdrawalAddress",
      "outputs": [
        {
          "internalType": "uint256[]",
          "name": "",
          "type": "uint256[]"
        }
      ],
      "stateMutability": "view",
      "type": "function"
    }
  ],
  "bytecode": "0x6080604052661c6bf52634000060065534801561001b57600080fd5b506100253361002a565b61007a565b600080546001600160a01b038381166001600160a01b0319831681178455604051919092169283917f8be0079c531659141344cd1fd0a4f28419497f9722a3daafe3b4186f6b6457e09190a35050565b6116ad806100896000396000f3fe6080604052600436106101145760003560e01c80637d533c1e116100a0578063b9e7df1c11610064578063b9e7df1c14610372578063bb941cff146103aa578063c9028aff14610404578063e59d667314610424578063f2fde38b1461043a57600080fd5b80637d533c1e1461026f578063890db72f146102825780638da5cb5b146103145780639852099c1461033c578063adad19bd1461035257600080fd5b8063530680d8116100e7578063530680d8146101e55780636ba0392414610205578063715018a61461021a57806376704de01461022f5780637773a3c81461024f57600080fd5b80630bd59ad314610119578063315a095d1461014f578063347c80ba146101715780634c5f7f54146101c5575b600080fd5b34801561012557600080fd5b50610139610134366004611409565b61045a565b6040516101469190611424565b60405180910390f35b34801561015b57600080fd5b5061016f61016a366004611468565b6104c6565b005b34801561017d57600080fd5b506101b761018c366004611481565b6001600160a01b03918216600090815260056020908152604080832093909416825291909152205490565b604051908152602001610146565b3480156101d157600080fd5b5061016f6101e03660046114b4565b610a25565b3480156101f157600080fd5b506101b76102003660046114d7565b610ce0565b34801561021157600080fd5b50610139610d11565b34801561022657600080fd5b5061016f610d69565b34801561023b57600080fd5b5061016f61024a366004611501565b610d9f565b34801561025b57600080fd5b5061016f61026a366004611468565b610e28565b6101b761027d366004611523565b610e57565b34801561028e57600080fd5b506102df61029d366004611468565b6000908152600460208190526040909120805460018201546002830154600384015493909401546001600160a01b03928316959290911693929160ff90911690565b604080516001600160a01b0396871681529590941660208601529284019190915260608301521515608082015260a001610146565b34801561032057600080fd5b506000546040516001600160a01b039091168152602001610146565b34801561034857600080fd5b506101b760015481565b34801561035e57600080fd5b506101b761036d366004611409565b61122e565b34801561037e57600080fd5b506101b761038d366004611481565b600560209081526000928352604080842090915290825290205481565b3480156103b657600080fd5b506102df6103c5366004611468565b6004602081905260009182526040909120805460018201546002830154600384015493909401546001600160a01b039283169492909116929060ff1685565b34801561041057600080fd5b506101b761041f366004611468565b61129f565b34801561043057600080fd5b506101b760065481565b34801561044657600080fd5b5061016f610455366004611409565b6112c0565b6001600160a01b0381166000908152600360209081526040918290208054835181840281018401909452808452606093928301828280156104ba57602002820191906000526020600020905b8154815260200190600101908083116104a6575b50505050509050919050565b6000546001600160a01b031633146104f2576000818152600460205260409020600301544210156104f5565b60015b6105465760405162461bcd60e51b815260206004820152601760248201527f64617465206265666f726520756e6c6f636b206461746500000000000000000060448201526064015b60405180910390fd5b6000546001600160a01b0316331461057a576000818152600460205260409020600101546001600160a01b0316331461057d565b60015b6105d45760405162461bcd60e51b815260206004820152602260248201527f63616c6c65722073686f756c64206265207769746864726177616c4164647265604482015261737360f01b606482015260840161053d565b6000818152600460208190526040909120015460ff161561062b5760405162461bcd60e51b815260206004820152601160248201527030b63932b0b23c903bb4ba34323930bbb760791b604482015260640161053d565b6000818152600460208181526040808420928301805460ff19166001908117909155600284015484546001600160a01b039081168752600585528387209590920154909116855292909152909120546106839161135b565b600082815260046020908152604080832080546001600160a01b0390811685526005845282852060019092018054821686529184528285209590955554909316825260039052908120545b80821015610818576000838152600460209081526040808320600101546001600160a01b031683526003909152902080548491908490811061071257610712611565565b906000526020600020015414156108065760008381526004602090815260408083206001908101546001600160a01b031684526003909252909120906107589083611591565b8154811061076857610768611565565b6000918252602080832090910154858352600482526040808420600101546001600160a01b03168452600390925291208054849081106107aa576107aa611565565b6000918252602080832090910192909255848152600482526040808220600101546001600160a01b031682526003909252208054806107eb576107eb6115a8565b60019003818190600052602060002001600090559055610818565b81610810816115be565b9250506106ce565b6000546001600160a01b031633146108c45760008381526004602081905260409182902080546001820154600290920154935163a9059cbb60e01b81526001600160a01b039283169381019390935260248301939093529091169063a9059cbb906044016020604051808303816000875af115801561089b573d6000803e3d6000fd5b505050506040513d601f19601f820116820180604052508101906108bf91906115d9565b610976565b6000838152600460205260409020546001600160a01b031663a9059cbb6108f36000546001600160a01b031690565b6000868152600460208190526040918290206002015491516001600160e01b031960e086901b1681526001600160a01b039093169083015260248201526044016020604051808303816000875af1158015610952573d6000803e3d6000fd5b505050506040513d601f19601f8201168201806040525081019061097691906115d9565b6109c25760405162461bcd60e51b815260206004820152601e60248201527f63616c6c65722073686f756c64206265206f776e6572206f66206c6f636b0000604482015260640161053d565b600083815260046020908152604091829020600181015460029091015483516001600160a01b039092168252918101919091527fb4214c8c54fc7442f36d3682f59aebaf09358a4431835b30efb29d52cf9e1e91910160405180910390a1505050565b6000828152600460208190526040909120015460ff1615610a4557600080fd5b6000828152600460205260409020600101546001600160a01b03163314610a6b57600080fd5b6000828152600460209081526040808320600281015490546001600160a01b031684526005835281842033855290925290912054610aa89161135b565b600083815260046020908152604080832080546001600160a01b03908116855260058085528386203387528552838620969096556002820154915481168552948352818420948616845293909152902054610b029161137e565b600083815260046020908152604080832080546001600160a01b03908116855260058452828520878216865284528285209590955560010154909316825260039052908120545b80821015610c93576000848152600460209081526040808320600101546001600160a01b0316835260039091529020805485919084908110610b8d57610b8d611565565b90600052602060002001541415610c815760008481526004602090815260408083206001908101546001600160a01b03168452600390925290912090610bd39083611591565b81548110610be357610be3611565565b6000918252602080832090910154868352600482526040808420600101546001600160a01b0316845260039092529120805484908110610c2557610c25611565565b6000918252602080832090910192909255858152600482526040808220600101546001600160a01b03168252600390925220805480610c6657610c666115a8565b60019003818190600052602060002001600090559055610c93565b81610c8b816115be565b925050610b49565b50506000828152600460209081526040808320600190810180546001600160a01b039096166001600160a01b03199096168617905593835260038252822080549384018155825290200155565b60036020528160005260406000208181548110610cfc57600080fd5b90600052602060002001600091509150505481565b60606002805480602002602001604051908101604052809291908181526020018280548015610d5f57602002820191906000526020600020905b815481526020019060010190808311610d4b575b5050505050905090565b6000546001600160a01b03163314610d935760405162461bcd60e51b815260040161053d906115fb565b610d9d600061139d565b565b6402540be4008110610db057600080fd5b6000828152600460205260409020600301548111610dcd57600080fd5b6000828152600460208190526040909120015460ff1615610ded57600080fd5b6000828152600460205260409020600101546001600160a01b03163314610e1357600080fd5b60009182526004602052604090912060030155565b6000546001600160a01b03163314610e525760405162461bcd60e51b815260040161053d906115fb565b600655565b6000808311610e9f5760405162461bcd60e51b81526020600482015260146024820152730616d6f756e742073686f756c64206265203e20360641b604482015260640161053d565b6402540be4008210610ef35760405162461bcd60e51b815260206004820152601f60248201527f756e6c6f636b54696d652073686f756c64203c20313030303030303030303000604482015260640161053d565b600080546001600160a01b03163314610f0e57600654610f11565b60005b905080341015610f795760405162461bcd60e51b815260206004820152602d60248201527f73656e6465642076616c7565206973206c6f776572207468616e20637265617460448201526c6520746f6b656e20707269636560981b606482015260840161053d565b6000546001600160a01b03163314610fc757600080546040516001600160a01b03909116913480156108fc02929091818181858888f19350505050158015610fc5573d6000803e3d6000fd5b505b6001600160a01b03808716600090815260056020908152604080832093891683529290522054610ff7908561137e565b6001600160a01b038088166000908152600560209081526040808320938a1683529290529081209190915560018054909190611032906115be565b9190508190559150856004600084815260200190815260200160002060000160006101000a8154816001600160a01b0302191690836001600160a01b03160217905550846004600084815260200190815260200160002060010160006101000a8154816001600160a01b0302191690836001600160a01b0316021790555083600460008481526020019081526020016000206002018190555082600460008481526020019081526020016000206003018190555060006004600084815260200190815260200160002060040160006101000a81548160ff021916908315150217905550600282908060018154018082558091505060019003906000526020600020016000909190919091505560036000866001600160a01b03166001600160a01b03168152602001908152602001600020829080600181540180825580915050600190039060005260206000200160009091909190915055856001600160a01b03166323b872dd3330876040518463ffffffff1660e01b81526004016111d9939291906001600160a01b039384168152919092166020820152604081019190915260600190565b6020604051808303816000875af11580156111f8573d6000803e3d6000fd5b505050506040513d601f19601f8201168201806040525081019061121c91906115d9565b61122557600080fd5b50949350505050565b6040516370a0823160e01b81523060048201526000906001600160a01b038316906370a0823190602401602060405180830381865afa158015611275573d6000803e3d6000fd5b505050506040513d601f19601f820116820180604052508101906112999190611630565b92915050565b600281815481106112af57600080fd5b600091825260209091200154905081565b6000546001600160a01b031633146112ea5760405162461bcd60e51b815260040161053d906115fb565b6001600160a01b03811661134f5760405162461bcd60e51b815260206004820152602660248201527f4f776e61626c653a206e6577206f776e657220697320746865207a65726f206160448201526564647265737360d01b606482015260840161053d565b6113588161139d565b50565b60008282111561136d5761136d611649565b6113778284611591565b9392505050565b60008061138b838561165f565b90508381101561137757611377611649565b600080546001600160a01b038381166001600160a01b0319831681178455604051919092169283917f8be0079c531659141344cd1fd0a4f28419497f9722a3daafe3b4186f6b6457e09190a35050565b80356001600160a01b038116811461140457600080fd5b919050565b60006020828403121561141b57600080fd5b611377826113ed565b6020808252825182820181905260009190848201906040850190845b8181101561145c57835183529284019291840191600101611440565b50909695505050505050565b60006020828403121561147a57600080fd5b5035919050565b6000806040838503121561149457600080fd5b61149d836113ed565b91506114ab602084016113ed565b90509250929050565b600080604083850312156114c757600080fd5b823591506114ab602084016113ed565b600080604083850312156114ea57600080fd5b6114f3836113ed565b946020939093013593505050565b6000806040838503121561151457600080fd5b50508035926020909101359150565b6000806000806080858703121561153957600080fd5b611542856113ed565b9350611550602086016113ed565b93969395505050506040820135916060013590565b634e487b7160e01b600052603260045260246000fd5b634e487b7160e01b600052601160045260246000fd5b6000828210156115a3576115a361157b565b500390565b634e487b7160e01b600052603160045260246000fd5b60006000198214156115d2576115d261157b565b5060010190565b6000602082840312156115eb57600080fd5b8151801515811461137757600080fd5b6020808252818101527f4f776e61626c653a2063616c6c6572206973206e6f7420746865206f776e6572604082015260600190565b60006020828403121561164257600080fd5b5051919050565b634e487b7160e01b600052600160045260246000fd5b600082198211156116725761167261157b565b50019056fea2646970667358221220e97eed75add3b089f3a40f3c67e4b82713952d65a87ba09135705404500c67f764736f6c634300080a0033",
  "immutableReferences": {},
  "source": "// SPDX-License-Identifier: MIT\npragma solidity 0.8.10;\n\n/*\n * @dev Provides information about the current execution context, including the\n * sender of the transaction and its data. While these are generally available\n * via msg.sender and msg.data, they should not be accessed in such a direct\n * manner, since when dealing with meta-transactions the account sending and\n * paying for execution may not be the actual sender (as far as an application\n * is concerned).\n *\n * This contract is only required for intermediate, library-like contracts.\n */\nabstract contract Context {\n    function _msgSender() internal view virtual returns (address) {\n        return msg.sender;\n    }\n\n    function _msgData() internal view virtual returns (bytes calldata) {\n        return msg.data;\n    }\n}\n\n// File: @openzeppelin/contracts/access/Ownable.sol\n\n/**\n * @dev Contract module which provides a basic access control mechanism, where\n * there is an account (an owner) that can be granted exclusive access to\n * specific functions.\n *\n * By default, the owner account will be the one that deploys the contract. This\n * can later be changed with {transferOwnership}.\n *\n * This module is used through inheritance. It will make available the modifier\n * `onlyOwner`, which can be applied to your functions to restrict their use to\n * the owner.\n */\nabstract contract Ownable is Context {\n    address private _owner;\n\n    event OwnershipTransferred(address indexed previousOwner, address indexed newOwner);\n\n    /**\n     * @dev Initializes the contract setting the deployer as the initial owner.\n     */\n    constructor() {\n        _setOwner(_msgSender());\n    }\n\n    /**\n     * @dev Returns the address of the current owner.\n     */\n    function owner() public view virtual returns (address) {\n        return _owner;\n    }\n\n    /**\n     * @dev Throws if called by any account other than the owner.\n     */\n    modifier onlyOwner() {\n        require(owner() == _msgSender(), \"Ownable: caller is not the owner\");\n        _;\n    }\n\n    /**\n     * @dev Leaves the contract without owner. It will not be possible to call\n     * `onlyOwner` functions anymore. Can only be called by the current owner.\n     *\n     * NOTE: Renouncing ownership will leave the contract without an owner,\n     * thereby removing any functionality that is only available to the owner.\n     */\n    function renounceOwnership() public virtual onlyOwner {\n        _setOwner(address(0));\n    }\n\n    /**\n     * @dev Transfers ownership of the contract to a new account (`newOwner`).\n     * Can only be called by the current owner.\n     */\n    function transferOwnership(address newOwner) public virtual onlyOwner {\n        require(newOwner != address(0), \"Ownable: new owner is the zero address\");\n        _setOwner(newOwner);\n    }\n\n    function _setOwner(address newOwner) private {\n        address oldOwner = _owner;\n        _owner = newOwner;\n        emit OwnershipTransferred(oldOwner, newOwner);\n    }\n}\n\n// File: contracts/Presale.sol\n\nlibrary SafeMath {\n    function mul(uint256 a, uint256 b) internal pure returns (uint256) {\n        if (a == 0) {\n            return 0;\n        }\n        uint256 c = a * b;\n        assert(c / a == b);\n        return c;\n    }\n\n    function div(uint256 a, uint256 b) internal pure returns (uint256) {\n        uint256 c = a / b;\n        return c;\n    }\n\n    function sub(uint256 a, uint256 b) internal pure returns (uint256) {\n        assert(b <= a);\n        return a - b;\n    }\n\n    function add(uint256 a, uint256 b) internal pure returns (uint256) {\n        uint256 c = a + b;\n        assert(c >= a);\n        return c;\n    }\n\n    function ceil(uint256 a, uint256 m) internal pure returns (uint256) {\n        uint256 c = add(a,m);\n        uint256 d = sub(c,1);\n        return mul(div(d,m),m);\n    }\n}\n\n// File: @openzeppelin/contracts/token/ERC20/IERC20.sol\n\n/**\n * @dev Interface of the ERC20 standard as defined in the EIP.\n */\ninterface IERC20 {\n    /**\n     * @dev Returns the amount of tokens in existence.\n     */\n    function totalSupply() external view returns (uint256);\n\n    /**\n     * @dev Returns the amount of tokens owned by `account`.\n     */\n    function balanceOf(address account) external view returns (uint256);\n\n    /**\n     * @dev Moves `amount` tokens from the caller's account to `recipient`.\n     *\n     * Returns a boolean value indicating whether the operation succeeded.\n     *\n     * Emits a {Transfer} event.\n     */\n    function transfer(address recipient, uint256 amount) external returns (bool);\n\n    /**\n     * @dev Returns the remaining number of tokens that `spender` will be\n     * allowed to spend on behalf of `owner` through {transferFrom}. This is\n     * zero by default.\n     *\n     * This value changes when {approve} or {transferFrom} are called.\n     */\n    function allowance(address owner, address spender) external view returns (uint256);\n\n    /**\n     * @dev Sets `amount` as the allowance of `spender` over the caller's tokens.\n     *\n     * Returns a boolean value indicating whether the operation succeeded.\n     *\n     * IMPORTANT: Beware that changing an allowance with this method brings the risk\n     * that someone may use both the old and the new allowance by unfortunate\n     * transaction ordering. One possible solution to mitigate this race\n     * condition is to first reduce the spender's allowance to 0 and set the\n     * desired value afterwards:\n     * https://github.com/ethereum/EIPs/issues/20#issuecomment-263524729\n     *\n     * Emits an {Approval} event.\n     */\n    function approve(address spender, uint256 amount) external returns (bool);\n\n    /**\n     * @dev Moves `amount` tokens from `sender` to `recipient` using the\n     * allowance mechanism. `amount` is then deducted from the caller's\n     * allowance.\n     *\n     * Returns a boolean value indicating whether the operation succeeded.\n     *\n     * Emits a {Transfer} event.\n     */\n    function transferFrom(\n        address sender,\n        address recipient,\n        uint256 amount\n    ) external returns (bool);\n\n    /**\n     * @dev Emitted when `value` tokens are moved from one account (`from`) to\n     * another (`to`).\n     *\n     * Note that `value` may be zero.\n     */\n    event Transfer(address indexed from, address indexed to, uint256 value);\n\n    /**\n     * @dev Emitted when the allowance of a `spender` for an `owner` is set by\n     * a call to {approve}. `value` is the new allowance.\n     */\n    event Approval(address indexed owner, address indexed spender, uint256 value);\n}\n\n\n/**\n * @dev Interface for the optional metadata functions from the ERC20 standard.\n *\n * _Available since v4.1._\n */\ninterface IERC20Metadata is IERC20 {\n    /**\n     * @dev Returns the name of the token.\n     */\n    function name() external view returns (string memory);\n\n    /**\n     * @dev Returns the symbol of the token.\n     */\n    function symbol() external view returns (string memory);\n\n    /**\n     * @dev Returns the decimals places of the token.\n     */\n    function decimals() external view returns (uint8);\n}\n\n// File: @openzeppelin/contracts/token/ERC20/ERC20.sol\n\n/**\n * @dev Implementation of the {IERC20} interface.\n *\n * This implementation is agnostic to the way tokens are created. This means\n * that a supply mechanism has to be added in a derived contract using {_mint}.\n * For a generic mechanism see {ERC20PresetMinterPauser}.\n *\n * TIP: For a detailed writeup see our guide\n * https://forum.zeppelin.solutions/t/how-to-implement-erc20-supply-mechanisms/226[How\n * to implement supply mechanisms].\n *\n * We have followed general OpenZeppelin guidelines: functions revert instead\n * of returning `false` on failure. This behavior is nonetheless conventional\n * and does not conflict with the expectations of ERC20 applications.\n *\n * Additionally, an {Approval} event is emitted on calls to {transferFrom}.\n * This allows applications to reconstruct the allowance for all accounts just\n * by listening to said events. Other implementations of the EIP may not emit\n * these events, as it isn't required by the specification.\n *\n * Finally, the non-standard {decreaseAllowance} and {increaseAllowance}\n * functions have been added to mitigate the well-known issues around setting\n * allowances. See {IERC20-approve}.\n */\ncontract ERC20 is Context, IERC20, IERC20Metadata {\n    mapping(address => uint256) private _balances;\n\n    mapping(address => mapping(address => uint256)) private _allowances;\n\n    uint256 private _totalSupply;\n\n    string private _name;\n    string private _symbol;\n\n    /**\n     * @dev Sets the values for {name} and {symbol}.\n     *\n     * The default value of {decimals} is 18. To select a different value for\n     * {decimals} you should overload it.\n     *\n     * All two of these values are immutable: they can only be set once during\n     * construction.\n     */\n    constructor(string memory name_, string memory symbol_) {\n        _name = name_;\n        _symbol = symbol_;\n    }\n\n    /**\n     * @dev Returns the name of the token.\n     */\n    function name() public view virtual override returns (string memory) {\n        return _name;\n    }\n\n    /**\n     * @dev Returns the symbol of the token, usually a shorter version of the\n     * name.\n     */\n    function symbol() public view virtual override returns (string memory) {\n        return _symbol;\n    }\n\n    /**\n     * @dev Returns the number of decimals used to get its user representation.\n     * For example, if `decimals` equals `2`, a balance of `505` tokens should\n     * be displayed to a user as `5,05` (`505 / 10 ** 2`).\n     *\n     * Tokens usually opt for a value of 18, imitating the relationship between\n     * Ether and Wei. This is the value {ERC20} uses, unless this function is\n     * overridden;\n     *\n     * NOTE: This information is only used for _display_ purposes: it in\n     * no way affects any of the arithmetic of the contract, including\n     * {IERC20-balanceOf} and {IERC20-transfer}.\n     */\n    function decimals() public view virtual override returns (uint8) {\n        return 18;\n    }\n\n    /**\n     * @dev See {IERC20-totalSupply}.\n     */\n    function totalSupply() public view virtual override returns (uint256) {\n        return _totalSupply;\n    }\n\n    /**\n     * @dev See {IERC20-balanceOf}.\n     */\n    function balanceOf(address account) public view virtual override returns (uint256) {\n        return _balances[account];\n    }\n\n    /**\n     * @dev See {IERC20-transfer}.\n     *\n     * Requirements:\n     *\n     * - `recipient` cannot be the zero address.\n     * - the caller must have a balance of at least `amount`.\n     */\n    function transfer(address recipient, uint256 amount) public virtual override returns (bool) {\n        _transfer(_msgSender(), recipient, amount);\n        return true;\n    }\n\n    /**\n     * @dev See {IERC20-allowance}.\n     */\n    function allowance(address owner, address spender) public view virtual override returns (uint256) {\n        return _allowances[owner][spender];\n    }\n\n    /**\n     * @dev See {IERC20-approve}.\n     *\n     * Requirements:\n     *\n     * - `spender` cannot be the zero address.\n     */\n    function approve(address spender, uint256 amount) public virtual override returns (bool) {\n        _approve(_msgSender(), spender, amount);\n        return true;\n    }\n\n    /**\n     * @dev See {IERC20-transferFrom}.\n     *\n     * Emits an {Approval} event indicating the updated allowance. This is not\n     * required by the EIP. See the note at the beginning of {ERC20}.\n     *\n     * Requirements:\n     *\n     * - `sender` and `recipient` cannot be the zero address.\n     * - `sender` must have a balance of at least `amount`.\n     * - the caller must have allowance for ``sender``'s tokens of at least\n     * `amount`.\n     */\n    function transferFrom(\n        address sender,\n        address recipient,\n        uint256 amount\n    ) public virtual override returns (bool) {\n        _transfer(sender, recipient, amount);\n\n        uint256 currentAllowance = _allowances[sender][_msgSender()];\n        require(currentAllowance >= amount, \"ERC20: transfer amount exceeds allowance\");\n    unchecked {\n        _approve(sender, _msgSender(), currentAllowance - amount);\n    }\n\n        return true;\n    }\n\n    /**\n     * @dev Atomically increases the allowance granted to `spender` by the caller.\n     *\n     * This is an alternative to {approve} that can be used as a mitigation for\n     * problems described in {IERC20-approve}.\n     *\n     * Emits an {Approval} event indicating the updated allowance.\n     *\n     * Requirements:\n     *\n     * - `spender` cannot be the zero address.\n     */\n    function increaseAllowance(address spender, uint256 addedValue) public virtual returns (bool) {\n        _approve(_msgSender(), spender, _allowances[_msgSender()][spender] + addedValue);\n        return true;\n    }\n\n    /**\n     * @dev Atomically decreases the allowance granted to `spender` by the caller.\n     *\n     * This is an alternative to {approve} that can be used as a mitigation for\n     * problems described in {IERC20-approve}.\n     *\n     * Emits an {Approval} event indicating the updated allowance.\n     *\n     * Requirements:\n     *\n     * - `spender` cannot be the zero address.\n     * - `spender` must have allowance for the caller of at least\n     * `subtractedValue`.\n     */\n    function decreaseAllowance(address spender, uint256 subtractedValue) public virtual returns (bool) {\n        uint256 currentAllowance = _allowances[_msgSender()][spender];\n        require(currentAllowance >= subtractedValue, \"ERC20: decreased allowance below zero\");\n    unchecked {\n        _approve(_msgSender(), spender, currentAllowance - subtractedValue);\n    }\n\n        return true;\n    }\n\n    /**\n     * @dev Moves `amount` of tokens from `sender` to `recipient`.\n     *\n     * This internal function is equivalent to {transfer}, and can be used to\n     * e.g. implement automatic token fees, slashing mechanisms, etc.\n     *\n     * Emits a {Transfer} event.\n     *\n     * Requirements:\n     *\n     * - `sender` cannot be the zero address.\n     * - `recipient` cannot be the zero address.\n     * - `sender` must have a balance of at least `amount`.\n     */\n    function _transfer(\n        address sender,\n        address recipient,\n        uint256 amount\n    ) internal virtual {\n        require(sender != address(0), \"ERC20: transfer from the zero address\");\n        require(recipient != address(0), \"ERC20: transfer to the zero address\");\n\n        _beforeTokenTransfer(sender, recipient, amount);\n\n        uint256 senderBalance = _balances[sender];\n        require(senderBalance >= amount, \"ERC20: transfer amount exceeds balance\");\n    unchecked {\n        _balances[sender] = senderBalance - amount;\n    }\n        _balances[recipient] += amount;\n\n        emit Transfer(sender, recipient, amount);\n\n        _afterTokenTransfer(sender, recipient, amount);\n    }\n\n    /** @dev Creates `amount` tokens and assigns them to `account`, increasing\n     * the total supply.\n     *\n     * Emits a {Transfer} event with `from` set to the zero address.\n     *\n     * Requirements:\n     *\n     * - `account` cannot be the zero address.\n     */\n    function _mint(address account, uint256 amount) internal virtual {\n        require(account != address(0), \"ERC20: mint to the zero address\");\n\n        _beforeTokenTransfer(address(0), account, amount);\n\n        _totalSupply += amount;\n        _balances[account] += amount;\n        emit Transfer(address(0), account, amount);\n\n        _afterTokenTransfer(address(0), account, amount);\n    }\n\n    /**\n     * @dev Destroys `amount` tokens from `account`, reducing the\n     * total supply.\n     *\n     * Emits a {Transfer} event with `to` set to the zero address.\n     *\n     * Requirements:\n     *\n     * - `account` cannot be the zero address.\n     * - `account` must have at least `amount` tokens.\n     */\n    function _burn(address account, uint256 amount) internal virtual {\n        require(account != address(0), \"ERC20: burn from the zero address\");\n\n        _beforeTokenTransfer(account, address(0), amount);\n\n        uint256 accountBalance = _balances[account];\n        require(accountBalance >= amount, \"ERC20: burn amount exceeds balance\");\n    unchecked {\n        _balances[account] = accountBalance - amount;\n    }\n        _totalSupply -= amount;\n\n        emit Transfer(account, address(0), amount);\n\n        _afterTokenTransfer(account, address(0), amount);\n    }\n\n    /**\n     * @dev Sets `amount` as the allowance of `spender` over the `owner` s tokens.\n     *\n     * This internal function is equivalent to `approve`, and can be used to\n     * e.g. set automatic allowances for certain subsystems, etc.\n     *\n     * Emits an {Approval} event.\n     *\n     * Requirements:\n     *\n     * - `owner` cannot be the zero address.\n     * - `spender` cannot be the zero address.\n     */\n    function _approve(\n        address owner,\n        address spender,\n        uint256 amount\n    ) internal virtual {\n        require(owner != address(0), \"ERC20: approve from the zero address\");\n        require(spender != address(0), \"ERC20: approve to the zero address\");\n\n        _allowances[owner][spender] = amount;\n        emit Approval(owner, spender, amount);\n    }\n\n    /**\n     * @dev Hook that is called before any transfer of tokens. This includes\n     * minting and burning.\n     *\n     * Calling conditions:\n     *\n     * - when `from` and `to` are both non-zero, `amount` of ``from``'s tokens\n     * will be transferred to `to`.\n     * - when `from` is zero, `amount` tokens will be minted for `to`.\n     * - when `to` is zero, `amount` of ``from``'s tokens will be burned.\n     * - `from` and `to` are never both zero.\n     *\n     * To learn more about hooks, head to xref:ROOT:extending-contracts.adoc#using-hooks[Using Hooks].\n     */\n    function _beforeTokenTransfer(\n        address from,\n        address to,\n        uint256 amount\n    ) internal virtual {}\n\n    /**\n     * @dev Hook that is called after any transfer of tokens. This includes\n     * minting and burning.\n     *\n     * Calling conditions:\n     *\n     * - when `from` and `to` are both non-zero, `amount` of ``from``'s tokens\n     * has been transferred to `to`.\n     * - when `from` is zero, `amount` tokens have been minted for `to`.\n     * - when `to` is zero, `amount` of ``from``'s tokens have been burned.\n     * - `from` and `to` are never both zero.\n     *\n     * To learn more about hooks, head to xref:ROOT:extending-contracts.adoc#using-hooks[Using Hooks].\n     */\n    function _afterTokenTransfer(\n        address from,\n        address to,\n        uint256 amount\n    ) internal virtual {}\n}\n\ncontract Locker is Ownable{\n    using SafeMath for uint256;\n\n    /*\n     * deposit vars\n    */\n    struct Items {\n        address tokenAddress;\n        address withdrawalAddress;\n        uint256 tokenAmount;\n        uint256 unlockTime;\n        bool withdrawn;\n    }\n\n    uint256 public depositId;\n    uint256[] public allDepositIds;\n    mapping (address => uint256[]) public depositsByWithdrawalAddress;\n    mapping (uint256 => Items) public lockedToken;\n    mapping (address => mapping(address => uint256)) public walletTokenBalance;\n    uint256 public lockServicePrice = 8000000000000000;\n\n    event LogWithdrawal(address SentToAddress, uint256 AmountTransferred);\n\n    /**\n     *lock tokens\n    */\n    function lockTokens(address _tokenAddress, address _withdrawalAddress, uint256 _amount, uint256 _unlockTime) public payable returns (uint256 _id) {\n        require(_amount > 0, \"amount should be > 0\");\n        require(_unlockTime < 10000000000, \"unlockTime should < 10000000000\");\n\n        uint256 requiredValue = msg.sender == owner() ? 0 : lockServicePrice;\n        require(msg.value >= requiredValue, \"sended value is lower than create token price\");\n\n        if (msg.sender != owner()) {\n            payable(owner()).transfer(msg.value);\n        }\n\n        //update balance in address\n        walletTokenBalance[_tokenAddress][_withdrawalAddress] = walletTokenBalance[_tokenAddress][_withdrawalAddress].add(_amount);\n\n        _id = ++depositId;\n        lockedToken[_id].tokenAddress = _tokenAddress;\n        lockedToken[_id].withdrawalAddress = _withdrawalAddress;\n        lockedToken[_id].tokenAmount = _amount;\n        lockedToken[_id].unlockTime = _unlockTime;\n        lockedToken[_id].withdrawn = false;\n\n        allDepositIds.push(_id);\n        depositsByWithdrawalAddress[_withdrawalAddress].push(_id);\n\n        // transfer tokens into contract\n        require(ERC20(_tokenAddress).transferFrom(msg.sender, address(this), _amount));\n    }\n\n    function updateLockServicePrice(uint256 amount) public onlyOwner {\n        lockServicePrice = amount;\n    }\n\n    /**\n     *Extend lock Duration\n    */\n    function extendLockDuration(uint256 _id, uint256 _unlockTime) public {\n        require(_unlockTime < 10000000000);\n        require(_unlockTime > lockedToken[_id].unlockTime);\n        require(!lockedToken[_id].withdrawn);\n        require(msg.sender == lockedToken[_id].withdrawalAddress);\n\n        //set new unlock time\n        lockedToken[_id].unlockTime = _unlockTime;\n    }\n\n    /**\n     *transfer locked tokens\n    */\n    function transferLocks(uint256 _id, address _receiverAddress) public {\n        require(!lockedToken[_id].withdrawn);\n        require(msg.sender == lockedToken[_id].withdrawalAddress);\n\n        //decrease sender's token balance\n        walletTokenBalance[lockedToken[_id].tokenAddress][msg.sender] = walletTokenBalance[lockedToken[_id].tokenAddress][msg.sender].sub(lockedToken[_id].tokenAmount);\n\n        //increase receiver's token balance\n        walletTokenBalance[lockedToken[_id].tokenAddress][_receiverAddress] = walletTokenBalance[lockedToken[_id].tokenAddress][_receiverAddress].add(lockedToken[_id].tokenAmount);\n\n        //remove this id from sender address\n        uint256 j;\n        uint256 arrLength = depositsByWithdrawalAddress[lockedToken[_id].withdrawalAddress].length;\n        for (j=0; j<arrLength; j++) {\n            if (depositsByWithdrawalAddress[lockedToken[_id].withdrawalAddress][j] == _id) {\n                depositsByWithdrawalAddress[lockedToken[_id].withdrawalAddress][j] = depositsByWithdrawalAddress[lockedToken[_id].withdrawalAddress][arrLength - 1];\n                depositsByWithdrawalAddress[lockedToken[_id].withdrawalAddress].pop();\n                break;\n            }\n        }\n\n        //Assign this id to receiver address\n        lockedToken[_id].withdrawalAddress = _receiverAddress;\n        depositsByWithdrawalAddress[_receiverAddress].push(_id);\n    }\n\n    /**\n     *withdraw tokens\n    */\n    function withdrawTokens(uint256 _id) public {\n        require(msg.sender == owner() ? true : block.timestamp >= lockedToken[_id].unlockTime, \"date before unlock date\");\n        require(msg.sender == owner() ? true : msg.sender == lockedToken[_id].withdrawalAddress, \"caller should be withdrawalAddress\");\n        require(!lockedToken[_id].withdrawn, \"already withdrawn\");\n\n        lockedToken[_id].withdrawn = true;\n\n        //update balance in address\n        walletTokenBalance[lockedToken[_id].tokenAddress][lockedToken[_id].withdrawalAddress] = walletTokenBalance[lockedToken[_id].tokenAddress][lockedToken[_id].withdrawalAddress].sub(lockedToken[_id].tokenAmount);\n\n        //remove this id from this address\n        uint256 j;\n        uint256 arrLength = depositsByWithdrawalAddress[lockedToken[_id].withdrawalAddress].length;\n        for (j=0; j<arrLength; j++) {\n            if (depositsByWithdrawalAddress[lockedToken[_id].withdrawalAddress][j] == _id) {\n                depositsByWithdrawalAddress[lockedToken[_id].withdrawalAddress][j] = depositsByWithdrawalAddress[lockedToken[_id].withdrawalAddress][arrLength - 1];\n                depositsByWithdrawalAddress[lockedToken[_id].withdrawalAddress].pop();\n                break;\n            }\n        }\n\n        require(msg.sender == owner() ?\n            ERC20(lockedToken[_id].tokenAddress).transfer(owner(), lockedToken[_id].tokenAmount) :\n            ERC20(lockedToken[_id].tokenAddress).transfer(lockedToken[_id].withdrawalAddress, lockedToken[_id].tokenAmount),\"caller should be owner of lock\");\n        emit LogWithdrawal(lockedToken[_id].withdrawalAddress, lockedToken[_id].tokenAmount);\n    }\n\n    /*get total token balance in contract*/\n    function getTotalTokenBalance(address _tokenAddress) view public returns (uint256)\n    {\n        return ERC20(_tokenAddress).balanceOf(address(this));\n    }\n\n    /*get total token balance by address*/\n    function getTokenBalanceByAddress(address _tokenAddress, address _walletAddress) view public returns (uint256)\n    {\n        return walletTokenBalance[_tokenAddress][_walletAddress];\n    }\n\n    /*get allDepositIds*/\n    function getAllDepositIds() view public returns (uint256[] memory)\n    {\n        return allDepositIds;\n    }\n\n    /*get getDepositDetails*/\n    function getDepositDetails(uint256 _id) view public returns (address _tokenAddress, address _withdrawalAddress, uint256 _tokenAmount, uint256 _unlockTime, bool _withdrawn)\n    {\n        return(lockedToken[_id].tokenAddress,lockedToken[_id].withdrawalAddress,lockedToken[_id].tokenAmount,\n        lockedToken[_id].unlockTime,lockedToken[_id].withdrawn);\n    }\n\n    /*get DepositsByWithdrawalAddress*/\n    function getDepositsByWithdrawalAddress(address _withdrawalAddress) view public returns (uint256[] memory)\n    {\n        return depositsByWithdrawalAddress[_withdrawalAddress];\n    }\n}\n",
  "sourcePath": "/home/lslha/Escritorio/tokenCreator/DeplyTokenCreatorCotracts/contracts/Locker.sol",
  "compiler": {
    "name": "solc",
    "version": "0.8.10+commit.fc410830.Emscripten.clang"
  },
  "schemaVersion": "3.4.3",
  "updatedAt": "2021-12-07T22:08:11.314Z",
  "devdoc": {
    "kind": "dev",
    "methods": {
      "owner()": {
        "details": "Returns the address of the current owner."
      },
      "renounceOwnership()": {
        "details": "Leaves the contract without owner. It will not be possible to call `onlyOwner` functions anymore. Can only be called by the current owner. NOTE: Renouncing ownership will leave the contract without an owner, thereby removing any functionality that is only available to the owner."
      },
      "transferOwnership(address)": {
        "details": "Transfers ownership of the contract to a new account (`newOwner`). Can only be called by the current owner."
      }
    },
    "version": 1
  },
  "userdoc": {
    "kind": "user",
    "methods": {
      "extendLockDuration(uint256,uint256)": {
        "notice": "Extend lock Duration"
      },
      "lockTokens(address,address,uint256,uint256)": {
        "notice": "lock tokens"
      },
      "transferLocks(uint256,address)": {
        "notice": "transfer locked tokens"
      },
      "withdrawTokens(uint256)": {
        "notice": "withdraw tokens"
      }
    },
    "version": 1
  }
}