{
  "contractName": "PresaleCreator",
  "abi": [
    {
      "inputs": [],
      "stateMutability": "nonpayable",
      "type": "constructor"
    },
    {
      "anonymous": false,
      "inputs": [
        {
          "indexed": true,
          "internalType": "address",
          "name": "previousOwner",
          "type": "address"
        },
        {
          "indexed": true,
          "internalType": "address",
          "name": "newOwner",
          "type": "address"
        }
      ],
      "name": "OwnershipTransferred",
      "type": "event"
    },
    {
      "anonymous": false,
      "inputs": [
        {
          "indexed": false,
          "internalType": "address",
          "name": "user",
          "type": "address"
        },
        {
          "indexed": false,
          "internalType": "uint256",
          "name": "amount",
          "type": "uint256"
        }
      ],
      "name": "ValueReceived",
      "type": "event"
    },
    {
      "anonymous": false,
      "inputs": [
        {
          "indexed": false,
          "internalType": "address",
          "name": "user",
          "type": "address"
        },
        {
          "indexed": false,
          "internalType": "uint256",
          "name": "amount",
          "type": "uint256"
        }
      ],
      "name": "ValueSended",
      "type": "event"
    },
    {
      "inputs": [],
      "name": "owner",
      "outputs": [
        {
          "internalType": "address",
          "name": "",
          "type": "address"
        }
      ],
      "stateMutability": "view",
      "type": "function"
    },
    {
      "inputs": [
        {
          "internalType": "address",
          "name": "",
          "type": "address"
        },
        {
          "internalType": "uint256",
          "name": "",
          "type": "uint256"
        }
      ],
      "name": "presalesIds",
      "outputs": [
        {
          "internalType": "uint256",
          "name": "",
          "type": "uint256"
        }
      ],
      "stateMutability": "view",
      "type": "function"
    },
    {
      "inputs": [],
      "name": "renounceOwnership",
      "outputs": [],
      "stateMutability": "nonpayable",
      "type": "function"
    },
    {
      "inputs": [
        {
          "internalType": "address",
          "name": "newOwner",
          "type": "address"
        }
      ],
      "name": "transferOwnership",
      "outputs": [],
      "stateMutability": "nonpayable",
      "type": "function"
    },
    {
      "stateMutability": "payable",
      "type": "receive"
    },
    {
      "inputs": [],
      "name": "ContractBalance",
      "outputs": [
        {
          "internalType": "uint256",
          "name": "",
          "type": "uint256"
        }
      ],
      "stateMutability": "view",
      "type": "function"
    },
    {
      "inputs": [
        {
          "internalType": "uint256",
          "name": "presaleId",
          "type": "uint256"
        }
      ],
      "name": "buy",
      "outputs": [],
      "stateMutability": "payable",
      "type": "function"
    },
    {
      "inputs": [
        {
          "internalType": "uint256",
          "name": "presaleId",
          "type": "uint256"
        }
      ],
      "name": "WithdrawBnbFromPresale",
      "outputs": [],
      "stateMutability": "payable",
      "type": "function"
    },
    {
      "inputs": [
        {
          "internalType": "uint256",
          "name": "presaleId",
          "type": "uint256"
        }
      ],
      "name": "WithdrawTokensFromPresale",
      "outputs": [],
      "stateMutability": "payable",
      "type": "function"
    },
    {
      "inputs": [
        {
          "internalType": "uint256",
          "name": "presaleId",
          "type": "uint256"
        },
        {
          "internalType": "uint256",
          "name": "value",
          "type": "uint256"
        }
      ],
      "name": "SetMinBuy",
      "outputs": [],
      "stateMutability": "nonpayable",
      "type": "function"
    },
    {
      "inputs": [
        {
          "internalType": "uint256",
          "name": "presaleId",
          "type": "uint256"
        },
        {
          "internalType": "uint256",
          "name": "value",
          "type": "uint256"
        }
      ],
      "name": "SetMaxBuy",
      "outputs": [],
      "stateMutability": "nonpayable",
      "type": "function"
    },
    {
      "inputs": [
        {
          "internalType": "uint256",
          "name": "presaleId",
          "type": "uint256"
        },
        {
          "internalType": "bool",
          "name": "value",
          "type": "bool"
        }
      ],
      "name": "SetOnlyWhiteList",
      "outputs": [],
      "stateMutability": "nonpayable",
      "type": "function"
    },
    {
      "inputs": [
        {
          "internalType": "uint256",
          "name": "presaleId",
          "type": "uint256"
        },
        {
          "internalType": "bool",
          "name": "value",
          "type": "bool"
        }
      ],
      "name": "SetPresaleEnable",
      "outputs": [],
      "stateMutability": "nonpayable",
      "type": "function"
    },
    {
      "inputs": [
        {
          "internalType": "uint256",
          "name": "presaleId",
          "type": "uint256"
        },
        {
          "internalType": "uint256",
          "name": "value",
          "type": "uint256"
        }
      ],
      "name": "SetTokenPrice",
      "outputs": [],
      "stateMutability": "nonpayable",
      "type": "function"
    },
    {
      "inputs": [
        {
          "internalType": "uint256",
          "name": "presaleId",
          "type": "uint256"
        },
        {
          "internalType": "address",
          "name": "member",
          "type": "address"
        }
      ],
      "name": "AddWhiteListMember",
      "outputs": [],
      "stateMutability": "nonpayable",
      "type": "function"
    },
    {
      "inputs": [
        {
          "internalType": "uint256",
          "name": "presaleId",
          "type": "uint256"
        },
        {
          "internalType": "address",
          "name": "member",
          "type": "address"
        }
      ],
      "name": "RemoveWhiteListMember",
      "outputs": [],
      "stateMutability": "nonpayable",
      "type": "function"
    },
    {
      "inputs": [
        {
          "internalType": "address",
          "name": "ownerAddress",
          "type": "address"
        }
      ],
      "name": "FindPresalesByOwnerAddress",
      "outputs": [
        {
          "internalType": "int256[]",
          "name": "",
          "type": "int256[]"
        }
      ],
      "stateMutability": "view",
      "type": "function"
    },
    {
      "inputs": [
        {
          "internalType": "uint256",
          "name": "presaleId",
          "type": "uint256"
        }
      ],
      "name": "GetWhiteList",
      "outputs": [
        {
          "internalType": "address[]",
          "name": "",
          "type": "address[]"
        }
      ],
      "stateMutability": "view",
      "type": "function"
    },
    {
      "inputs": [
        {
          "internalType": "address",
          "name": "tokenAddress",
          "type": "address"
        },
        {
          "internalType": "uint256",
          "name": "tokenPrice",
          "type": "uint256"
        }
      ],
      "name": "CreatePresale",
      "outputs": [],
      "stateMutability": "nonpayable",
      "type": "function"
    }
  ],
  "bytecode": "0x608060405234801561001057600080fd5b5061001a3361001f565b61006f565b600080546001600160a01b038381166001600160a01b0319831681178455604051919092169283917f8be0079c531659141344cd1fd0a4f28419497f9722a3daafe3b4186f6b6457e09190a35050565b611cb78061007e6000396000f3fe60806040526004361061010d5760003560e01c8063d96a094a11610095578063eb606f8a11610064578063eb606f8a146102a4578063ef70397e146102c4578063f2fde38b146102f1578063f3ddac3614610311578063fa9d48881461033157600080fd5b8063d96a094a14610224578063da3a90ab14610237578063dd2cd7ae14610257578063dd490edb1461028457600080fd5b8063715018a6116100dc578063715018a61461019457806380bfbcf5146101a957806382b288fe146101bc5780638da5cb5b146101dc578063ab790c431461020457600080fd5b8063164b726c146101195780632f8c61aa1461014c5780633b6680591461016e57806342d6f84a1461018157600080fd5b3661011457005b600080fd5b34801561012557600080fd5b5061013961013436600461190d565b610351565b6040519081526020015b60405180910390f35b34801561015857600080fd5b5061016c610167366004611937565b610382565b005b34801561017a57600080fd5b5047610139565b61016c61018f366004611959565b6103e2565b3480156101a057600080fd5b5061016c61059b565b61016c6101b7366004611959565b6105d1565b3480156101c857600080fd5b5061016c6101d736600461190d565b6106b8565b3480156101e857600080fd5b506000546040516001600160a01b039091168152602001610143565b34801561021057600080fd5b5061016c61021f366004611980565b6109fc565b61016c610232366004611959565b610a60565b34801561024357600080fd5b5061016c610252366004611980565b610f3b565b34801561026357600080fd5b50610277610272366004611959565b610fa5565b60405161014391906119b0565b34801561029057600080fd5b5061016c61029f3660046119fd565b61108d565b3480156102b057600080fd5b5061016c6102bf366004611937565b611319565b3480156102d057600080fd5b506102e46102df366004611a29565b611370565b6040516101439190611a4b565b3480156102fd57600080fd5b5061016c61030c366004611a29565b611416565b34801561031d57600080fd5b5061016c61032c3660046119fd565b6114b1565b34801561033d57600080fd5b5061016c61034c366004611937565b611644565b6002602052816000526040600020818154811061036d57600080fd5b90600052602060002001600091509150505481565b6000546001600160a01b031633146103b55760405162461bcd60e51b81526004016103ac90611a83565b60405180910390fd5b80600183815481106103c9576103c9611ab8565b90600052602060002090600b0201600301819055505050565b60006103ed8261169b565b90508060001914156104115760405162461bcd60e51b81526004016103ac90611ace565b336001600160a01b03166001828154811061042e5761042e611ab8565b600091825260209091206001600b9092020101546001600160a01b0316146104685760405162461bcd60e51b81526004016103ac90611b05565b60006001828154811061047d5761047d611ab8565b60009182526020909120600b90910201600201546040516370a0823160e01b81523060048201526001600160a01b03909116906370a0823190602401602060405180830381865afa1580156104d6573d6000803e3d6000fd5b505050506040513d601f19601f820116820180604052508101906104fa9190611b6e565b90506001838154811061050f5761050f611ab8565b60009182526020909120600b909102016002015460405163a9059cbb60e01b8152336004820152602481018390526001600160a01b039091169063a9059cbb906044016020604051808303816000875af1158015610571573d6000803e3d6000fd5b505050506040513d601f19601f820116820180604052508101906105959190611b87565b50505050565b6000546001600160a01b031633146105c55760405162461bcd60e51b81526004016103ac90611a83565b6105cf6000611729565b565b60006105dc8261169b565b90508060001914156106005760405162461bcd60e51b81526004016103ac90611ace565b336001600160a01b03166001828154811061061d5761061d611ab8565b600091825260209091206001600b9092020101546001600160a01b0316146106575760405162461bcd60e51b81526004016103ac90611b05565b6001818154811061066a5761066a611ab8565b6000918252602082206001600b9092020101546040516001600160a01b03909116914780156108fc02929091818181858888f193505050501580156106b3573d6000803e3d6000fd5b505050565b60006106c383611779565b9050806000191461072f5760405162461bcd60e51b815260206004820152603060248201527f286275792920416c72656164792065657869737473206f6e652070726573616c60448201526f32903337b9103a3434b9903a37b5b2b760811b60648201526084016103ac565b6000604051806101800160405280600180549050600161074f9190611bba565b81523360208201526001600160a01b038616604082015260608101859052608001600060405190808252806020026020018201604052801561079b578160200160208202803683370190505b5081526020016001151581526020016000815260200160018152602001856001600160a01b03166318160ddd6040518163ffffffff1660e01b8152600401602060405180830381865afa1580156107f6573d6000803e3d6000fd5b505050506040513d601f19601f8201168201806040525081019061081a9190611b6e565b81526000602080830182905260016040808501829052606094850182905281548083018355919093528451600b9091027fb10e2d527612073b26eecdfd717e6a320cf44b4afac2b0732d9fcbe2b7fa0cf68101918255858301517fb10e2d527612073b26eecdfd717e6a320cf44b4afac2b0732d9fcbe2b7fa0cf7820180546001600160a01b039283166001600160a01b031991821617909155948701517fb10e2d527612073b26eecdfd717e6a320cf44b4afac2b0732d9fcbe2b7fa0cf88301805491909216951694909417909355928401517fb10e2d527612073b26eecdfd717e6a320cf44b4afac2b0732d9fcbe2b7fa0cf983015560808401518051949550859461094f937fb10e2d527612073b26eecdfd717e6a320cf44b4afac2b0732d9fcbe2b7fa0cfa01929190910190611877565b5060a082015160058201805460ff191691151591909117905560c0820151600682015560e082015160078201556101008083015160088301556101208301516009830155610140830151600a90920180546101609094015161ffff1990941692151561ff0019169290921792151502919091179055336000908152600260205260409020600180546109e091611bba565b8154600181018355600092835260209092209091015550505050565b6000546001600160a01b03163314610a265760405162461bcd60e51b81526004016103ac90611a83565b8060018381548110610a3a57610a3a611ab8565b60009182526020909120600b90910201600501805460ff19169115159190911790555050565b6000610a6b8261169b565b9050806000191415610a8f5760405162461bcd60e51b81526004016103ac90611ace565b60018181548110610aa257610aa2611ab8565b60009182526020909120600a600b90920201015460ff610100909104161515600114610b1a5760405162461bcd60e51b815260206004820152602160248201527f285f6465706f736974292050726573616c65206e6f7420697320656e61626c656044820152601960fa1b60648201526084016103ac565b60018181548110610b2d57610b2d611ab8565b90600052602060002090600b020160070154341015610b8e5760405162461bcd60e51b815260206004820152601a60248201527f285f6465706f73697429204d696e20427579204578636564656400000000000060448201526064016103ac565b60018181548110610ba157610ba1611ab8565b90600052602060002090600b020160080154341115610c025760405162461bcd60e51b815260206004820152601a60248201527f285f6465706f73697429204d617820427579204578636564656400000000000060448201526064016103ac565b6000610c8a60018381548110610c1a57610c1a611ab8565b90600052602060002090600b0201600401805480602002602001604051908101604052809291908181526020018280548015610c7f57602002820191906000526020600020905b81546001600160a01b03168152600190910190602001808311610c61575b505050505033611811565b905060018281548110610c9f57610c9f611ab8565b600091825260209091206005600b90920201015460ff16610cc1576001610cc8565b8060001914155b610d265760405162461bcd60e51b815260206004820152602960248201527f285f6465706f736974292041646472657373206e6f74206578697374206f6e206044820152681dda1a5d19531a5cdd60ba1b60648201526084016103ac565b600060018381548110610d3b57610d3b611ab8565b60009182526020918290206002600b9092020101546040805163313ce56760e01b815290516001600160a01b039092169263313ce567926004808401938290030181865afa158015610d91573d6000803e3d6000fd5b505050506040513d601f19601f82011682018060405250810190610db59190611bd2565b60ff1660018481548110610dcb57610dcb611ab8565b90600052602060002090600b02016003015434610de89190611bf5565b610df29190611c17565b905060018381548110610e0757610e07611ab8565b60009182526020909120600b909102016002015460405163a9059cbb60e01b8152336004820152602481018390526001600160a01b039091169063a9059cbb906044016020604051808303816000875af1158015610e69573d6000803e3d6000fd5b505050506040513d601f19601f82011682018060405250810190610e8d9190611b87565b5060018381548110610ea157610ea1611ab8565b6000918252602082206006600b9092020101805491610ebf83611c36565b91905055508060018481548110610ed857610ed8611ab8565b90600052602060002090600b02016009016000828254610ef89190611bba565b9091555050604080513381523460208201527f7e71433ddf847725166244795048ecf3e3f9f35628254ecbf736056664233493910160405180910390a150505050565b6000546001600160a01b03163314610f655760405162461bcd60e51b81526004016103ac90611a83565b8060018381548110610f7957610f79611ab8565b90600052602060002090600b0201600a0160016101000a81548160ff0219169083151502179055505050565b606060005b600154811015611077578260018281548110610fc857610fc8611ab8565b90600052602060002090600b02016000015414156110655760018381548110610ff357610ff3611ab8565b90600052602060002090600b020160040180548060200260200160405190810160405280929190818152602001828054801561105857602002820191906000526020600020905b81546001600160a01b0316815260019091019060200180831161103a575b5050505050915050919050565b8061106f81611c36565b915050610faa565b5050604080516000815260208101909152919050565b6000546001600160a01b031633146110b75760405162461bcd60e51b81526004016103ac90611a83565b60001960005b600184815481106110d0576110d0611ab8565b90600052602060002090600b02016004018054905081121561116057826001600160a01b03166001858154811061110957611109611ab8565b90600052602060002090600b0201600401828154811061112b5761112b611ab8565b6000918252602090912001546001600160a01b0316141561114e57809150611160565b8061115881611c51565b9150506110bd565b508060001914156111c35760405162461bcd60e51b815260206004820152602760248201527f4572726f722852656d6f76654d656d626572293a2041646472657373206e6f746044820152662065786973747360c81b60648201526084016103ac565b600183815481106111d6576111d6611ab8565b60009182526020808320600b92909202909101600401805460018101825590835291200180546001600160a01b0319166001600160a01b038416179055805b600180858154811061122957611229611ab8565b90600052602060002090600b0201600401805490506112489190611c6a565b811015610595576001848154811061126257611262611ab8565b90600052602060002090600b02016004018160016112809190611bba565b8154811061129057611290611ab8565b600091825260209091200154600180546001600160a01b0390921691869081106112bc576112bc611ab8565b90600052602060002090600b020160040182815481106112de576112de611ab8565b600091825260209091200180546001600160a01b0319166001600160a01b03929092169190911790558061131181611c36565b915050611215565b6000546001600160a01b031633146113435760405162461bcd60e51b81526004016103ac90611a83565b806001838154811061135757611357611ab8565b90600052602060002090600b0201600701819055505050565b606060005b60015481101561107757826001600160a01b03166001828154811061139c5761139c611ab8565b600091825260209091206001600b9092020101546001600160a01b03161480156113ec5750600181815481106113d4576113d4611ab8565b60009182526020909120600a600b90920201015460ff165b15611404576001600160a01b03831660005260026020525b8061140e81611c36565b915050611375565b6000546001600160a01b031633146114405760405162461bcd60e51b81526004016103ac90611a83565b6001600160a01b0381166114a55760405162461bcd60e51b815260206004820152602660248201527f4f776e61626c653a206e6577206f776e657220697320746865207a65726f206160448201526564647265737360d01b60648201526084016103ac565b6114ae81611729565b50565b6000546001600160a01b031633146114db5760405162461bcd60e51b81526004016103ac90611a83565b60001960005b600184815481106114f4576114f4611ab8565b90600052602060002090600b02016004018054905081121561158457826001600160a01b03166001858154811061152d5761152d611ab8565b90600052602060002090600b0201600401828154811061154f5761154f611ab8565b6000918252602090912001546001600160a01b0316141561157257809150611584565b8061157c81611c51565b9150506114e1565b5080600019146115ea5760405162461bcd60e51b815260206004820152602b60248201527f4572726f722852656d6f76654d656d626572293a204164647265737320616c7260448201526a656164792065786973747360a81b60648201526084016103ac565b600183815481106115fd576115fd611ab8565b60009182526020808320600b92909202909101600401805460018101825590835291200180546001600160a01b0319166001600160a01b0393909316929092179091555050565b6000546001600160a01b0316331461166e5760405162461bcd60e51b81526004016103ac90611a83565b806001838154811061168257611682611ab8565b90600052602060002090600b0201600801819055505050565b6000805b60015481101561171f5782600182815481106116bd576116bd611ab8565b90600052602060002090600b0201600001541480156117025750600181815481106116ea576116ea611ab8565b60009182526020909120600a600b90920201015460ff165b1561170d5792915050565b8061171781611c36565b91505061169f565b5060001992915050565b600080546001600160a01b038381166001600160a01b0319831681178455604051919092169283917f8be0079c531659141344cd1fd0a4f28419497f9722a3daafe3b4186f6b6457e09190a35050565b6000805b60015481101561171f57826001600160a01b0316600182815481106117a4576117a4611ab8565b600091825260209091206002600b9092020101546001600160a01b03161480156117f45750600181815481106117dc576117dc611ab8565b60009182526020909120600a600b90920201015460ff165b156117ff5792915050565b8061180981611c36565b91505061177d565b6000805b835181101561186a57826001600160a01b031684828151811061183a5761183a611ab8565b60200260200101516001600160a01b03161415611858579050611871565b8061186281611c36565b915050611815565b5060001990505b92915050565b8280548282559060005260206000209081019282156118cc579160200282015b828111156118cc57825182546001600160a01b0319166001600160a01b03909116178255602090920191600190910190611897565b506118d89291506118dc565b5090565b5b808211156118d857600081556001016118dd565b80356001600160a01b038116811461190857600080fd5b919050565b6000806040838503121561192057600080fd5b611929836118f1565b946020939093013593505050565b6000806040838503121561194a57600080fd5b50508035926020909101359150565b60006020828403121561196b57600080fd5b5035919050565b80151581146114ae57600080fd5b6000806040838503121561199357600080fd5b8235915060208301356119a581611972565b809150509250929050565b6020808252825182820181905260009190848201906040850190845b818110156119f15783516001600160a01b0316835292840192918401916001016119cc565b50909695505050505050565b60008060408385031215611a1057600080fd5b82359150611a20602084016118f1565b90509250929050565b600060208284031215611a3b57600080fd5b611a44826118f1565b9392505050565b6020808252825182820181905260009190848201906040850190845b818110156119f157835183529284019291840191600101611a67565b6020808252818101527f4f776e61626c653a2063616c6c6572206973206e6f7420746865206f776e6572604082015260600190565b634e487b7160e01b600052603260045260246000fd5b60208082526017908201527f28627579292050726573616c65206e6f74206578697374000000000000000000604082015260600190565b60208082526043908201527f4572726f72285769746864726177426e6246726f6d50726573616c65293a204360408201527f616c6c657220646f6e74206265206f776e6572206f6620746869732070726573606082015262616c6560e81b608082015260a00190565b600060208284031215611b8057600080fd5b5051919050565b600060208284031215611b9957600080fd5b8151611a4481611972565b634e487b7160e01b600052601160045260246000fd5b60008219821115611bcd57611bcd611ba4565b500190565b600060208284031215611be457600080fd5b815160ff81168114611a4457600080fd5b600082611c1257634e487b7160e01b600052601260045260246000fd5b500490565b6000816000190483118215151615611c3157611c31611ba4565b500290565b6000600019821415611c4a57611c4a611ba4565b5060010190565b60006001600160ff1b03821415611c4a57611c4a611ba4565b600082821015611c7c57611c7c611ba4565b50039056fea26469706673582212206045669c0abb5399939fc538af0a29615fbfcc4553dbbf17c911c77a8b52ee7664736f6c634300080a0033",
  "immutableReferences": {},
  "source": "// SPDX-License-Identifier: MIT\n\npragma solidity 0.8.10;\n\n\n// File: @openzeppelin/contracts/utils/Context.sol\n\n/*\n * @dev Provides information about the current execution context, including the\n * sender of the transaction and its data. While these are generally available\n * via msg.sender and msg.data, they should not be accessed in such a direct\n * manner, since when dealing with meta-transactions the account sending and\n * paying for execution may not be the actual sender (as far as an application\n * is concerned).\n *\n * This contract is only required for intermediate, library-like contracts.\n */\nabstract contract Context {\n    function _msgSender() internal view virtual returns (address) {\n        return msg.sender;\n    }\n\n    function _msgData() internal view virtual returns (bytes calldata) {\n        return msg.data;\n    }\n}\n\n// File: @openzeppelin/contracts/access/Ownable.sol\n\n/**\n * @dev Contract module which provides a basic access control mechanism, where\n * there is an account (an owner) that can be granted exclusive access to\n * specific functions.\n *\n * By default, the owner account will be the one that deploys the contract. This\n * can later be changed with {transferOwnership}.\n *\n * This module is used through inheritance. It will make available the modifier\n * `onlyOwner`, which can be applied to your functions to restrict their use to\n * the owner.\n */\nabstract contract Ownable is Context {\n    address private _owner;\n\n    event OwnershipTransferred(address indexed previousOwner, address indexed newOwner);\n\n    /**\n     * @dev Initializes the contract setting the deployer as the initial owner.\n     */\n    constructor() {\n        _setOwner(_msgSender());\n    }\n\n    /**\n     * @dev Returns the address of the current owner.\n     */\n    function owner() public view virtual returns (address) {\n        return _owner;\n    }\n\n    /**\n     * @dev Throws if called by any account other than the owner.\n     */\n    modifier onlyOwner() {\n        require(owner() == _msgSender(), \"Ownable: caller is not the owner\");\n        _;\n    }\n\n    /**\n     * @dev Leaves the contract without owner. It will not be possible to call\n     * `onlyOwner` functions anymore. Can only be called by the current owner.\n     *\n     * NOTE: Renouncing ownership will leave the contract without an owner,\n     * thereby removing any functionality that is only available to the owner.\n     */\n    function renounceOwnership() public virtual onlyOwner {\n        _setOwner(address(0));\n    }\n\n    /**\n     * @dev Transfers ownership of the contract to a new account (`newOwner`).\n     * Can only be called by the current owner.\n     */\n    function transferOwnership(address newOwner) public virtual onlyOwner {\n        require(newOwner != address(0), \"Ownable: new owner is the zero address\");\n        _setOwner(newOwner);\n    }\n\n    function _setOwner(address newOwner) private {\n        address oldOwner = _owner;\n        _owner = newOwner;\n        emit OwnershipTransferred(oldOwner, newOwner);\n    }\n}\n\n// File: contracts/Presale.sol\n\nlibrary SafeMath {\n    function mul(uint256 a, uint256 b) internal pure returns (uint256) {\n        if (a == 0) {\n            return 0;\n        }\n        uint256 c = a * b;\n        assert(c / a == b);\n        return c;\n    }\n\n    function div(uint256 a, uint256 b) internal pure returns (uint256) {\n        uint256 c = a / b;\n        return c;\n    }\n\n    function sub(uint256 a, uint256 b) internal pure returns (uint256) {\n        assert(b <= a);\n        return a - b;\n    }\n\n    function add(uint256 a, uint256 b) internal pure returns (uint256) {\n        uint256 c = a + b;\n        assert(c >= a);\n        return c;\n    }\n\n    function ceil(uint256 a, uint256 m) internal pure returns (uint256) {\n        uint256 c = add(a,m);\n        uint256 d = sub(c,1);\n        return mul(div(d,m),m);\n    }\n}\n\n// File: @openzeppelin/contracts/token/ERC20/IERC20.sol\n\n/**\n * @dev Interface of the ERC20 standard as defined in the EIP.\n */\ninterface IERC20 {\n    /**\n     * @dev Returns the amount of tokens in existence.\n     */\n    function totalSupply() external view returns (uint256);\n\n    /**\n     * @dev Returns the amount of tokens owned by `account`.\n     */\n    function balanceOf(address account) external view returns (uint256);\n\n    /**\n     * @dev Moves `amount` tokens from the caller's account to `recipient`.\n     *\n     * Returns a boolean value indicating whether the operation succeeded.\n     *\n     * Emits a {Transfer} event.\n     */\n    function transfer(address recipient, uint256 amount) external returns (bool);\n\n    /**\n     * @dev Returns the remaining number of tokens that `spender` will be\n     * allowed to spend on behalf of `owner` through {transferFrom}. This is\n     * zero by default.\n     *\n     * This value changes when {approve} or {transferFrom} are called.\n     */\n    function allowance(address owner, address spender) external view returns (uint256);\n\n    /**\n     * @dev Sets `amount` as the allowance of `spender` over the caller's tokens.\n     *\n     * Returns a boolean value indicating whether the operation succeeded.\n     *\n     * IMPORTANT: Beware that changing an allowance with this method brings the risk\n     * that someone may use both the old and the new allowance by unfortunate\n     * transaction ordering. One possible solution to mitigate this race\n     * condition is to first reduce the spender's allowance to 0 and set the\n     * desired value afterwards:\n     * https://github.com/ethereum/EIPs/issues/20#issuecomment-263524729\n     *\n     * Emits an {Approval} event.\n     */\n    function approve(address spender, uint256 amount) external returns (bool);\n\n    /**\n     * @dev Moves `amount` tokens from `sender` to `recipient` using the\n     * allowance mechanism. `amount` is then deducted from the caller's\n     * allowance.\n     *\n     * Returns a boolean value indicating whether the operation succeeded.\n     *\n     * Emits a {Transfer} event.\n     */\n    function transferFrom(\n        address sender,\n        address recipient,\n        uint256 amount\n    ) external returns (bool);\n\n    /**\n     * @dev Emitted when `value` tokens are moved from one account (`from`) to\n     * another (`to`).\n     *\n     * Note that `value` may be zero.\n     */\n    event Transfer(address indexed from, address indexed to, uint256 value);\n\n    /**\n     * @dev Emitted when the allowance of a `spender` for an `owner` is set by\n     * a call to {approve}. `value` is the new allowance.\n     */\n    event Approval(address indexed owner, address indexed spender, uint256 value);\n}\n\n\n/**\n * @dev Interface for the optional metadata functions from the ERC20 standard.\n *\n * _Available since v4.1._\n */\ninterface IERC20Metadata is IERC20 {\n    /**\n     * @dev Returns the name of the token.\n     */\n    function name() external view returns (string memory);\n\n    /**\n     * @dev Returns the symbol of the token.\n     */\n    function symbol() external view returns (string memory);\n\n    /**\n     * @dev Returns the decimals places of the token.\n     */\n    function decimals() external view returns (uint8);\n}\n\n// File: @openzeppelin/contracts/token/ERC20/ERC20.sol\n\n/**\n * @dev Implementation of the {IERC20} interface.\n *\n * This implementation is agnostic to the way tokens are created. This means\n * that a supply mechanism has to be added in a derived contract using {_mint}.\n * For a generic mechanism see {ERC20PresetMinterPauser}.\n *\n * TIP: For a detailed writeup see our guide\n * https://forum.zeppelin.solutions/t/how-to-implement-erc20-supply-mechanisms/226[How\n * to implement supply mechanisms].\n *\n * We have followed general OpenZeppelin guidelines: functions revert instead\n * of returning `false` on failure. This behavior is nonetheless conventional\n * and does not conflict with the expectations of ERC20 applications.\n *\n * Additionally, an {Approval} event is emitted on calls to {transferFrom}.\n * This allows applications to reconstruct the allowance for all accounts just\n * by listening to said events. Other implementations of the EIP may not emit\n * these events, as it isn't required by the specification.\n *\n * Finally, the non-standard {decreaseAllowance} and {increaseAllowance}\n * functions have been added to mitigate the well-known issues around setting\n * allowances. See {IERC20-approve}.\n */\ncontract ERC20 is Context, IERC20, IERC20Metadata {\n    mapping(address => uint256) private _balances;\n\n    mapping(address => mapping(address => uint256)) private _allowances;\n\n    uint256 private _totalSupply;\n\n    string private _name;\n    string private _symbol;\n\n    /**\n     * @dev Sets the values for {name} and {symbol}.\n     *\n     * The default value of {decimals} is 18. To select a different value for\n     * {decimals} you should overload it.\n     *\n     * All two of these values are immutable: they can only be set once during\n     * construction.\n     */\n    constructor(string memory name_, string memory symbol_) {\n        _name = name_;\n        _symbol = symbol_;\n    }\n\n    /**\n     * @dev Returns the name of the token.\n     */\n    function name() public view virtual override returns (string memory) {\n        return _name;\n    }\n\n    /**\n     * @dev Returns the symbol of the token, usually a shorter version of the\n     * name.\n     */\n    function symbol() public view virtual override returns (string memory) {\n        return _symbol;\n    }\n\n    /**\n     * @dev Returns the number of decimals used to get its user representation.\n     * For example, if `decimals` equals `2`, a balance of `505` tokens should\n     * be displayed to a user as `5,05` (`505 / 10 ** 2`).\n     *\n     * Tokens usually opt for a value of 18, imitating the relationship between\n     * Ether and Wei. This is the value {ERC20} uses, unless this function is\n     * overridden;\n     *\n     * NOTE: This information is only used for _display_ purposes: it in\n     * no way affects any of the arithmetic of the contract, including\n     * {IERC20-balanceOf} and {IERC20-transfer}.\n     */\n    function decimals() public view virtual override returns (uint8) {\n        return 6;\n    }\n\n    /**\n     * @dev See {IERC20-totalSupply}.\n     */\n    function totalSupply() public view virtual override returns (uint256) {\n        return _totalSupply;\n    }\n\n    /**\n     * @dev See {IERC20-balanceOf}.\n     */\n    function balanceOf(address account) public view virtual override returns (uint256) {\n        return _balances[account];\n    }\n\n    /**\n     * @dev See {IERC20-transfer}.\n     *\n     * Requirements:\n     *\n     * - `recipient` cannot be the zero address.\n     * - the caller must have a balance of at least `amount`.\n     */\n    function transfer(address recipient, uint256 amount) public virtual override returns (bool) {\n        _transfer(_msgSender(), recipient, amount);\n        return true;\n    }\n\n    /**\n     * @dev See {IERC20-allowance}.\n     */\n    function allowance(address owner, address spender) public view virtual override returns (uint256) {\n        return _allowances[owner][spender];\n    }\n\n    /**\n     * @dev See {IERC20-approve}.\n     *\n     * Requirements:\n     *\n     * - `spender` cannot be the zero address.\n     */\n    function approve(address spender, uint256 amount) public virtual override returns (bool) {\n        _approve(_msgSender(), spender, amount);\n        return true;\n    }\n\n    /**\n     * @dev See {IERC20-transferFrom}.\n     *\n     * Emits an {Approval} event indicating the updated allowance. This is not\n     * required by the EIP. See the note at the beginning of {ERC20}.\n     *\n     * Requirements:\n     *\n     * - `sender` and `recipient` cannot be the zero address.\n     * - `sender` must have a balance of at least `amount`.\n     * - the caller must have allowance for ``sender``'s tokens of at least\n     * `amount`.\n     */\n    function transferFrom(\n        address sender,\n        address recipient,\n        uint256 amount\n    ) public virtual override returns (bool) {\n        _transfer(sender, recipient, amount);\n\n        uint256 currentAllowance = _allowances[sender][_msgSender()];\n        require(currentAllowance >= amount, \"ERC20: transfer amount exceeds allowance\");\n    unchecked {\n        _approve(sender, _msgSender(), currentAllowance - amount);\n    }\n\n        return true;\n    }\n\n    /**\n     * @dev Atomically increases the allowance granted to `spender` by the caller.\n     *\n     * This is an alternative to {approve} that can be used as a mitigation for\n     * problems described in {IERC20-approve}.\n     *\n     * Emits an {Approval} event indicating the updated allowance.\n     *\n     * Requirements:\n     *\n     * - `spender` cannot be the zero address.\n     */\n    function increaseAllowance(address spender, uint256 addedValue) public virtual returns (bool) {\n        _approve(_msgSender(), spender, _allowances[_msgSender()][spender] + addedValue);\n        return true;\n    }\n\n    /**\n     * @dev Atomically decreases the allowance granted to `spender` by the caller.\n     *\n     * This is an alternative to {approve} that can be used as a mitigation for\n     * problems described in {IERC20-approve}.\n     *\n     * Emits an {Approval} event indicating the updated allowance.\n     *\n     * Requirements:\n     *\n     * - `spender` cannot be the zero address.\n     * - `spender` must have allowance for the caller of at least\n     * `subtractedValue`.\n     */\n    function decreaseAllowance(address spender, uint256 subtractedValue) public virtual returns (bool) {\n        uint256 currentAllowance = _allowances[_msgSender()][spender];\n        require(currentAllowance >= subtractedValue, \"ERC20: decreased allowance below zero\");\n    unchecked {\n        _approve(_msgSender(), spender, currentAllowance - subtractedValue);\n    }\n\n        return true;\n    }\n\n    /**\n     * @dev Moves `amount` of tokens from `sender` to `recipient`.\n     *\n     * This internal function is equivalent to {transfer}, and can be used to\n     * e.g. implement automatic token fees, slashing mechanisms, etc.\n     *\n     * Emits a {Transfer} event.\n     *\n     * Requirements:\n     *\n     * - `sender` cannot be the zero address.\n     * - `recipient` cannot be the zero address.\n     * - `sender` must have a balance of at least `amount`.\n     */\n    function _transfer(\n        address sender,\n        address recipient,\n        uint256 amount\n    ) internal virtual {\n        require(sender != address(0), \"ERC20: transfer from the zero address\");\n        require(recipient != address(0), \"ERC20: transfer to the zero address\");\n\n        _beforeTokenTransfer(sender, recipient, amount);\n\n        uint256 senderBalance = _balances[sender];\n        require(senderBalance >= amount, \"ERC20: transfer amount exceeds balance\");\n    unchecked {\n        _balances[sender] = senderBalance - amount;\n    }\n        _balances[recipient] += amount;\n\n        emit Transfer(sender, recipient, amount);\n\n        _afterTokenTransfer(sender, recipient, amount);\n    }\n\n    /** @dev Creates `amount` tokens and assigns them to `account`, increasing\n     * the total supply.\n     *\n     * Emits a {Transfer} event with `from` set to the zero address.\n     *\n     * Requirements:\n     *\n     * - `account` cannot be the zero address.\n     */\n    function _mint(address account, uint256 amount) internal virtual {\n        require(account != address(0), \"ERC20: mint to the zero address\");\n\n        _beforeTokenTransfer(address(0), account, amount);\n\n        _totalSupply += amount;\n        _balances[account] += amount;\n        emit Transfer(address(0), account, amount);\n\n        _afterTokenTransfer(address(0), account, amount);\n    }\n\n    /**\n     * @dev Destroys `amount` tokens from `account`, reducing the\n     * total supply.\n     *\n     * Emits a {Transfer} event with `to` set to the zero address.\n     *\n     * Requirements:\n     *\n     * - `account` cannot be the zero address.\n     * - `account` must have at least `amount` tokens.\n     */\n    function _burn(address account, uint256 amount) internal virtual {\n        require(account != address(0), \"ERC20: burn from the zero address\");\n\n        _beforeTokenTransfer(account, address(0), amount);\n\n        uint256 accountBalance = _balances[account];\n        require(accountBalance >= amount, \"ERC20: burn amount exceeds balance\");\n    unchecked {\n        _balances[account] = accountBalance - amount;\n    }\n        _totalSupply -= amount;\n\n        emit Transfer(account, address(0), amount);\n\n        _afterTokenTransfer(account, address(0), amount);\n    }\n\n    /**\n     * @dev Sets `amount` as the allowance of `spender` over the `owner` s tokens.\n     *\n     * This internal function is equivalent to `approve`, and can be used to\n     * e.g. set automatic allowances for certain subsystems, etc.\n     *\n     * Emits an {Approval} event.\n     *\n     * Requirements:\n     *\n     * - `owner` cannot be the zero address.\n     * - `spender` cannot be the zero address.\n     */\n    function _approve(\n        address owner,\n        address spender,\n        uint256 amount\n    ) internal virtual {\n        require(owner != address(0), \"ERC20: approve from the zero address\");\n        require(spender != address(0), \"ERC20: approve to the zero address\");\n\n        _allowances[owner][spender] = amount;\n        emit Approval(owner, spender, amount);\n    }\n\n    /**\n     * @dev Hook that is called before any transfer of tokens. This includes\n     * minting and burning.\n     *\n     * Calling conditions:\n     *\n     * - when `from` and `to` are both non-zero, `amount` of ``from``'s tokens\n     * will be transferred to `to`.\n     * - when `from` is zero, `amount` tokens will be minted for `to`.\n     * - when `to` is zero, `amount` of ``from``'s tokens will be burned.\n     * - `from` and `to` are never both zero.\n     *\n     * To learn more about hooks, head to xref:ROOT:extending-contracts.adoc#using-hooks[Using Hooks].\n     */\n    function _beforeTokenTransfer(\n        address from,\n        address to,\n        uint256 amount\n    ) internal virtual {}\n\n    /**\n     * @dev Hook that is called after any transfer of tokens. This includes\n     * minting and burning.\n     *\n     * Calling conditions:\n     *\n     * - when `from` and `to` are both non-zero, `amount` of ``from``'s tokens\n     * has been transferred to `to`.\n     * - when `from` is zero, `amount` tokens have been minted for `to`.\n     * - when `to` is zero, `amount` of ``from``'s tokens have been burned.\n     * - `from` and `to` are never both zero.\n     *\n     * To learn more about hooks, head to xref:ROOT:extending-contracts.adoc#using-hooks[Using Hooks].\n     */\n    function _afterTokenTransfer(\n        address from,\n        address to,\n        uint256 amount\n    ) internal virtual {}\n}\n\ncontract PresaleCreator is Ownable {\n    using SafeMath for uint256;\n\n    struct Presale {\n        uint id;\n        address ownerAddress;\n        address tokenAddress;\n        uint256 tokenPrice;\n        address [] whiteList;\n        bool whiteListedOnly;\n        uint256 numOfParticipants;\n        uint256 minBuy;\n        uint256 maxBuy;\n        uint256 purchasedAmount;\n        bool isExist;\n        bool isEnabled;\n    }\n\n    Presale[] presales;\n    mapping(address => uint256[]) public presalesIds;\n\n    // events\n    event ValueReceived(address user, uint256 amount);\n    event ValueSended(address user, uint256 amount);\n\n    constructor()  {\n    }\n\n    function ContractBalance() public view returns (uint256) {\n        return address(this).balance;\n    }\n\n    //to recieve ETH\n    receive() external payable {\n    }\n\n    function buy(uint presaleId) external payable {\n\n        int presaleIndex = FindPresaleIndexById(presaleId);\n        require(presaleIndex != -1, \"(buy) Presale not exist\");\n\n        require(presales[uint(presaleIndex)].isEnabled == true, \"(_deposit) Presale not is enabled\");\n        require(msg.value >= presales[uint(presaleIndex)].minBuy, \"(_deposit) Min Buy Exceded\");\n        require(msg.value <= presales[uint(presaleIndex)].maxBuy, \"(_deposit) Max Buy Exceded\");\n\n        int memberIndex = FindAddressInList(presales[uint(presaleIndex)].whiteList, msg.sender);\n        require(presales[uint(presaleIndex)].whiteListedOnly ? memberIndex != -1 : true, \"(_deposit) Address not exist on whiteList\");\n\n        uint256 sended = (msg.value / presales[uint(presaleIndex)].tokenPrice) * ERC20(address(presales[uint(presaleIndex)].tokenAddress)).decimals();\n        ERC20(address(presales[uint(presaleIndex)].tokenAddress)).transfer(msg.sender, sended);\n\n        presales[uint(presaleIndex)].numOfParticipants++;\n        presales[uint(presaleIndex)].purchasedAmount += sended;\n\n        emit ValueReceived(msg.sender, msg.value);\n\n    }\n\n    function WithdrawBnbFromPresale(uint presaleId) public payable {\n        int presaleIndex = FindPresaleIndexById(presaleId);\n        require(presaleIndex != -1, \"(buy) Presale not exist\");\n\n        require(presales[uint(presaleIndex)].ownerAddress == msg.sender, \"Error(WithdrawBnbFromPresale): Caller dont be owner of this presale\");\n\n        payable(presales[uint(presaleIndex)].ownerAddress).transfer(address(this).balance);\n    }\n\n    function WithdrawTokensFromPresale(uint presaleId) public payable {\n        int presaleIndex = FindPresaleIndexById(presaleId);\n        require(presaleIndex != -1, \"(buy) Presale not exist\");\n\n        require(presales[uint(presaleIndex)].ownerAddress == msg.sender, \"Error(WithdrawBnbFromPresale): Caller dont be owner of this presale\");\n\n        uint256 tokenBalance = ERC20(address(presales[uint(presaleIndex)].tokenAddress)).balanceOf(address(this));\n        ERC20(address(presales[presaleId].tokenAddress)).transfer(msg.sender, tokenBalance);\n    }\n\n    function SetMinBuy(uint presaleId, uint256 value) public onlyOwner {\n        presales[presaleId].minBuy = value;\n    }\n\n    function SetMaxBuy(uint presaleId, uint256 value) public onlyOwner {\n        presales[presaleId].maxBuy = value;\n    }\n\n    function SetOnlyWhiteList(uint presaleId, bool value) public onlyOwner {\n        presales[presaleId].whiteListedOnly = value;\n    }\n\n    function SetPresaleEnable(uint presaleId, bool value) public onlyOwner {\n        presales[presaleId].isEnabled = value;\n    }\n\n    function SetTokenPrice(uint presaleId, uint256 value) public onlyOwner {\n        presales[presaleId].tokenPrice = value;\n    }\n\n    function AddWhiteListMember(uint presaleId, address member) public onlyOwner {\n        int memberIndex = -1;\n        for(int i = 0; i < int(presales[presaleId].whiteList.length); i++) {\n            if (presales[presaleId].whiteList[uint(i)] == member) {\n                memberIndex = i;\n                break;\n            }\n        }\n\n        require(memberIndex == -1, \"Error(RemoveMember): Address already exists\");\n        presales[presaleId].whiteList.push(member);\n    }\n\n    function RemoveWhiteListMember(uint presaleId, address member) public onlyOwner {\n        int memberIndex = -1;\n        for(int i = 0; i < int(presales[presaleId].whiteList.length); i++) {\n            if (presales[presaleId].whiteList[uint(i)] == member) {\n                memberIndex = i;\n                break;\n            }\n        }\n\n        require(memberIndex != -1, \"Error(RemoveMember): Address not exists\");\n        presales[presaleId].whiteList.push(member);\n\n        for (uint i = uint(memberIndex); i < presales[presaleId].whiteList.length-1; i++){\n            presales[presaleId].whiteList[i] = presales[presaleId].whiteList[i+1];\n        }\n    }\n\n    function FindAddressInList(address []memory list, address member) internal pure returns (int) {\n        for(uint i = 0; i < list.length; i++) {\n            if (list[i] == member) {\n                return  int(i);\n            }\n        }\n        return -1;\n    }\n\n    function FindPresaleIndexById(uint256 presaleId) internal view returns (int) {\n        for(uint256 i = 0; i < presales.length; i++) {\n            if (presales[i].id == presaleId && presales[i].isExist) {\n                return int(i);\n            }\n        }\n        return int(-1);\n    }\n\n    function FindPresalesByOwnerAddress(address ownerAddress) public view returns (int []memory) {\n        for(uint256 i = 0; i < presales.length; i++) {\n            if (presales[i].ownerAddress == ownerAddress && presales[i].isExist) {\n                presalesIds[ownerAddress];\n            }\n        }\n        return new int[](0);\n    }\n\n    function FindPresaleTokenAddress(address tokenAddress) internal view returns (int) {\n        for(uint256 i = 0; i < presales.length; i++) {\n            if (presales[i].tokenAddress == tokenAddress && presales[i].isExist) {\n                return int(i);\n            }\n        }\n        return int(-1);\n    }\n\n    function GetWhiteList(uint256 presaleId) public view returns (address[] memory) {\n        for(uint256 i = 0; i < presales.length; i++) {\n            if (presales[i].id == presaleId) {\n                return presales[presaleId].whiteList;\n            }\n        }\n\n        return new address[](0);\n    }\n\n    function CreatePresale(\n        address tokenAddress,\n        uint256 tokenPrice) public {\n\n        int presaleIndex = FindPresaleTokenAddress(tokenAddress);\n        require(presaleIndex == -1, \"(buy) Already eexists one presale for this token\");\n\n        Presale memory presale = Presale({\n        id: presales.length + 1,\n        ownerAddress: msg.sender,\n        tokenAddress: tokenAddress,\n        tokenPrice: tokenPrice,\n        whiteList: new address[](0),\n        whiteListedOnly: true,\n        numOfParticipants: 0,\n        minBuy: 1,\n        maxBuy:  ERC20(address(tokenAddress)).totalSupply(),\n        purchasedAmount: 0,\n        isExist: true,\n        isEnabled: true\n        });\n\n        presales.push(presale);\n        presalesIds[msg.sender].push(presales.length + 1);\n    }\n}\n",
  "sourcePath": "/Users/lie/Desktop/TikiBnBDeploy/contracts/PresaleCreator.sol",
  "compiler": {
    "name": "solc",
    "version": "0.8.10+commit.fc410830.Emscripten.clang"
  },
  "schemaVersion": "3.4.3",
  "updatedAt": "2021-11-23T03:25:57.168Z",
  "devdoc": {
    "kind": "dev",
    "methods": {
      "owner()": {
        "details": "Returns the address of the current owner."
      },
      "renounceOwnership()": {
        "details": "Leaves the contract without owner. It will not be possible to call `onlyOwner` functions anymore. Can only be called by the current owner. NOTE: Renouncing ownership will leave the contract without an owner, thereby removing any functionality that is only available to the owner."
      },
      "transferOwnership(address)": {
        "details": "Transfers ownership of the contract to a new account (`newOwner`). Can only be called by the current owner."
      }
    },
    "version": 1
  },
  "userdoc": {
    "kind": "user",
    "methods": {},
    "version": 1
  }
}