{
  "contractName": "TIME",
  "abi": [
    {
      "inputs": [
        {
          "internalType": "address payable",
          "name": "teamFunds",
          "type": "address"
        }
      ],
      "stateMutability": "nonpayable",
      "type": "constructor"
    },
    {
      "anonymous": false,
      "inputs": [
        {
          "indexed": true,
          "internalType": "address",
          "name": "owner",
          "type": "address"
        },
        {
          "indexed": true,
          "internalType": "address",
          "name": "spender",
          "type": "address"
        },
        {
          "indexed": false,
          "internalType": "uint256",
          "name": "value",
          "type": "uint256"
        }
      ],
      "name": "Approval",
      "type": "event"
    },
    {
      "anonymous": false,
      "inputs": [
        {
          "indexed": false,
          "internalType": "uint256",
          "name": "_maxTxAmount",
          "type": "uint256"
        }
      ],
      "name": "MaxTxAmountUpdated",
      "type": "event"
    },
    {
      "anonymous": false,
      "inputs": [
        {
          "indexed": true,
          "internalType": "address",
          "name": "previousOwner",
          "type": "address"
        },
        {
          "indexed": true,
          "internalType": "address",
          "name": "newOwner",
          "type": "address"
        }
      ],
      "name": "OwnershipTransferred",
      "type": "event"
    },
    {
      "anonymous": false,
      "inputs": [
        {
          "indexed": false,
          "internalType": "uint256",
          "name": "tokensSwapped",
          "type": "uint256"
        },
        {
          "indexed": false,
          "internalType": "uint256",
          "name": "ethReceived",
          "type": "uint256"
        },
        {
          "indexed": false,
          "internalType": "uint256",
          "name": "tokensIntoLiquidity",
          "type": "uint256"
        }
      ],
      "name": "SwapAndLiquify",
      "type": "event"
    },
    {
      "anonymous": false,
      "inputs": [
        {
          "indexed": false,
          "internalType": "uint256",
          "name": "amountIn",
          "type": "uint256"
        },
        {
          "indexed": false,
          "internalType": "address[]",
          "name": "path",
          "type": "address[]"
        }
      ],
      "name": "SwapTokensForETH",
      "type": "event"
    },
    {
      "anonymous": false,
      "inputs": [
        {
          "indexed": true,
          "internalType": "address",
          "name": "from",
          "type": "address"
        },
        {
          "indexed": true,
          "internalType": "address",
          "name": "to",
          "type": "address"
        },
        {
          "indexed": false,
          "internalType": "uint256",
          "name": "value",
          "type": "uint256"
        }
      ],
      "name": "Transfer",
      "type": "event"
    },
    {
      "inputs": [],
      "name": "_liquidityCutPct",
      "outputs": [
        {
          "internalType": "uint256",
          "name": "",
          "type": "uint256"
        }
      ],
      "stateMutability": "view",
      "type": "function",
      "constant": true
    },
    {
      "inputs": [],
      "name": "_maxTxAmount",
      "outputs": [
        {
          "internalType": "uint256",
          "name": "",
          "type": "uint256"
        }
      ],
      "stateMutability": "view",
      "type": "function",
      "constant": true
    },
    {
      "inputs": [],
      "name": "_teamCutPct",
      "outputs": [
        {
          "internalType": "uint256",
          "name": "",
          "type": "uint256"
        }
      ],
      "stateMutability": "view",
      "type": "function",
      "constant": true
    },
    {
      "inputs": [],
      "name": "_timeToWait",
      "outputs": [
        {
          "internalType": "uint256",
          "name": "",
          "type": "uint256"
        }
      ],
      "stateMutability": "view",
      "type": "function",
      "constant": true
    },
    {
      "inputs": [
        {
          "internalType": "address",
          "name": "",
          "type": "address"
        }
      ],
      "name": "amountBlockToSellNext",
      "outputs": [
        {
          "internalType": "uint256",
          "name": "",
          "type": "uint256"
        }
      ],
      "stateMutability": "view",
      "type": "function",
      "constant": true
    },
    {
      "inputs": [
        {
          "internalType": "address",
          "name": "",
          "type": "address"
        }
      ],
      "name": "amountSoldTrack",
      "outputs": [
        {
          "internalType": "uint256",
          "name": "",
          "type": "uint256"
        }
      ],
      "stateMutability": "view",
      "type": "function",
      "constant": true
    },
    {
      "inputs": [],
      "name": "deadAddress",
      "outputs": [
        {
          "internalType": "address",
          "name": "",
          "type": "address"
        }
      ],
      "stateMutability": "view",
      "type": "function",
      "constant": true
    },
    {
      "inputs": [],
      "name": "limitToSellBeforeBlockCooldown",
      "outputs": [
        {
          "internalType": "uint256",
          "name": "",
          "type": "uint256"
        }
      ],
      "stateMutability": "view",
      "type": "function",
      "constant": true
    },
    {
      "inputs": [],
      "name": "owner",
      "outputs": [
        {
          "internalType": "address",
          "name": "",
          "type": "address"
        }
      ],
      "stateMutability": "view",
      "type": "function",
      "constant": true
    },
    {
      "inputs": [],
      "name": "renounceOwnership",
      "outputs": [],
      "stateMutability": "nonpayable",
      "type": "function"
    },
    {
      "inputs": [
        {
          "internalType": "address",
          "name": "newOwner",
          "type": "address"
        }
      ],
      "name": "transferOwnership",
      "outputs": [],
      "stateMutability": "nonpayable",
      "type": "function"
    },
    {
      "stateMutability": "payable",
      "type": "receive",
      "payable": true
    },
    {
      "inputs": [],
      "name": "name",
      "outputs": [
        {
          "internalType": "string",
          "name": "",
          "type": "string"
        }
      ],
      "stateMutability": "pure",
      "type": "function",
      "constant": true
    },
    {
      "inputs": [],
      "name": "symbol",
      "outputs": [
        {
          "internalType": "string",
          "name": "",
          "type": "string"
        }
      ],
      "stateMutability": "pure",
      "type": "function",
      "constant": true
    },
    {
      "inputs": [],
      "name": "decimals",
      "outputs": [
        {
          "internalType": "uint8",
          "name": "",
          "type": "uint8"
        }
      ],
      "stateMutability": "pure",
      "type": "function",
      "constant": true
    },
    {
      "inputs": [],
      "name": "totalSupply",
      "outputs": [
        {
          "internalType": "uint256",
          "name": "",
          "type": "uint256"
        }
      ],
      "stateMutability": "pure",
      "type": "function",
      "constant": true
    },
    {
      "inputs": [
        {
          "internalType": "address",
          "name": "account",
          "type": "address"
        }
      ],
      "name": "balanceOf",
      "outputs": [
        {
          "internalType": "uint256",
          "name": "",
          "type": "uint256"
        }
      ],
      "stateMutability": "view",
      "type": "function",
      "constant": true
    },
    {
      "inputs": [
        {
          "internalType": "address",
          "name": "recipient",
          "type": "address"
        },
        {
          "internalType": "uint256",
          "name": "amount",
          "type": "uint256"
        }
      ],
      "name": "transfer",
      "outputs": [
        {
          "internalType": "bool",
          "name": "",
          "type": "bool"
        }
      ],
      "stateMutability": "nonpayable",
      "type": "function"
    },
    {
      "inputs": [
        {
          "internalType": "address",
          "name": "owner",
          "type": "address"
        },
        {
          "internalType": "address",
          "name": "spender",
          "type": "address"
        }
      ],
      "name": "allowance",
      "outputs": [
        {
          "internalType": "uint256",
          "name": "",
          "type": "uint256"
        }
      ],
      "stateMutability": "view",
      "type": "function",
      "constant": true
    },
    {
      "inputs": [
        {
          "internalType": "address",
          "name": "spender",
          "type": "address"
        },
        {
          "internalType": "uint256",
          "name": "amount",
          "type": "uint256"
        }
      ],
      "name": "approve",
      "outputs": [
        {
          "internalType": "bool",
          "name": "",
          "type": "bool"
        }
      ],
      "stateMutability": "nonpayable",
      "type": "function"
    },
    {
      "inputs": [
        {
          "internalType": "address",
          "name": "sender",
          "type": "address"
        },
        {
          "internalType": "address",
          "name": "recipient",
          "type": "address"
        },
        {
          "internalType": "uint256",
          "name": "amount",
          "type": "uint256"
        }
      ],
      "name": "transferFrom",
      "outputs": [
        {
          "internalType": "bool",
          "name": "",
          "type": "bool"
        }
      ],
      "stateMutability": "nonpayable",
      "type": "function"
    },
    {
      "inputs": [
        {
          "internalType": "bool",
          "name": "_support",
          "type": "bool"
        }
      ],
      "name": "liquiditySupport",
      "outputs": [],
      "stateMutability": "nonpayable",
      "type": "function"
    },
    {
      "inputs": [],
      "name": "manualTokenSwap",
      "outputs": [],
      "stateMutability": "nonpayable",
      "type": "function"
    },
    {
      "inputs": [],
      "name": "recoverEthFromContract",
      "outputs": [],
      "stateMutability": "nonpayable",
      "type": "function"
    },
    {
      "inputs": [
        {
          "internalType": "uint256",
          "name": "maxTxPercent",
          "type": "uint256"
        }
      ],
      "name": "setMaxTxPercent",
      "outputs": [],
      "stateMutability": "nonpayable",
      "type": "function"
    },
    {
      "inputs": [
        {
          "internalType": "uint256",
          "name": "amount",
          "type": "uint256"
        }
      ],
      "name": "manualBurn",
      "outputs": [],
      "stateMutability": "nonpayable",
      "type": "function"
    },
    {
      "inputs": [
        {
          "internalType": "uint256",
          "name": "_reflection",
          "type": "uint256"
        }
      ],
      "name": "setReflectionFee",
      "outputs": [],
      "stateMutability": "nonpayable",
      "type": "function"
    },
    {
      "inputs": [
        {
          "internalType": "address payable",
          "name": "_newDevAddress",
          "type": "address"
        }
      ],
      "name": "setDevAddress",
      "outputs": [],
      "stateMutability": "nonpayable",
      "type": "function"
    }
  ],
  "bytecode": "0x60a060405266038d7ea4c68000600355620151806004556ddead0000000000000000000000006080526200003e670de0b6b3a7640000600019620004a2565b6200004c906000196200047e565b6009556003600b819055600c8190556007600d819055600e55600f55600460105566038d7ea4c680006012556015805462ffffff60a01b191661010160a81b1790553480156200009b57600080fd5b5060405162001f4438038062001f44833981016040819052620000be9162000458565b600080546001600160a01b031916339081178255604051909182917f8be0079c531659141344cd1fd0a4f28419497f9722a3daafe3b4186f6b6457e0908290a350601180546001600160a01b03199081166001600160a01b0384161790915560148054739ac64cc6e4415144c455bd8e4837fea55603e5c39216821790556040805163c45a015560e01b81529051829163c45a0155916004808301926020929190829003018186803b1580156200017457600080fd5b505afa15801562000189573d6000803e3d6000fd5b505050506040513d601f19601f82011682018060405250810190620001af919062000458565b6001600160a01b031663c9c6539630836001600160a01b031663ad5c46486040518163ffffffff1660e01b815260040160206040518083038186803b158015620001f857600080fd5b505afa1580156200020d573d6000803e3d6000fd5b505050506040513d601f19601f8201168201806040525081019062000233919062000458565b6040516001600160e01b031960e085901b1681526001600160a01b03928316600482015291166024820152604401602060405180830381600087803b1580156200027c57600080fd5b505af115801562000291573d6000803e3d6000fd5b505050506040513d601f19601f82011682018060405250810190620002b7919062000458565b601580546001600160a01b0319166001600160a01b039290921691909117905560095460056000620002e63390565b6001600160a01b03166001600160a01b0316815260200190815260200160002081905550600160086000620003206200044960201b60201c565b6001600160a01b0316815260208101919091526040016000908120805460ff191692151592909217909155600190601390620003646000546001600160a01b031690565b6001600160a01b03908116825260208083019390935260409182016000908120805495151560ff19968716179055308152600880855283822080548716600190811790915560138087528584208054891683179055601180548616855292875285842080548916831790559154909316825290935291208054909216179055620003eb3390565b6001600160a01b031660006001600160a01b03167fddf252ad1be2c89b69c2b068fc378daa952ba7f163c4a11628f55a4df523b3ef670de0b6b3a76400006040516200043991815260200190565b60405180910390a35050620004dc565b6000546001600160a01b031690565b6000602082840312156200046a578081fd5b81516200047781620004c3565b9392505050565b6000828210156200049d57634e487b7160e01b81526011600452602481fd5b500390565b600082620004be57634e487b7160e01b81526012600452602481fd5b500690565b6001600160a01b0381168114620004d957600080fd5b50565b60805160601c611a4262000502600039600081816102b101526105e60152611a426000f3fe6080604052600436106101a05760003560e01c8063715018a6116100ec578063d543dbeb1161008a578063e547be6911610064578063e547be69146104c7578063e71fa815146104e7578063f2fde38b146104fc578063f32026501461051c57600080fd5b8063d543dbeb14610434578063d71e467114610454578063dd62ed3e1461048157600080fd5b806395d89b41116100c657806395d89b41146101ac578063a9059cbb146103df578063b72c819d146103ff578063d0d41fe11461041457600080fd5b8063715018a6146103965780637d1db4a5146103ab5780638da5cb5b146103c157600080fd5b806327c8f835116101595780633885341e116101335780633885341e1461031d578063679f2aed146103335780636bb607f61461036057806370a082311461037657600080fd5b806327c8f8351461029f5780632bd3b093146102eb578063313ce5671461030157600080fd5b806306fdde03146101ac578063095ea7b3146101e857806318160ddd1461021857806323b635851461023d57806323b872dd1461025f57806323fdbac11461027f57600080fd5b366101a757005b600080fd5b3480156101b857600080fd5b50604080518082018252600481526354494d4560e01b602082015290516101df9190611866565b60405180910390f35b3480156101f457600080fd5b50610208610203366004611793565b610532565b60405190151581526020016101df565b34801561022457600080fd5b50670de0b6b3a76400005b6040519081526020016101df565b34801561024957600080fd5b5061025d6102583660046117de565b610549565b005b34801561026b57600080fd5b5061020861027a366004611753565b610610565b34801561028b57600080fd5b5061025d61029a3660046117be565b610679565b3480156102ab57600080fd5b506102d37f000000000000000000000000000000000000000000000000000000000000000081565b6040516001600160a01b0390911681526020016101df565b3480156102f757600080fd5b5061022f600f5481565b34801561030d57600080fd5b50604051600981526020016101df565b34801561032957600080fd5b5061022f60105481565b34801561033f57600080fd5b5061022f61034e3660046116e3565b60016020526000908152604090205481565b34801561036c57600080fd5b5061022f60045481565b34801561038257600080fd5b5061022f6103913660046116e3565b6106c1565b3480156103a257600080fd5b5061025d6106e3565b3480156103b757600080fd5b5061022f60125481565b3480156103cd57600080fd5b506000546001600160a01b03166102d3565b3480156103eb57600080fd5b506102086103fa366004611793565b610719565b34801561040b57600080fd5b5061025d610726565b34801561042057600080fd5b5061025d61042f3660046116e3565b610747565b34801561044057600080fd5b5061025d61044f3660046117de565b610793565b34801561046057600080fd5b5061022f61046f3660046116e3565b60026020526000908152604090205481565b34801561048d57600080fd5b5061022f61049c36600461171b565b6001600160a01b03918216600090815260076020908152604080832093909416825291909152205490565b3480156104d357600080fd5b5061025d6104e23660046117de565b610865565b3480156104f357600080fd5b5061025d610899565b34801561050857600080fd5b5061025d6105173660046116e3565b6108c6565b34801561052857600080fd5b5061022f60035481565b600061053f33848461095e565b5060015b92915050565b6000546001600160a01b0316331461057c5760405162461bcd60e51b8152600401610573906118b9565b60405180910390fd5b6105916103916000546001600160a01b031690565b8111156105e05760405162461bcd60e51b815260206004820181905260248201527f416d6f756e74206578636565647320617661696c61626c6520746f6b656e732e6044820152606401610573565b61060d337f0000000000000000000000000000000000000000000000000000000000000000836000610a82565b50565b600061061d848484610ab6565b61066f843361066a856040518060600160405280602881526020016119e5602891396001600160a01b038a1660009081526007602090815260408083203384529091529020549190610ddb565b61095e565b5060019392505050565b6000546001600160a01b031633146106a35760405162461bcd60e51b8152600401610573906118b9565b60158054911515600160b01b0260ff60b01b19909216919091179055565b6001600160a01b03811660009081526005602052604081205461054390610e15565b6000546001600160a01b0316331461070d5760405162461bcd60e51b8152600401610573906118b9565b6107176000610e99565b565b600061053f338484610ab6565b6000546001600160a01b0316331461073d57600080fd5b4761060d81610ee9565b6000546001600160a01b031633146107715760405162461bcd60e51b8152600401610573906118b9565b601180546001600160a01b0319166001600160a01b0392909216919091179055565b6000546001600160a01b031633146107bd5760405162461bcd60e51b8152600401610573906118b9565b6000811161080d5760405162461bcd60e51b815260206004820152601d60248201527f416d6f756e74206d7573742062652067726561746572207468616e20300000006044820152606401610573565b61082a6064610824670de0b6b3a764000084610f27565b90610fa6565b60128190556040519081527f947f344d56e1e8c70dc492fb94c4ddddd490c016aab685f5e7e47b2e85cb44cf9060200160405180910390a150565b6000546001600160a01b0316331461088f5760405162461bcd60e51b8152600401610573906118b9565b600b819055600c55565b6000546001600160a01b031633146108b057600080fd5b60006108bb306106c1565b905061060d81610fe8565b6000546001600160a01b031633146108f05760405162461bcd60e51b8152600401610573906118b9565b6001600160a01b0381166109555760405162461bcd60e51b815260206004820152602660248201527f4f776e61626c653a206e6577206f776e657220697320746865207a65726f206160448201526564647265737360d01b6064820152608401610573565b61060d81610e99565b6001600160a01b0383166109c05760405162461bcd60e51b8152602060048201526024808201527f45524332303a20617070726f76652066726f6d20746865207a65726f206164646044820152637265737360e01b6064820152608401610573565b6001600160a01b038216610a215760405162461bcd60e51b815260206004820152602260248201527f45524332303a20617070726f766520746f20746865207a65726f206164647265604482015261737360f01b6064820152608401610573565b6001600160a01b0383811660008181526007602090815260408083209487168084529482529182902085905590518481527f8c5be1e5ebec7d5bd14f71427d1e84f3dd0314c0f7b2291e5b200ac8c7c3b925910160405180910390a3505050565b80610a8f57610a8f6111c6565b610a9a8484846111e9565b80610ab057610ab0600c54600b55600e54600d55565b50505050565b6001600160a01b038316610b1a5760405162461bcd60e51b815260206004820152602560248201527f45524332303a207472616e736665722066726f6d20746865207a65726f206164604482015264647265737360d81b6064820152608401610573565b6001600160a01b038216610b7c5760405162461bcd60e51b815260206004820152602360248201527f45524332303a207472616e7366657220746f20746865207a65726f206164647260448201526265737360e81b6064820152608401610573565b60008111610bde5760405162461bcd60e51b815260206004820152602960248201527f5472616e7366657220616d6f756e74206d7573742062652067726561746572206044820152687468616e207a65726f60b81b6064820152608401610573565b6000610be9306106c1565b6001600160a01b0385166000908152601360205260408120549192506001914791839160ff16158015610c3557506001600160a01b03881660009081526013602052604090205460ff16155b15610d2657601254861115610c845760405162461bcd60e51b815260206004820152601560248201527417db585e151e105b5bdd5b9d08195e18d959591959605a1b6044820152606401610573565b601554600160a01b900460ff16158015610cac57506015546001600160a01b03898116911614155b8015610cc15750601554600160a81b900460ff165b15610d26578315610d1757601554600160b01b900460ff1615610d0e576000610ceb866003610fa6565b9050610cff610cfa87836112e0565b610fe8565b610d0881611322565b50610d17565b610d1785610fe8565b8115610d2657610d2683610ee9565b6001600160a01b03881660009081526008602052604090205460ff1680610d6557506001600160a01b03871660009081526008602052604090205460ff165b15610d6e575060005b610d7a88888884610a82565b6003546001600160a01b03891660009081526001602052604090205410610dd157600454610da99043906113c9565b6001600160a01b03891660009081526002602090815260408083209390935560019052908120555b5050505050505050565b60008184841115610dff5760405162461bcd60e51b81526004016105739190611866565b506000610e0c84866119a2565b95945050505050565b6000600954821115610e7c5760405162461bcd60e51b815260206004820152602a60248201527f416d6f756e74206d757374206265206c657373207468616e20746f74616c207260448201526965666c656374696f6e7360b01b6064820152608401610573565b6000610e86611428565b9050610e928382610fa6565b9392505050565b600080546001600160a01b038381166001600160a01b0319831681178455604051919092169283917f8be0079c531659141344cd1fd0a4f28419497f9722a3daafe3b4186f6b6457e09190a35050565b6011546040516001600160a01b039091169082156108fc029083906000818181858888f19350505050158015610f23573d6000803e3d6000fd5b5050565b600082610f3657506000610543565b6000610f428385611983565b905082610f4f8583611963565b14610e925760405162461bcd60e51b815260206004820152602160248201527f536166654d6174683a206d756c7469706c69636174696f6e206f766572666c6f6044820152607760f81b6064820152608401610573565b6000610e9283836040518060400160405280601a81526020017f536166654d6174683a206469766973696f6e206279207a65726f00000000000081525061144b565b6015805460ff60a01b1916600160a01b179055604080516002808252606082018352600092602083019080368337019050509050308160008151811061103e57634e487b7160e01b600052603260045260246000fd5b6001600160a01b03928316602091820292909201810191909152601454604080516315ab88c960e31b81529051919093169263ad5c4648926004808301939192829003018186803b15801561109257600080fd5b505afa1580156110a6573d6000803e3d6000fd5b505050506040513d601f19601f820116820180604052508101906110ca91906116ff565b816001815181106110eb57634e487b7160e01b600052603260045260246000fd5b6001600160a01b039283166020918202929092010152601454611111913091168461095e565b60145460405163791ac94760e01b81526001600160a01b039091169063791ac9479061114a90859060009086903090429060040161190f565b600060405180830381600087803b15801561116457600080fd5b505af1158015611178573d6000803e3d6000fd5b505050507f32cde87eb454f3a0b875ab23547023107cfad454363ec88ba5695e2c24aa52a782826040516111ad9291906118ee565b60405180910390a150506015805460ff60a01b19169055565b600b541580156111d65750600d54155b156111dd57565b6000600b819055600d55565b6000806000806000806111fb87611479565b6001600160a01b038f16600090815260056020526040902054959b5093995091975095509350915061122d90876112e0565b6001600160a01b03808b1660009081526005602052604080822093909355908a168152205461125c90866113c9565b6001600160a01b03891660009081526005602052604090205561127e816114d6565b6112888483611520565b876001600160a01b0316896001600160a01b03167fddf252ad1be2c89b69c2b068fc378daa952ba7f163c4a11628f55a4df523b3ef856040516112cd91815260200190565b60405180910390a3505050505050505050565b6000610e9283836040518060400160405280601e81526020017f536166654d6174683a207375627472616374696f6e206f766572666c6f770000815250610ddb565b6015805460ff60a01b1916600160a01b1790556000611342826002610fa6565b9050600061135083836112e0565b90504761135c83610fe8565b600061136847836112e0565b90506113748382611544565b60408051858152602081018390529081018490527f17bbfb9a6069321b6ded73bd96327c9e6b7212a5cd51ff219cd61370acafb5619060600160405180910390a150506015805460ff60a01b19169055505050565b6000806113d6838561194b565b905083811015610e925760405162461bcd60e51b815260206004820152601b60248201527f536166654d6174683a206164646974696f6e206f766572666c6f7700000000006044820152606401610573565b6000806000611435611604565b90925090506114448282610fa6565b9250505090565b6000818361146c5760405162461bcd60e51b81526004016105739190611866565b506000610e0c8486611963565b60008060008060008060008060006114968a600b54600d54611644565b92509250925060006114a6611428565b905060008060006114b98e878787611693565b919e509c509a509598509396509194505050505091939550919395565b60006114e0611428565b905060006114ee8383610f27565b3060009081526005602052604090205490915061150b90826113c9565b30600090815260056020526040902055505050565b60095461152d90836112e0565b600955600a5461153d90826113c9565b600a555050565b60145461155c9030906001600160a01b03168461095e565b60145460405163f305d71960e01b8152306004820181905260248201859052600060448301819052606483015260848201524260a48201526001600160a01b039091169063f305d71990839060c4016060604051808303818588803b1580156115c457600080fd5b505af11580156115d8573d6000803e3d6000fd5b50505050506040513d601f19601f820116820180604052508101906115fd91906117f6565b5050505050565b6009546000908190670de0b6b3a764000061161f8282610fa6565b82101561163b57505060095492670de0b6b3a764000092509050565b90939092509050565b600080808061165860646108248989610f27565b9050600061166b60646108248a89610f27565b905060006116838261167d8b866112e0565b906112e0565b9992985090965090945050505050565b60008080806116a28886610f27565b905060006116b08887610f27565b905060006116be8888610f27565b905060006116d08261167d86866112e0565b939b939a50919850919650505050505050565b6000602082840312156116f4578081fd5b8135610e92816119cf565b600060208284031215611710578081fd5b8151610e92816119cf565b6000806040838503121561172d578081fd5b8235611738816119cf565b91506020830135611748816119cf565b809150509250929050565b600080600060608486031215611767578081fd5b8335611772816119cf565b92506020840135611782816119cf565b929592945050506040919091013590565b600080604083850312156117a5578182fd5b82356117b0816119cf565b946020939093013593505050565b6000602082840312156117cf578081fd5b81358015158114610e92578182fd5b6000602082840312156117ef578081fd5b5035919050565b60008060006060848603121561180a578283fd5b8351925060208401519150604084015190509250925092565b6000815180845260208085019450808401835b8381101561185b5781516001600160a01b031687529582019590820190600101611836565b509495945050505050565b6000602080835283518082850152825b8181101561189257858101830151858201604001528201611876565b818111156118a35783604083870101525b50601f01601f1916929092016040019392505050565b6020808252818101527f4f776e61626c653a2063616c6c6572206973206e6f7420746865206f776e6572604082015260600190565b8281526040602082015260006119076040830184611823565b949350505050565b85815284602082015260a06040820152600061192e60a0830186611823565b6001600160a01b0394909416606083015250608001529392505050565b6000821982111561195e5761195e6119b9565b500190565b60008261197e57634e487b7160e01b81526012600452602481fd5b500490565b600081600019048311821515161561199d5761199d6119b9565b500290565b6000828210156119b4576119b46119b9565b500390565b634e487b7160e01b600052601160045260246000fd5b6001600160a01b038116811461060d57600080fdfe45524332303a207472616e7366657220616d6f756e74206578636565647320616c6c6f77616e6365a2646970667358221220292415cde3065acb40e196a7c29edecbaebc64205a98a24b51f1ba8bc015839f64736f6c63430008040033",
  "immutableReferences": {
    "492": [
      {
        "length": 32,
        "start": 689
      },
      {
        "length": 32,
        "start": 1510
      }
    ]
  },
  "source": "// SPDX-License-Identifier: MIT\npragma solidity 0.8.4;\n\nabstract contract Context {\n    function _msgSender() internal view virtual returns (address) {\n        return msg.sender;\n    }\n}\n\ninterface IERC20 {\n    function totalSupply() external view returns (uint256);\n    function balanceOf(address account) external view returns (uint256);\n    function transfer(address recipient, uint256 amount) external returns (bool);\n    function allowance(address owner, address spender) external view returns (uint256);\n    function approve(address spender, uint256 amount) external returns (bool);\n    function transferFrom(address sender, address recipient, uint256 amount) external returns (bool);\n    event Transfer(address indexed from, address indexed to, uint256 value);\n    event Approval(address indexed owner, address indexed spender, uint256 value);\n}\n\nlibrary SafeMath {\n    function add(uint256 a, uint256 b) internal pure returns (uint256) {\n        uint256 c = a + b;\n        require(c >= a, \"SafeMath: addition overflow\");\n        return c;\n    }\n\n    function sub(uint256 a, uint256 b) internal pure returns (uint256) {\n        return sub(a, b, \"SafeMath: subtraction overflow\");\n    }\n\n    function sub(uint256 a, uint256 b, string memory errorMessage) internal pure returns (uint256) {\n        require(b <= a, errorMessage);\n        uint256 c = a - b;\n        return c;\n    }\n\n    function mul(uint256 a, uint256 b) internal pure returns (uint256) {\n        if (a == 0) {\n            return 0;\n        }\n        uint256 c = a * b;\n        require(c / a == b, \"SafeMath: multiplication overflow\");\n        return c;\n    }\n\n    function div(uint256 a, uint256 b) internal pure returns (uint256) {\n        return div(a, b, \"SafeMath: division by zero\");\n    }\n\n    function div(uint256 a, uint256 b, string memory errorMessage) internal pure returns (uint256) {\n        require(b > 0, errorMessage);\n        uint256 c = a / b;\n        return c;\n    }\n}\n\ncontract Ownable is Context {\n    address private _owner;\n    event OwnershipTransferred(address indexed previousOwner, address indexed newOwner);\n\n    constructor() {\n        address msgSender = _msgSender();\n        _owner = msgSender;\n        emit OwnershipTransferred(address(0), msgSender);\n    }\n\n    function owner() public view returns (address) {\n        return _owner;\n    }\n\n    modifier onlyOwner() {\n        require(_owner == _msgSender(), \"Ownable: caller is not the owner\");\n        _;\n    }\n\n    function renounceOwnership() public virtual onlyOwner {\n        _setOwner(address(0));\n    }\n\n    function transferOwnership(address newOwner) public virtual onlyOwner {\n        require(newOwner != address(0), \"Ownable: new owner is the zero address\");\n        _setOwner(newOwner);\n    }\n\n    function _setOwner(address newOwner) private {\n        address oldOwner = _owner;\n        _owner = newOwner;\n        emit OwnershipTransferred(oldOwner, newOwner);\n    }\n}\n\ninterface IUniswapV2Factory {\n    event PairCreated(address indexed token0, address indexed token1, address pair, uint);\n\n    function feeTo() external view returns (address);\n    function feeToSetter() external view returns (address);\n\n    function getPair(address tokenA, address tokenB) external view returns (address pair);\n    function allPairs(uint) external view returns (address pair);\n    function allPairsLength() external view returns (uint);\n\n    function createPair(address tokenA, address tokenB) external returns (address pair);\n\n    function setFeeTo(address) external;\n    function setFeeToSetter(address) external;\n}\n\ninterface IUniswapV2Router02 {\n    function swapExactTokensForETHSupportingFeeOnTransferTokens(\n        uint256 amountIn,\n        uint256 amountOutMin,\n        address[] calldata path,\n        address to,\n        uint256 deadline\n    ) external;\n    function factory() external pure returns (address);\n    function WETH() external pure returns (address);\n    function addLiquidityETH(\n        address token,\n        uint256 amountTokenDesired,\n        uint256 amountTokenMin,\n        uint256 amountETHMin,\n        address to,\n        uint256 deadline\n    ) external payable returns (uint256 amountToken, uint256 amountETH, uint256 liquidity);\n}\n\ncontract TIME is Context, IERC20, Ownable {\n    using SafeMath for uint256;\n\n    string private constant _name = \"TIME\";\n    string private constant _symbol = \"TIME\";\n    uint8 private constant _decimals = 9;\n\n    // Mappings for tracking\n    mapping (address => uint256) public amountSoldTrack;\n    mapping (address => uint256) public amountBlockToSellNext;\n    uint256 public limitToSellBeforeBlockCooldown = 1000000 * 1e9;\n    uint256 public _timeToWait = 1 days;\n\n    mapping(address => uint256) private _rOwned;\n    mapping(address => uint256) private _tOwned;\n    mapping(address => mapping(address => uint256)) private _allowances;\n    mapping(address => bool) private _isExcludedFromFee;\n\n    address public immutable deadAddress = 0x000000000000000000000000000000000000dEaD;\n\n    uint256 private constant MAX = ~uint256(0);\n    uint256 private constant _tTotal = 1000000000 * 1e9;\n    uint256 private _rTotal = (MAX - (MAX % _tTotal));\n    uint256 private _tFeeTotal;\n    uint256 private _reflectionFee = 3;\n    uint256 private _storedReflectionFee = _reflectionFee;\n    uint256 private _teamFee = 7;\n    uint256 private _storedTeamFee = _teamFee;\n\n    // For transaction calculations\n    uint256 public _teamCutPct = 3;\n    uint256 public _liquidityCutPct = 4;\n\n    address payable private _teamAddress;\n    uint256 public _maxTxAmount = 1000000 * 1e9;\n    mapping(address => bool) private _isAdmin;\n\n    IUniswapV2Router02 private uniswapV2Router;\n    address private uniswapV2Pair;\n    bool private inSwap = false;\n    bool private swapEnabled = true;\n    bool private supportLiquidity = true;\n\n    event MaxTxAmountUpdated(uint256 _maxTxAmount);\n    event SwapAndLiquify(uint256 tokensSwapped, uint256 ethReceived, uint256 tokensIntoLiquidity);\n    event SwapTokensForETH(uint256 amountIn, address[] path);\n\n    modifier lockTheSwap {\n        inSwap = true;\n        _;\n        inSwap = false;\n    }\n\n    constructor(address payable teamFunds) {\n        _teamAddress = teamFunds;\n\n        IUniswapV2Router02 _uniswapV2Router = IUniswapV2Router02(0x9Ac64Cc6e4415144C455BD8E4837Fea55603e5c3);\n        uniswapV2Router = _uniswapV2Router;\n\n        uniswapV2Pair = IUniswapV2Factory(_uniswapV2Router.factory()).createPair(address(this), _uniswapV2Router.WETH());\n\n        _rOwned[_msgSender()] = _rTotal;\n        _isExcludedFromFee[owner()] = true;\n        _isAdmin[owner()] = true;\n        _isExcludedFromFee[address(this)] = true;\n        _isAdmin[address(this)] = true;\n        _isExcludedFromFee[_teamAddress] = true;\n        _isAdmin[_teamAddress] = true;\n        emit Transfer(address(0), _msgSender(), _tTotal);\n    }\n\n    function name() public pure returns (string memory) {\n        return _name;\n    }\n\n    function symbol() public pure returns (string memory) {\n        return _symbol;\n    }\n\n    function decimals() public pure returns (uint8) {\n        return _decimals;\n    }\n\n    function totalSupply() public pure override returns (uint256) {\n        return _tTotal;\n    }\n\n    function balanceOf(address account) public view override returns (uint256) {\n        return tokenFromReflection(_rOwned[account]);\n    }\n\n    function transfer(address recipient, uint256 amount) public override returns (bool) {\n        _transfer(_msgSender(), recipient, amount);\n        return true;\n    }\n\n    function allowance(address owner, address spender) public view override returns (uint256) {\n        return _allowances[owner][spender];\n    }\n\n    function approve(address spender, uint256 amount) public override returns (bool) {\n        _approve(_msgSender(), spender, amount);\n        return true;\n    }\n\n    function transferFrom(address sender, address recipient, uint256 amount) public override returns (bool) {\n        _transfer(sender, recipient, amount);\n        _approve(sender,_msgSender(),_allowances[sender][_msgSender()].sub(amount,\"ERC20: transfer amount exceeds allowance\"));\n        return true;\n    }\n\n    function tokenFromReflection(uint256 rAmount) private view returns (uint256) {\n        require(rAmount <= _rTotal,\"Amount must be less than total reflections\");\n        uint256 currentRate = _getRate();\n        return rAmount.div(currentRate);\n    }\n\n    function removeAllFee() private {\n        if (_reflectionFee == 0 && _teamFee == 0) return;\n        _reflectionFee = 0;\n        _teamFee = 0;\n    }\n\n    function restoreAllFee() private {\n        _reflectionFee = _storedReflectionFee;\n        _teamFee = _storedTeamFee;\n    }\n\n    function _approve(address owner, address spender, uint256 amount) private {\n        require(owner != address(0), \"ERC20: approve from the zero address\");\n        require(spender != address(0), \"ERC20: approve to the zero address\");\n        _allowances[owner][spender] = amount;\n        emit Approval(owner, spender, amount);\n    }\n\n    function _transfer(address from, address to, uint256 amount) private {\n        require(from != address(0), \"ERC20: transfer from the zero address\");\n        require(to != address(0), \"ERC20: transfer to the zero address\");\n        require(amount > 0, \"Transfer amount must be greater than zero\");\n\n        uint256 contractTokenBalance = balanceOf(address(this)); // Get Token contract balance\n        bool overMinTokenBalance = contractTokenBalance >= 0;\n        uint256 contractETHBalance = address(this).balance; // Get ETH contract balance\n        bool overMinEthBalance = contractETHBalance >= 0;\n        bool takeFee;\n\n        if (!_isAdmin[from] && !_isAdmin[from]) {\n            require(amount <= _maxTxAmount,'_maxTxAmount exceeded');\n            if (!inSwap && from != uniswapV2Pair && swapEnabled) { // Swapping logic\n                if (overMinTokenBalance) {\n                    if (supportLiquidity) {\n                        uint256 liquidityPart = contractTokenBalance.div(3); // 0.02% of total supply for LQ\n                        swapTokensForEth(contractTokenBalance.sub(liquidityPart)); // 66.6% (33.3% for LQ)\n                        swapAndLiquify(liquidityPart);\n                    } else {\n                        swapTokensForEth(contractTokenBalance); // Swap all tokens for ETH\n                    }\n                }\n\n                if (overMinEthBalance) {\n                    sendETHToFee(contractETHBalance);\n                }\n            }\n        }\n\n        if (_isExcludedFromFee[from] || _isExcludedFromFee[to]) {\n            takeFee = false;\n        }\n\n        _tokenTransfer(from, to, amount, takeFee);\n\n        if(amountSoldTrack[from] >= limitToSellBeforeBlockCooldown){\n            amountBlockToSellNext[from] = block.number.add(_timeToWait);\n            amountSoldTrack[from] = 0;\n        }\n        restoreAllFee;\n    }\n\n    function swapTokensForEth(uint256 tokenAmount) private lockTheSwap {\n        address[] memory path = new address[](2);\n        path[0] = address(this);\n        path[1] = uniswapV2Router.WETH();\n        _approve(address(this), address(uniswapV2Router), tokenAmount);\n        uniswapV2Router.swapExactTokensForETHSupportingFeeOnTransferTokens(tokenAmount, 0, path, address(this), block.timestamp);\n        emit SwapTokensForETH(tokenAmount, path);\n    }\n\n    function swapAndLiquify(uint256 contractTokenBalance) private lockTheSwap {\n        uint256 half = contractTokenBalance.div(2);\n        uint256 otherHalf = contractTokenBalance.sub(half);\n        uint256 initialBalance = address(this).balance;\n        swapTokensForEth(half);\n        uint256 newBalance = address(this).balance.sub(initialBalance);\n        addLiquidity(otherHalf, newBalance);\n        emit SwapAndLiquify(half, newBalance, otherHalf);\n    }\n\n\n    function sendETHToFee(uint256 amount) private { //TODO TEST ETH CUTS\n        _teamAddress.transfer(amount);\n    }\n\n\n    function addLiquidity(uint256 tokenAmount, uint256 ethAmount) private {\n        _approve(address(this), address(uniswapV2Router), tokenAmount);\n        uniswapV2Router.addLiquidityETH{value: ethAmount}(address(this), tokenAmount, 0, 0, address(this), block.timestamp);\n    }\n\n    function liquiditySupport(bool _support) public onlyOwner {\n        supportLiquidity = _support;\n    }\n\n    function manualTokenSwap() external {\n        require(_msgSender() == owner());\n        uint256 contractBalance = balanceOf(address(this));\n        swapTokensForEth(contractBalance);\n    }\n\n    function recoverEthFromContract() external {\n        require(_msgSender() == owner());\n        uint256 contractETHBalance = address(this).balance;\n        sendETHToFee(contractETHBalance);\n    }\n\n    function _tokenTransfer(address sender, address recipient, uint256 amount, bool takeFee) private {\n        if (!takeFee) removeAllFee();\n        _transferStandard(sender, recipient, amount);\n        if (!takeFee) restoreAllFee();\n    }\n\n    function _transferStandard(address sender, address recipient, uint256 tAmount) private {\n        (uint256 rAmount, uint256 rTransferAmount, uint256 rFee, uint256 tTransferAmount, uint256 tFee, uint256 tTeam) = _getValues(tAmount);\n        _rOwned[sender] = _rOwned[sender].sub(rAmount);\n        _rOwned[recipient] = _rOwned[recipient].add(rTransferAmount);\n        _takeTeam(tTeam);\n        _reflectFee(rFee, tFee);\n        emit Transfer(sender, recipient, tTransferAmount);\n    }\n\n    function _takeTeam(uint256 tTeam) private {\n        uint256 currentRate = _getRate();\n        uint256 rTeam = tTeam.mul(currentRate);\n        _rOwned[address(this)] = _rOwned[address(this)].add(rTeam);\n    }\n\n    function _reflectFee(uint256 rFee, uint256 tFee) private {\n        _rTotal = _rTotal.sub(rFee);\n        _tFeeTotal = _tFeeTotal.add(tFee);\n    }\n\n    receive() external payable {}\n\n    function _getValues(uint256 tAmount) private view returns (uint256, uint256, uint256, uint256, uint256, uint256) {\n        (uint256 tTransferAmount, uint256 tFee, uint256 tTeam) = _getTValues(tAmount, _reflectionFee, _teamFee);\n        uint256 currentRate = _getRate();\n        (uint256 rAmount, uint256 rTransferAmount, uint256 rFee) = _getRValues(tAmount, tFee, tTeam, currentRate);\n        return (rAmount, rTransferAmount, rFee, tTransferAmount, tFee, tTeam);\n    }\n\n    function _getTValues(uint256 tAmount, uint256 reflectionFee, uint256 teamFee) private pure returns (uint256, uint256, uint256) {\n        uint256 tFee = tAmount.mul(reflectionFee).div(100);\n        uint256 tTeam = tAmount.mul(teamFee).div(100);\n        uint256 tTransferAmount = tAmount.sub(tFee).sub(tTeam);\n        return (tTransferAmount, tFee, tTeam);\n    }\n\n    function _getRValues(uint256 tAmount, uint256 tFee, uint256 tTeam, uint256 currentRate) private pure returns (uint256, uint256, uint256) {\n        uint256 rAmount = tAmount.mul(currentRate);\n        uint256 rFee = tFee.mul(currentRate);\n        uint256 rTeam = tTeam.mul(currentRate);\n        uint256 rTransferAmount = rAmount.sub(rFee).sub(rTeam);\n        return (rAmount, rTransferAmount, rFee);\n    }\n\n    function _getRate() private view returns (uint256) {\n        (uint256 rSupply, uint256 tSupply) = _getCurrentSupply();\n        return rSupply.div(tSupply);\n    }\n\n    function _getCurrentSupply() private view returns (uint256, uint256) {\n        uint256 rSupply = _rTotal;\n        uint256 tSupply = _tTotal;\n        if (rSupply < _rTotal.div(_tTotal)) return (_rTotal, _tTotal);\n        return (rSupply, tSupply);\n    }\n\n    function setMaxTxPercent(uint256 maxTxPercent) external onlyOwner() {\n        require(maxTxPercent > 0, \"Amount must be greater than 0\");\n        _maxTxAmount = _tTotal.mul(maxTxPercent).div(10**2);\n        emit MaxTxAmountUpdated(_maxTxAmount);\n    }\n\n    function manualBurn (uint256 amount) external onlyOwner() {\n        require(amount <= balanceOf(owner()), \"Amount exceeds available tokens.\");\n        _tokenTransfer(msg.sender, deadAddress, amount, false);\n    }\n\n    function setReflectionFee (uint256 _reflection) external onlyOwner() {\n        _reflectionFee = _reflection;\n        _storedReflectionFee = _reflection;\n    }\n\n    function setDevAddress(address payable _newDevAddress) external onlyOwner() {\n        _teamAddress = _newDevAddress;\n    }\n}\n",
  "sourcePath": "/Users/lie/Desktop/TikiBnBDeploy/contracts/TIME.sol",
  "compiler": {
    "name": "solc",
    "version": "0.8.4+commit.c7e474f2.Emscripten.clang"
  },
  "schemaVersion": "3.3.4",
  "updatedAt": "2021-09-13T23:30:12.876Z",
  "networkType": "ethereum",
  "devdoc": {
    "kind": "dev",
    "methods": {},
    "version": 1
  },
  "userdoc": {
    "kind": "user",
    "methods": {},
    "version": 1
  }
}