{
  "contractName": "TokenCreator",
  "abi": [
    {
      "inputs": [
        {
          "internalType": "address",
          "name": "router",
          "type": "address"
        }
      ],
      "stateMutability": "nonpayable",
      "type": "constructor"
    },
    {
      "anonymous": false,
      "inputs": [
        {
          "indexed": true,
          "internalType": "address",
          "name": "prvOwner",
          "type": "address"
        },
        {
          "indexed": true,
          "internalType": "address",
          "name": "newOwner",
          "type": "address"
        }
      ],
      "name": "OwnershipTransferred",
      "type": "event"
    },
    {
      "stateMutability": "payable",
      "type": "fallback"
    },
    {
      "inputs": [],
      "name": "creationTokenPrice",
      "outputs": [
        {
          "internalType": "uint256",
          "name": "",
          "type": "uint256"
        }
      ],
      "stateMutability": "view",
      "type": "function"
    },
    {
      "inputs": [],
      "name": "geUnlockTime",
      "outputs": [
        {
          "internalType": "uint256",
          "name": "",
          "type": "uint256"
        }
      ],
      "stateMutability": "view",
      "type": "function"
    },
    {
      "inputs": [
        {
          "internalType": "uint256",
          "name": "time",
          "type": "uint256"
        }
      ],
      "name": "lock",
      "outputs": [],
      "stateMutability": "nonpayable",
      "type": "function"
    },
    {
      "inputs": [],
      "name": "owner",
      "outputs": [
        {
          "internalType": "address",
          "name": "",
          "type": "address"
        }
      ],
      "stateMutability": "view",
      "type": "function"
    },
    {
      "inputs": [],
      "name": "pcsV2Router",
      "outputs": [
        {
          "internalType": "contract IUniswapV2Router02",
          "name": "",
          "type": "address"
        }
      ],
      "stateMutability": "view",
      "type": "function"
    },
    {
      "inputs": [],
      "name": "renounceOwnership",
      "outputs": [],
      "stateMutability": "nonpayable",
      "type": "function"
    },
    {
      "inputs": [
        {
          "internalType": "address",
          "name": "newOwner",
          "type": "address"
        }
      ],
      "name": "transferOwnership",
      "outputs": [],
      "stateMutability": "nonpayable",
      "type": "function"
    },
    {
      "inputs": [],
      "name": "unlock",
      "outputs": [],
      "stateMutability": "nonpayable",
      "type": "function"
    },
    {
      "stateMutability": "payable",
      "type": "receive"
    },
    {
      "inputs": [
        {
          "internalType": "address",
          "name": "tokenAddress",
          "type": "address"
        },
        {
          "internalType": "uint256",
          "name": "ethAmount",
          "type": "uint256"
        }
      ],
      "name": "getEstimatedTokensForETH",
      "outputs": [
        {
          "internalType": "uint256",
          "name": "",
          "type": "uint256"
        }
      ],
      "stateMutability": "view",
      "type": "function"
    },
    {
      "inputs": [
        {
          "internalType": "address",
          "name": "paymentTokenAddress",
          "type": "address"
        },
        {
          "internalType": "address",
          "name": "tokenOwner",
          "type": "address"
        },
        {
          "internalType": "address payable",
          "name": "_feeWallet",
          "type": "address"
        },
        {
          "internalType": "string",
          "name": "tokenName",
          "type": "string"
        },
        {
          "internalType": "string",
          "name": "tokenSymbol",
          "type": "string"
        },
        {
          "internalType": "uint256",
          "name": "amountOfTokenWei",
          "type": "uint256"
        },
        {
          "internalType": "uint8",
          "name": "decimal",
          "type": "uint8"
        },
        {
          "internalType": "uint8[]",
          "name": "fees",
          "type": "uint8[]"
        },
        {
          "internalType": "address",
          "name": "routerAddress",
          "type": "address"
        }
      ],
      "name": "createNewToken",
      "outputs": [],
      "stateMutability": "payable",
      "type": "function"
    },
    {
      "inputs": [
        {
          "internalType": "uint8",
          "name": "percent",
          "type": "uint8"
        }
      ],
      "name": "updatePlatformTokenDiscountPercent",
      "outputs": [],
      "stateMutability": "nonpayable",
      "type": "function"
    },
    {
      "inputs": [
        {
          "internalType": "uint256",
          "name": "amount",
          "type": "uint256"
        }
      ],
      "name": "updateCreatePrice",
      "outputs": [],
      "stateMutability": "nonpayable",
      "type": "function"
    },
    {
      "inputs": [
        {
          "internalType": "address",
          "name": "platformToken",
          "type": "address"
        }
      ],
      "name": "updatePlatformToken",
      "outputs": [],
      "stateMutability": "nonpayable",
      "type": "function"
    }
  ],
  "bytecode": "0x60a0604052662386f26fc10000600355600480546001600160a01b0319908116735a9a3cb7fbb13f1c5282057719e599c57e79d6e3179091556005805490911673aa0a8f8b43124131099528c4a663afb5789fec66179055600680547414aa0a8f8b43124131099528c4a663afb5789fec666001600160a81b031990911617905534801561008c57600080fd5b506040516162a73803806162a78339810160408190526100ab916100fd565b600080546001600160a01b031916339081178255604051909182917f8be0079c531659141344cd1fd0a4f28419497f9722a3daafe3b4186f6b6457e0908290a3506001600160a01b031660805261012d565b60006020828403121561010f57600080fd5b81516001600160a01b038116811461012657600080fd5b9392505050565b608051616135610172600039600081816101100152818161034e01528181610ad401528181610bf301528181610cb101528181610d490152610e2001526161356000f3fe608060405260043610620000cd5760003560e01c80637f9b20de1162000083578063b6c52324116200005d578063b6c523241462000227578063dd467064146200023e578063f2fde38b1462000263578063ff3d6a42146200028857005b80637f9b20de14620001c85780638da5cb5b14620001ef578063a69df4b5146200020f57005b80630d412de114620000d75780632d6abf8714620000fc57806343069ee5146200014f578063670d1b731462000174578063715018a6146200018b5780637e41c13714620001a357005b36620000d557005b005b348015620000e457600080fd5b50620000d5620000f636600462000f10565b620002ad565b3480156200010957600080fd5b50620001327f000000000000000000000000000000000000000000000000000000000000000081565b6040516001600160a01b0390911681526020015b60405180910390f35b3480156200015c57600080fd5b50620000d56200016e36600462000f37565b62000305565b620000d562000185366004620010c7565b62000337565b3480156200019857600080fd5b50620000d562000796565b348015620001b057600080fd5b50620000d5620001c2366004620011c1565b620007fc565b348015620001d557600080fd5b50620001e060035481565b60405190815260200162000146565b348015620001fc57600080fd5b506000546001600160a01b031662000132565b3480156200021c57600080fd5b50620000d562000849565b3480156200023457600080fd5b50600254620001e0565b3480156200024b57600080fd5b50620000d56200025d36600462000f37565b62000967565b3480156200027057600080fd5b50620000d56200028236600462000f10565b620009f2565b3480156200029557600080fd5b50620001e0620002a7366004620011df565b62000ad0565b6000546001600160a01b03163314620002e35760405162461bcd60e51b8152600401620002da906200120e565b60405180910390fd5b600680546001600160a01b0319166001600160a01b0392909216919091179055565b6000546001600160a01b03163314620003325760405162461bcd60e51b8152600401620002da906200120e565b600355565b6000546001600160a01b03163314620005e65760007f00000000000000000000000000000000000000000000000000000000000000006001600160a01b031663ad5c46486040518163ffffffff1660e01b8152600401602060405180830381865afa158015620003ab573d6000803e3d6000fd5b505050506040513d601f19601f82011682018060405250810190620003d1919062001243565b6001600160a01b03168a6001600160a01b031614620004f9576006546000906001600160a01b038c81169116146200041a57620004118b60035462000ad0565b9050806200045e565b6003546006546200045a918d916064916200043f91600160a01b900460ff1662001279565b6200044b91906200129b565b600354620002a79190620012be565b9050805b506040516323b872dd60e01b8152336004820152306024820152604481018290526001600160a01b038c16906323b872dd906064016020604051808303816000875af1158015620004b3573d6000803e3d6000fd5b505050506040513d601f19601f82011682018060405250810190620004d99190620012d8565b620004e357600080fd5b620004ef8b8262000b99565b479150506200053c565b600354341015620005395760405162461bcd60e51b81526020600482015260096024820152686c6f772076616c756560b81b6044820152606401620002da565b50345b6004546001600160a01b03166108fc60646200055a84603262001279565b6200056691906200129b565b6040518115909202916000818181858888f193505050501580156200058f573d6000803e3d6000fd5b506005546001600160a01b03166108fc6064620005ae84603262001279565b620005ba91906200129b565b6040518115909202916000818181858888f19350505050158015620005e3573d6000803e3d6000fd5b50505b6000888787868887600581518110620006035762000603620012fc565b602002602001015188600681518110620006215762000621620012fc565b60200260200101518e89604051620006399062000ed7565b6200064d9998979695949392919062001362565b604051809103906000f0801580156200066a573d6000803e3d6000fd5b509050806001600160a01b031663f6a3c9a984600081518110620006925762000692620012fc565b602002602001015185600181518110620006b057620006b0620012fc565b602002602001015186600281518110620006ce57620006ce620012fc565b602002602001015187600381518110620006ec57620006ec620012fc565b6020026020010151886004815181106200070a576200070a620012fc565b60209081029190910101516040516001600160e01b031960e088901b16815260ff9586166004820152938516602485015291841660448401528316606483015291909116608482015260a401600060405180830381600087803b1580156200077157600080fd5b505af115801562000786573d6000803e3d6000fd5b5050505050505050505050505050565b6000546001600160a01b03163314620007c35760405162461bcd60e51b8152600401620002da906200120e565b600080546040516001600160a01b0390911690600080516020620060e0833981519152908390a3600080546001600160a01b0319169055565b6000546001600160a01b03163314620008295760405162461bcd60e51b8152600401620002da906200120e565b6006805460ff909216600160a01b0260ff60a01b19909216919091179055565b6001546001600160a01b03163314620008c45760405162461bcd60e51b815260206004820152603660248201527f596f7520646f6e27742068617665207065726d697373696f6e20746f20756e6c6044820152751bd8dac81d1a19481d1bdad95b8818dbdb9d1c9858dd60521b6064820152608401620002da565b6002544211620009175760405162461bcd60e51b815260206004820152601f60248201527f436f6e7472616374206973206c6f636b656420756e74696c20372064617973006044820152606401620002da565b600154600080546040516001600160a01b039384169390911691600080516020620060e083398151915291a3600154600080546001600160a01b0319166001600160a01b03909216919091179055565b6000546001600160a01b03163314620009945760405162461bcd60e51b8152600401620002da906200120e565b60008054600180546001600160a01b03199081166001600160a01b03841617909155169055620009c58142620013df565b600255600080546040516001600160a01b0390911690600080516020620060e0833981519152908390a350565b6000546001600160a01b0316331462000a1f5760405162461bcd60e51b8152600401620002da906200120e565b6001600160a01b03811662000a865760405162461bcd60e51b815260206004820152602660248201527f4f776e61626c653a206e6577206f776e657220697320746865207a65726f206160448201526564647265737360d01b6064820152608401620002da565b600080546040516001600160a01b0380851693921691600080516020620060e083398151915291a3600080546001600160a01b0319166001600160a01b0392909216919091179055565b60007f00000000000000000000000000000000000000000000000000000000000000006001600160a01b0316631f00ca748362000b0d8662000dc2565b6040518363ffffffff1660e01b815260040162000b2c92919062001440565b600060405180830381865afa15801562000b4a573d6000803e3d6000fd5b505050506040513d6000823e601f3d908101601f1916820160405262000b74919081019062001463565b60008151811062000b895762000b89620012fc565b6020026020010151905092915050565b604080516002808252606082018352600092602083019080368337019050509050828160008151811062000bd15762000bd1620012fc565b60200260200101906001600160a01b031690816001600160a01b0316815250507f00000000000000000000000000000000000000000000000000000000000000006001600160a01b031663ad5c46486040518163ffffffff1660e01b8152600401602060405180830381865afa15801562000c50573d6000803e3d6000fd5b505050506040513d601f19601f8201168201806040525081019062000c76919062001243565b8160018151811062000c8c5762000c8c620012fc565b6001600160a01b03928316602091820292909201015260405163095ea7b360e01b81527f000000000000000000000000000000000000000000000000000000000000000082166004820152602481018490529084169063095ea7b3906044016020604051808303816000875af115801562000d0b573d6000803e3d6000fd5b505050506040513d601f19601f8201168201806040525081019062000d319190620012d8565b5060405163791ac94760e01b81526001600160a01b037f0000000000000000000000000000000000000000000000000000000000000000169063791ac9479062000d89908590600090869030904290600401620014fd565b600060405180830381600087803b15801562000da457600080fd5b505af115801562000db9573d6000803e3d6000fd5b50505050505050565b60408051600280825260608083018452926000929190602083019080368337019050509050828160008151811062000dfe5762000dfe620012fc565b60200260200101906001600160a01b031690816001600160a01b0316815250507f00000000000000000000000000000000000000000000000000000000000000006001600160a01b031663ad5c46486040518163ffffffff1660e01b8152600401602060405180830381865afa15801562000e7d573d6000803e3d6000fd5b505050506040513d601f19601f8201168201806040525081019062000ea3919062001243565b8160018151811062000eb95762000eb9620012fc565b6001600160a01b039092166020928302919091019091015292915050565b614ba4806200153c83390190565b6001600160a01b038116811462000efb57600080fd5b50565b803562000f0b8162000ee5565b919050565b60006020828403121562000f2357600080fd5b813562000f308162000ee5565b9392505050565b60006020828403121562000f4a57600080fd5b5035919050565b634e487b7160e01b600052604160045260246000fd5b604051601f8201601f1916810167ffffffffffffffff8111828210171562000f935762000f9362000f51565b604052919050565b600082601f83011262000fad57600080fd5b813567ffffffffffffffff81111562000fca5762000fca62000f51565b62000fdf601f8201601f191660200162000f67565b81815284602083860101111562000ff557600080fd5b816020850160208301376000918101602001919091529392505050565b803560ff8116811462000f0b57600080fd5b600067ffffffffffffffff82111562001041576200104162000f51565b5060051b60200190565b600082601f8301126200105d57600080fd5b8135602062001076620010708362001024565b62000f67565b82815260059290921b840181019181810190868411156200109657600080fd5b8286015b84811015620010bc57620010ae8162001012565b83529183019183016200109a565b509695505050505050565b60008060008060008060008060006101208a8c031215620010e757600080fd5b620010f28a62000efe565b98506200110260208b0162000efe565b97506200111260408b0162000efe565b965060608a013567ffffffffffffffff808211156200113057600080fd5b6200113e8d838e0162000f9b565b975060808c01359150808211156200115557600080fd5b620011638d838e0162000f9b565b965060a08c013595506200117a60c08d0162001012565b945060e08c01359150808211156200119157600080fd5b50620011a08c828d016200104b565b925050620011b26101008b0162000efe565b90509295985092959850929598565b600060208284031215620011d457600080fd5b62000f308262001012565b60008060408385031215620011f357600080fd5b8235620012008162000ee5565b946020939093013593505050565b6020808252818101527f4f776e61626c653a2063616c6c6572206973206e6f7420746865206f776e6572604082015260600190565b6000602082840312156200125657600080fd5b815162000f308162000ee5565b634e487b7160e01b600052601160045260246000fd5b600081600019048311821515161562001296576200129662001263565b500290565b600082620012b957634e487b7160e01b600052601260045260246000fd5b500490565b600082821015620012d357620012d362001263565b500390565b600060208284031215620012eb57600080fd5b8151801515811462000f3057600080fd5b634e487b7160e01b600052603260045260246000fd5b6000815180845260005b818110156200133a576020818501810151868301820152016200131c565b818111156200134d576000602083870101525b50601f01601f19169290920160200192915050565b6001600160a01b038a81168252610120602083018190526000916200138a8483018d62001312565b91508382036040850152620013a0828c62001312565b60ff9a8b166060860152608085019990995296891660a084015250509290951660c0830152821660e08201529216610100909201919091529392505050565b60008219821115620013f557620013f562001263565b500190565b600081518084526020808501945080840160005b83811015620014355781516001600160a01b0316875295820195908201906001016200140e565b509495945050505050565b8281526040602082015260006200145b6040830184620013fa565b949350505050565b600060208083850312156200147757600080fd5b825167ffffffffffffffff8111156200148f57600080fd5b8301601f81018513620014a157600080fd5b8051620014b2620010708262001024565b81815260059190911b82018301908381019087831115620014d257600080fd5b928401925b82841015620014f257835182529284019290840190620014d7565b979650505050505050565b85815284602082015260a0604082015260006200151e60a0830186620013fa565b6001600160a01b039490941660608301525060800152939250505056fe600380546001600160b81b03191676010114000000000000000000000000000000000000dead179055600060c081905260e060408190526200004591600491906200063e565b50604080516000815260208101918290525162000065916005916200063e565b506011805461ffff60481b1963ffffffff60281b1964ffffffff0019831664ffff0000001960ff61010061ff00198716048116620100000291821692909217630100000063ffffff001990961663ff000000199290921691909117949094048116640100000000029390931790811661ffff60381b196501000000000060ff60281b1984160485166601000000000000029081169190911767010000000000000062ffffff60281b1990931660ff60381b199290921691909117919091048316680100000000000000000217908116690100000000000000000060ff60481b1992909216919091049091166a0100000000000000000000021790556012805462ffffff60a81b19166201000160a81b179055670de0b6b3a76400006016553480156200019057600080fd5b5060405162004ba438038062004ba4833981016040819052620001b39162000853565b600080546001600160a01b031916339081178255604051909182917f8be0079c531659141344cd1fd0a4f28419497f9722a3daafe3b4186f6b6457e0908290a35087516200020990600f9060208b0190620006a8565b5086516200021f9060109060208a0190620006a8565b506011805460ff191660ff8816179055600c859055620002428560001962000952565b62000250906000196200097f565b600d819055601280546001600160a01b0319166001600160a01b03848116919091179091558a811660009081526006602090815260409091209290925560118054600160581b600160f81b0319166b01000000000000000000000092861692909202919091179055600c54620002f091606491620002dc9160ff89169062000524811b6200217717901c565b620005b860201b620021f61790919060201c565b6013819055506200031b6064620002dc8560ff16600c546200052460201b620021771790919060201c565b6014556200033e6103e8620002dc87600162000524602090811b6200217717901c565b6015556012546040805163c45a015560e01b815290516001600160a01b0390921691829163c45a01559160048083019260209291908290030181865afa1580156200038d573d6000803e3d6000fd5b505050506040513d601f19601f82011682018060405250810190620003b3919062000999565b6001600160a01b031663c9c6539630836001600160a01b031663ad5c46486040518163ffffffff1660e01b8152600401602060405180830381865afa15801562000401573d6000803e3d6000fd5b505050506040513d601f19601f8201168201806040525081019062000427919062000999565b6040516001600160e01b031960e085901b1681526001600160a01b039283166004820152911660248201526044016020604051808303816000875af115801562000475573d6000803e3d6000fd5b505050506040513d601f19601f820116820180604052508101906200049b919062000999565b6001600160a01b0390811660a0528181166080528a1660008181526009602090815260408083208054600160ff19918216811790925530855282852080549091169091179055600c5490519081527fddf252ad1be2c89b69c2b068fc378daa952ba7f163c4a11628f55a4df523b3ef910160405180910390a35050505050505050505062000a64565b6000826200053557506000620005b2565b6000620005438385620009b9565b905082620005528583620009db565b14620005af5760405162461bcd60e51b815260206004820152602160248201527f536166654d6174683a206d756c7469706c69636174696f6e206f766572666c6f6044820152607760f81b60648201526084015b60405180910390fd5b90505b92915050565b6000620005af83836040518060400160405280601a81526020017f536166654d6174683a206469766973696f6e206279207a65726f0000000000008152506200060260201b60201c565b60008183620006265760405162461bcd60e51b8152600401620005a69190620009f2565b506000620006358486620009db565b95945050505050565b82805482825590600052602060002090810192821562000696579160200282015b828111156200069657825182546001600160a01b0319166001600160a01b039091161782556020909201916001909101906200065f565b50620006a492915062000725565b5090565b828054620006b69062000a27565b90600052602060002090601f016020900481019282620006da576000855562000696565b82601f10620006f557805160ff191683800117855562000696565b8280016001018555821562000696579182015b828111156200069657825182559160200191906001019062000708565b5b80821115620006a4576000815560010162000726565b634e487b7160e01b600052604160045260246000fd5b6001600160a01b03811681146200076857600080fd5b50565b8051620007788162000752565b919050565b60005b838110156200079a57818101518382015260200162000780565b83811115620007aa576000848401525b50505050565b600082601f830112620007c257600080fd5b81516001600160401b0380821115620007df57620007df6200073c565b604051601f8301601f19908116603f011681019082821181831017156200080a576200080a6200073c565b816040528381528660208588010111156200082457600080fd5b620008378460208301602089016200077d565b9695505050505050565b805160ff811681146200077857600080fd5b60008060008060008060008060006101208a8c0312156200087357600080fd5b8951620008808162000752565b60208b01519099506001600160401b03808211156200089e57600080fd5b620008ac8d838e01620007b0565b995060408c0151915080821115620008c357600080fd5b50620008d28c828d01620007b0565b975050620008e360608b0162000841565b955060808a01519450620008fa60a08b0162000841565b93506200090a60c08b0162000841565b925060e08a01516200091c8162000752565b91506200092d6101008b016200076b565b90509295985092959850929598565b634e487b7160e01b600052601260045260246000fd5b6000826200096457620009646200093c565b500690565b634e487b7160e01b600052601160045260246000fd5b60008282101562000994576200099462000969565b500390565b600060208284031215620009ac57600080fd5b8151620005af8162000752565b6000816000190483118215151615620009d657620009d662000969565b500290565b600082620009ed57620009ed6200093c565b500490565b602081526000825180602084015262000a138160408501602087016200077d565b601f01601f19169190910160400192915050565b600181811c9082168062000a3c57607f821691505b6020821081141562000a5e57634e487b7160e01b600052602260045260246000fd5b50919050565b60805160a0516140db62000ac9600039600081816106740152818161268d01526127540152600081816104f0015281816132ab01528181613364015281816133a0015281816134120152818161347a0152818161351501526135f701526140db6000f3fe6080604052600436106103b15760003560e01c80638c25e4fd116101e7578063c49b9a801161010d578063ea2f0b37116100a0578063f25f4b561161006f578063f25f4b5614610b3d578063f2fde38b14610b64578063f6a3c9a914610b84578063f827b6b414610ba457600080fd5b8063ea2f0b3714610abc578063eb2a547f14610adc578063efa0880614610afd578063f0890d1914610b1d57600080fd5b8063d5473480116100dc578063d547348014610a15578063d9e6646014610a36578063dd46706414610a56578063dd62ed3e14610a7657600080fd5b8063c49b9a80146109aa578063d12a7688146109ca578063d28d8852146109e0578063d543dbeb146109f557600080fd5b8063a457c2d711610185578063b09f126611610154578063b09f12661461094a578063b6c523241461095f578063bdc653ef14610974578063c0b0fda21461098957600080fd5b8063a457c2d7146108df578063a69df4b5146108ff578063a9059cbb14610914578063af465a271461093457600080fd5b806395d89b41116101c157806395d89b411461086957806399fdf5c51461087e5780639ec830581461089e5780639ede5ded146108be57600080fd5b80638c25e4fd1461080b5780638da5cb5b1461082b57806390d49b9d1461084957600080fd5b806342966c68116102d75780636bc87c3a1161026a5780637d1db4a5116102395780637d1db4a51461077c57806382bf293c1461079257806382d2a4bb146107b257806388f82020146107d257600080fd5b80636bc87c3a146107105780636c0a24eb1461073157806370a0823114610747578063715018a61461076757600080fd5b806352143290116102a6578063521432901461066257806352390c02146106965780635342acb4146106b657806354ce6578146106ef57600080fd5b806342966c68146105e1578063437823ec146106015780634549b039146106215780634a74bb021461064157600080fd5b806323b872dd1161034f5780633685d4191161031e5780633685d4191461056257806339509351146105825780633b124fe7146105a25780633bd5d173146105c157600080fd5b806323b872dd146104be5780632d6abf87146104de5780632d8381191461052a578063313ce5671461054a57600080fd5b8063095ea7b31161038b578063095ea7b31461043957806313114a9d1461046957806318160ddd1461048857806319de79ab1461049d57600080fd5b806301f59d16146103bd578063057246d0146103f557806306fdde031461041757600080fd5b366103b857005b600080fd5b3480156103c957600080fd5b506003546103de90600160a01b900460ff1681565b60405160ff90911681526020015b60405180910390f35b34801561040157600080fd5b50610415610410366004613b88565b610bc5565b005b34801561042357600080fd5b5061042c610c16565b6040516103ec9190613ba5565b34801561044557600080fd5b50610459610454366004613c0f565b610ca8565b60405190151581526020016103ec565b34801561047557600080fd5b50600e545b6040519081526020016103ec565b34801561049457600080fd5b50600c5461047a565b3480156104a957600080fd5b506011546103de90600160481b900460ff1681565b3480156104ca57600080fd5b506104596104d9366004613c3b565b610cbf565b3480156104ea57600080fd5b506105127f000000000000000000000000000000000000000000000000000000000000000081565b6040516001600160a01b0390911681526020016103ec565b34801561053657600080fd5b5061047a610545366004613c7c565b610d28565b34801561055657600080fd5b5060115460ff166103de565b34801561056e57600080fd5b5061041561057d366004613c95565b610d99565b34801561058e57600080fd5b5061045961059d366004613c0f565b610f43565b3480156105ae57600080fd5b506011546103de90610100900460ff1681565b3480156105cd57600080fd5b506104156105dc366004613c7c565b610f79565b3480156105ed57600080fd5b506104156105fc366004613c7c565b611063565b34801561060d57600080fd5b5061041561061c366004613c95565b611122565b34801561062d57600080fd5b5061047a61063c366004613cb2565b611170565b34801561064d57600080fd5b5060125461045990600160a81b900460ff1681565b34801561066e57600080fd5b506105127f000000000000000000000000000000000000000000000000000000000000000081565b3480156106a257600080fd5b506104156106b1366004613c95565b6111fd565b3480156106c257600080fd5b506104596106d1366004613c95565b6001600160a01b031660009081526009602052604090205460ff1690565b3480156106fb57600080fd5b506011546103de90600160381b900460ff1681565b34801561071c57600080fd5b506011546103de906301000000900460ff1681565b34801561073d57600080fd5b5061047a60145481565b34801561075357600080fd5b5061047a610762366004613c95565b611360565b34801561077357600080fd5b506104156113bf565b34801561078857600080fd5b5061047a60135481565b34801561079e57600080fd5b506104156107ad366004613c7c565b611421565b3480156107be57600080fd5b506104156107cd366004613c7c565b6114c0565b3480156107de57600080fd5b506104596107ed366004613c95565b6001600160a01b03166000908152600a602052604090205460ff1690565b34801561081757600080fd5b50610512610826366004613c7c565b611502565b34801561083757600080fd5b506000546001600160a01b0316610512565b34801561085557600080fd5b50610415610864366004613c95565b61152c565b34801561087557600080fd5b5061042c6115dc565b34801561088a57600080fd5b50610415610899366004613ce2565b6115eb565b3480156108aa57600080fd5b506104156108b9366004613ce2565b61170b565b3480156108ca57600080fd5b5060125461045990600160b81b900460ff1681565b3480156108eb57600080fd5b506104596108fa366004613c0f565b611984565b34801561090b57600080fd5b506104156119d3565b34801561092057600080fd5b5061045961092f366004613c0f565b611aec565b34801561094057600080fd5b5061047a600c5481565b34801561095657600080fd5b5061042c611af9565b34801561096b57600080fd5b5060025461047a565b34801561098057600080fd5b5060165461047a565b34801561099557600080fd5b506011546103de90600160281b900460ff1681565b3480156109b657600080fd5b506104156109c5366004613b88565b611b87565b3480156109d657600080fd5b5061047a60155481565b3480156109ec57600080fd5b5061042c611c09565b348015610a0157600080fd5b50610415610a10366004613c7c565b611c16565b348015610a2157600080fd5b5060125461045990600160b01b900460ff1681565b348015610a4257600080fd5b50601254610512906001600160a01b031681565b348015610a6257600080fd5b50610415610a71366004613c7c565b611caf565b348015610a8257600080fd5b5061047a610a91366004613d10565b6001600160a01b03918216600090815260086020908152604080832093909416825291909152205490565b348015610ac857600080fd5b50610415610ad7366004613c95565b611d34565b348015610ae857600080fd5b506003546103de90600160a81b900460ff1681565b348015610b0957600080fd5b50610415610b18366004613c0f565b611d7f565b348015610b2957600080fd5b50610512610b38366004613c7c565b611e7e565b348015610b4957600080fd5b5060115461051290600160581b90046001600160a01b031681565b348015610b7057600080fd5b50610415610b7f366004613c95565b611e8e565b348015610b9057600080fd5b50610415610b9f366004613d54565b611f66565b348015610bb057600080fd5b506003546103de90600160b01b900460ff1681565b6000546001600160a01b03163314610bf85760405162461bcd60e51b8152600401610bef90613db9565b60405180910390fd5b60128054911515600160b01b0260ff60b01b19909216919091179055565b6060600f8054610c2590613dee565b80601f0160208091040260200160405190810160405280929190818152602001828054610c5190613dee565b8015610c9e5780601f10610c7357610100808354040283529160200191610c9e565b820191906000526020600020905b815481529060010190602001808311610c8157829003601f168201915b5050505050905090565b6000610cb5338484612238565b5060015b92915050565b6000610ccc848484612317565b610d1e8433610d1985604051806060016040528060288152602001614039602891396001600160a01b038a166000908152600860209081526040808320338452909152902054919061285c565b612238565b5060019392505050565b6000600d54821115610d7c5760405162461bcd60e51b815260206004820152601e60248201527f416d74206d757374206265206c657373207468616e20746f74207265666c00006044820152606401610bef565b6000610d86612896565b9050610d9283826121f6565b9392505050565b6000546001600160a01b03163314610dc35760405162461bcd60e51b8152600401610bef90613db9565b6001600160a01b0381166000908152600a602052604090205460ff16610e1e5760405162461bcd60e51b815260206004820152601060248201526f105b1c9958591e48195e18db1d59195960821b6044820152606401610bef565b60005b600b54811015610f3f57816001600160a01b0316600b8281548110610e4857610e48613e29565b6000918252602090912001546001600160a01b03161415610f2d57600b8054610e7390600190613e55565b81548110610e8357610e83613e29565b600091825260209091200154600b80546001600160a01b039092169183908110610eaf57610eaf613e29565b600091825260208083209190910180546001600160a01b0319166001600160a01b039485161790559184168152600782526040808220829055600a90925220805460ff19169055600b805480610f0757610f07613e6c565b600082815260209020810160001990810180546001600160a01b03191690550190555050565b80610f3781613e82565b915050610e21565b5050565b3360008181526008602090815260408083206001600160a01b03871684529091528120549091610cb5918590610d1990866128b9565b336000818152600a602052604090205460ff1615610fee5760405162461bcd60e51b815260206004820152602c60248201527f4578636c75646564206164647265737365732063616e6e6f742063616c6c207460448201526b3434b990333ab731ba34b7b760a11b6064820152608401610bef565b6000610ff983612918565b505050506001600160a01b03841660009081526006602052604090205491925061102591905082612967565b6001600160a01b038316600090815260066020526040902055600d5461104b9082612967565b600d55600e5461105b90846128b9565b600e55505050565b336000908152600660205260409020548111156110ab5760405162461bcd60e51b8152602060048201526006602482015265195e18d9595960d21b6044820152606401610bef565b336000908152600660205260409020546110c6908290613e55565b33600090815260066020526040902055600c546110e4908290613e55565b600c5560405181815260009033907fddf252ad1be2c89b69c2b068fc378daa952ba7f163c4a11628f55a4df523b3ef9060200160405180910390a350565b6000546001600160a01b0316331461114c5760405162461bcd60e51b8152600401610bef90613db9565b6001600160a01b03166000908152600960205260409020805460ff19166001179055565b6000600c548311156111c45760405162461bcd60e51b815260206004820152601c60248201527f416d74206d757374206265206c657373207468616e20737570706c79000000006044820152606401610bef565b816111e35760006111d484612918565b50939550610cb9945050505050565b60006111ee84612918565b50929550610cb9945050505050565b6000546001600160a01b031633146112275760405162461bcd60e51b8152600401610bef90613db9565b6001600160a01b0381166000908152600a602052604090205460ff16156112a05760405162461bcd60e51b815260206004820152602760248201527f4163636f756e7420697320616c7265616479206578636c756465642066726f6d604482015266081c995dd85c9960ca1b6064820152608401610bef565b6001600160a01b038116600090815260066020526040902054156112fa576001600160a01b0381166000908152600660205260409020546112e090610d28565b6001600160a01b0382166000908152600760205260409020555b6001600160a01b03166000818152600a60205260408120805460ff19166001908117909155600b805491820181559091527f0175b7a638427703f0dbe7bb9bbf987a2551717b34e79f33b5b1008d1fa01db90180546001600160a01b0319169091179055565b6001600160a01b0381166000908152600a602052604081205460ff161561139d57506001600160a01b031660009081526007602052604090205490565b6001600160a01b038216600090815260066020526040902054610cb990610d28565b6000546001600160a01b031633146113e95760405162461bcd60e51b8152600401610bef90613db9565b600080546040516001600160a01b0390911690600080516020614061833981519152908390a3600080546001600160a01b0319169055565b6000546001600160a01b0316331461144b5760405162461bcd60e51b8152600401610bef90613db9565b600354600160b01b900460ff168110801590611468575060648111155b61149a5760405162461bcd60e51b815260206004820152600360248201526232b93960e91b6044820152606401610bef565b6114ba60646114b483600c5461217790919063ffffffff16565b906121f6565b60145550565b6000546001600160a01b031633146114ea5760405162461bcd60e51b8152600401610bef90613db9565b6114fc81670de0b6b3a7640000613e9d565b60165550565b6005818154811061151257600080fd5b6000918252602090912001546001600160a01b0316905081565b6000546001600160a01b031633146115565760405162461bcd60e51b8152600401610bef90613db9565b6001600160a01b03811661159b5760405162461bcd60e51b815260206004820152600c60248201526b5a45524f204144445245535360a01b6044820152606401610bef565b601180546001600160a01b03909216600160581b027fff0000000000000000000000000000000000000000ffffffffffffffffffffff909216919091179055565b606060108054610c2590613dee565b6000546001600160a01b031633146116155760405162461bcd60e51b8152600401610bef90613db9565b61168681611624576004611627565b60055b80548060200260200160405190810160405280929190818152602001828054801561167b57602002820191906000526020600020905b81546001600160a01b0316815260019091019060200180831161165d575b5050505050836129a9565b156116b85760405162461bcd60e51b8152602060048201526002602482015261415760f01b6044820152606401610bef565b50600580546001810182556000919091527f036b6384b5eca791c62761152d0c79bb0604c104a5fb6f4eb0703f3154bb3db00180546001600160a01b0319166001600160a01b0392909216919091179055565b6000546001600160a01b031633146117355760405162461bcd60e51b8152600401610bef90613db9565b61174481611624576004611627565b6117755760405162461bcd60e51b8152602060048201526002602482015261272360f11b6044820152606401610bef565b60008161178457600454611788565b6005545b905060005b8181101561197e576000836117c957600482815481106117af576117af613e29565b6000918252602090912001546001600160a01b03166117f2565b600582815481106117dc576117dc613e29565b6000918252602090912001546001600160a01b03165b9050846001600160a01b0316816001600160a01b0316141561196b5783611885576004611820600185613e55565b8154811061183057611830613e29565b600091825260209091200154600480546001600160a01b03909216918490811061185c5761185c613e29565b600091825260209091200180546001600160a01b0319166001600160a01b0383161790556118f3565b6005611892600185613e55565b815481106118a2576118a2613e29565b600091825260209091200154600580546001600160a01b0390921691849081106118ce576118ce613e29565b600091825260209091200180546001600160a01b0319166001600160a01b0383161790555b508361193157600480548061190a5761190a613e6c565b600082815260209020810160001990810180546001600160a01b0319169055019055611965565b600580548061194257611942613e6c565b600082815260209020810160001990810180546001600160a01b03191690550190555b5061197e565b508061197681613e82565b91505061178d565b50505050565b6000610cb53384610d1985604051806060016040528060258152602001614081602591393360009081526008602090815260408083206001600160a01b038d168452909152902054919061285c565b6001546001600160a01b03163314611a4c5760405162461bcd60e51b815260206004820152603660248201527f596f7520646f6e27742068617665207065726d697373696f6e20746f20756e6c6044820152751bd8dac81d1a19481d1bdad95b8818dbdb9d1c9858dd60521b6064820152608401610bef565b6002544211611a9d5760405162461bcd60e51b815260206004820152601f60248201527f436f6e7472616374206973206c6f636b656420756e74696c20372064617973006044820152606401610bef565b600154600080546040516001600160a01b03938416939091169160008051602061406183398151915291a3600154600080546001600160a01b0319166001600160a01b03909216919091179055565b6000610cb5338484612317565b60108054611b0690613dee565b80601f0160208091040260200160405190810160405280929190818152602001828054611b3290613dee565b8015611b7f5780601f10611b5457610100808354040283529160200191611b7f565b820191906000526020600020905b815481529060010190602001808311611b6257829003601f168201915b505050505081565b6000546001600160a01b03163314611bb15760405162461bcd60e51b8152600401610bef90613db9565b60128054821515600160a81b0260ff60a81b199091161790556040517f53726dfcaf90650aa7eb35524f4d3220f07413c8d6cb404cc8c18bf5591bc15990611bfe90831515815260200190565b60405180910390a150565b600f8054611b0690613dee565b6000546001600160a01b03163314611c405760405162461bcd60e51b8152600401610bef90613db9565b600354600160a81b900460ff168110801590611c5d575060648111155b611c8f5760405162461bcd60e51b815260206004820152600360248201526232b93960e91b6044820152606401610bef565b611ca960646114b483600c5461217790919063ffffffff16565b60135550565b6000546001600160a01b03163314611cd95760405162461bcd60e51b8152600401610bef90613db9565b60008054600180546001600160a01b03199081166001600160a01b03841617909155169055611d088142613ebc565b600255600080546040516001600160a01b0390911690600080516020614061833981519152908390a350565b6000546001600160a01b03163314611d5e5760405162461bcd60e51b8152600401610bef90613db9565b6001600160a01b03166000908152600960205260409020805460ff19169055565b6000546001600160a01b03163314611da95760405162461bcd60e51b8152600401610bef90613db9565b6001600160a01b038216301415611de75760405162461bcd60e51b8152602060048201526002602482015261537760f01b6044820152606401610bef565b816001600160a01b031663a9059cbb611e086000546001600160a01b031690565b6040516001600160e01b031960e084901b1681526001600160a01b039091166004820152602481018490526044016020604051808303816000875af1158015611e55573d6000803e3d6000fd5b505050506040513d601f19601f82011682018060405250810190611e799190613ed4565b505050565b6004818154811061151257600080fd5b6000546001600160a01b03163314611eb85760405162461bcd60e51b8152600401610bef90613db9565b6001600160a01b038116611f1d5760405162461bcd60e51b815260206004820152602660248201527f4f776e61626c653a206e6577206f776e657220697320746865207a65726f206160448201526564647265737360d01b6064820152608401610bef565b600080546040516001600160a01b038085169392169160008051602061406183398151915291a3600080546001600160a01b0319166001600160a01b0392909216919091179055565b6000546001600160a01b03163314611f905760405162461bcd60e51b8152600401610bef90613db9565b60035460ff600160a01b90910481169086161115611fd95760405162461bcd60e51b81526020600482015260066024820152652a231032b93960d11b6044820152606401610bef565b60035460ff600160a01b909104811690851611156120225760405162461bcd60e51b815260206004820152600660248201526526231032b93960d11b6044820152606401610bef565b60035460ff600160a01b9091048116908416111561206b5760405162461bcd60e51b815260206004820152600660248201526521231032b93960d11b6044820152606401610bef565b60035460ff600160a01b909104811690831611156120b45760405162461bcd60e51b81526020600482015260066024820152652ba31032b93960d11b6044820152606401610bef565b60035460ff600160a01b909104811690821611156120fe5760405162461bcd60e51b81526020600482015260076024820152662121231032b93960c91b6044820152606401610bef565b6011805463ff00ff00191661010060ff9788160263ff0000001916176301000000958716959095029490941769ff000000ff00000000001916600160281b9386169390930260ff60481b191692909217600160481b928516929092029190911760ff60381b1916600160381b9190931602919091179055565b60008261218657506000610cb9565b60006121928385613e9d565b90508261219f8583613ef1565b14610d925760405162461bcd60e51b815260206004820152602160248201527f536166654d6174683a206d756c7469706c69636174696f6e206f766572666c6f6044820152607760f81b6064820152608401610bef565b6000610d9283836040518060400160405280601a81526020017f536166654d6174683a206469766973696f6e206279207a65726f000000000000815250612a0f565b6001600160a01b0383166122775760405162461bcd60e51b8152602060048201526006602482015265066726f6d20360d41b6044820152606401610bef565b6001600160a01b0382166122b65760405162461bcd60e51b8152600401610bef906020808252600490820152630746f20360e41b604082015260600190565b6001600160a01b0383811660008181526008602090815260408083209487168084529482529182902085905590518481527f8c5be1e5ebec7d5bd14f71427d1e84f3dd0314c0f7b2291e5b200ac8c7c3b925910160405180910390a3505050565b6001600160a01b0383166123565760405162461bcd60e51b8152602060048201526006602482015265066726f6d20360d41b6044820152606401610bef565b6001600160a01b0382166123955760405162461bcd60e51b8152600401610bef906020808252600490820152630746f20360e41b604082015260600190565b600081116123cd5760405162461bcd60e51b8152602060048201526005602482015264061203d20360dc1b6044820152606401610bef565b612431600480548060200260200160405190810160405280929190818152602001828054801561242657602002820191906000526020600020905b81546001600160a01b03168152600190910190602001808311612408575b5050505050846129a9565b156124675760405162461bcd60e51b8152602060048201526006602482015265465f424c5f4160d01b6044820152606401610bef565b6124c9600480548060200260200160405190810160405280929190818152602001828054801561167b576020028201919060005260206000209081546001600160a01b0316815260019091019060200180831161165d575050505050836129a9565b156124ff5760405162461bcd60e51b8152602060048201526006602482015265545f424c5f4160d01b6044820152606401610bef565b6000546001600160a01b038481169116148015906125265750601254600160b01b900460ff165b156125bf5761258d6005805480602002602001604051908101604052809291908181526020018280548015612426576020028201919060005260206000209081546001600160a01b03168152600190910190602001808311612408575050505050846129a9565b6125bf5760405162461bcd60e51b8152602060048201526003602482015262575f4560e81b6044820152606401610bef565b6000546001600160a01b038481169116148015906125eb57506000546001600160a01b03838116911614155b1561262a5760135481111561262a5760405162461bcd60e51b81526020600482015260056024820152640dac2f0a8b60db1b6044820152606401610bef565b6000546001600160a01b0384811691161480159061265657506000546001600160a01b03838116911614155b801561266a57506001600160a01b03821615155b801561268457506003546001600160a01b03838116911614155b80156126c257507f00000000000000000000000000000000000000000000000000000000000000006001600160a01b0316826001600160a01b031614155b1561271a5760006126d283611360565b6014549091506126e28383613ebc565b11156127185760405162461bcd60e51b81526020600482015260056024820152646d6178574160d81b6044820152606401610bef565b505b600061272530611360565b9050601354811061273557506013545b6015546012549082101590600160a01b900460ff1615801561278857507f00000000000000000000000000000000000000000000000000000000000000006001600160a01b0316846001600160a01b0316145b801561279d5750601254600160a81b900460ff165b156127fd5780156127b65760155491506127b682612a3d565b601154600160481b900460ff16156127fd5747670de0b6b3a76400008111156127fb576016548111156127e857506016545b6127fb6127f68260646121f6565b612c5f565b505b6001600160a01b03851660009081526009602052604090205460019060ff168061283f57506001600160a01b03851660009081526009602052604090205460ff165b15612848575060005b61285486868684612c91565b505050505050565b600081848411156128805760405162461bcd60e51b8152600401610bef9190613ba5565b50600061288d8486613e55565b95945050505050565b60008060006128a3612eb0565b90925090506128b282826121f6565b9250505090565b6000806128c68385613ebc565b905083811015610d925760405162461bcd60e51b815260206004820152601b60248201527f536166654d6174683a206164646974696f6e206f766572666c6f7700000000006044820152606401610bef565b600080600080600080600080600061292f8a613032565b925092509250600080600061294d8d8686612948612896565b613074565b919f909e50909c50959a5093985091965092945050505050565b6000610d9283836040518060400160405280601e81526020017f536166654d6174683a207375627472616374696f6e206f766572666c6f77000081525061285c565b6000805b8351811015612a0557826001600160a01b03168482815181106129d2576129d2613e29565b60200260200101516001600160a01b031614156129f3576001915050610cb9565b806129fd81613e82565b9150506129ad565b5060009392505050565b60008183612a305760405162461bcd60e51b8152600401610bef9190613ba5565b50600061288d8486613ef1565b6012805460ff60a01b1916600160a01b179055601154600090600160481b810460ff9081169163010000008104821691612a8991600160381b8104821691600160281b90910416613f13565b612a939190613f13565b612a9d9190613f13565b6011549091506000908190600160281b900460ff1615612afc57601154612ade9060ff600160281b909104811690612ad890879087166121f6565b90612177565b600354909250612af99030906001600160a01b0316846130c4565b50805b601154600160381b900460ff1615612b5e57601154612b2f9060ff600160381b909104811690612ad890879087166121f6565b9150612b51306011600b9054906101000a90046001600160a01b0316846130c4565b612b5b8282613ebc565b90505b601154600160481b900460ff1615612ba957601154612b919060ff600160481b909104811690612ad890879087166121f6565b9150612b9c82613254565b612ba68282613ebc565b90505b6011546301000000900460ff1615612c4c57612bc58482612967565b93506000612bd48560026121f6565b90506000612be28683612967565b905047612bee83613254565b6000612bfa4783612967565b9050612c06838261340c565b60408051858152602081018390529081018490527f17bbfb9a6069321b6ded73bd96327c9e6b7212a5cd51ff219cd61370acafb5619060600160405180910390a1505050505b50506012805460ff60a01b191690555050565b6012805460ff60a01b1916600160a01b1790558015612c8157612c81816134f2565b506012805460ff60a01b19169055565b80612c9e57612c9e613688565b6001600160a01b0384166000908152600a602052604090205460ff168015612cdf57506001600160a01b0383166000908152600a602052604090205460ff16155b15612cf457612cef8484846137c4565b612df2565b6001600160a01b0384166000908152600a602052604090205460ff16158015612d3557506001600160a01b0383166000908152600a602052604090205460ff165b15612d4557612cef8484846138ea565b6001600160a01b0384166000908152600a602052604090205460ff16158015612d8757506001600160a01b0383166000908152600a602052604090205460ff16155b15612d9757612cef848484613993565b6001600160a01b0384166000908152600a602052604090205460ff168015612dd757506001600160a01b0383166000908152600a602052604090205460ff165b15612de757612cef8484846139d7565b612df2848484613993565b8061197e576011805460ff60481b1967ff00ff00000000001963ff00ff0019831663ff0000001961010062010000860460ff908116919091029182169290921764010000000061ff00199096169091179490940481166301000000029390931790811660ff60381b19660100000000000083048516600160281b0290811691909117600160401b65ff000000000019909316909117919091048316600160381b0217908116600160501b909104909116600160481b0217905561197e565b600d54600c546000918291825b600b54811015613002578260066000600b8481548110612edf57612edf613e29565b60009182526020808320909101546001600160a01b031683528201929092526040019020541180612f4a57508160076000600b8481548110612f2357612f23613e29565b60009182526020808320909101546001600160a01b03168352820192909252604001902054115b15612f6057600d54600c54945094505050509091565b612fa660066000600b8481548110612f7a57612f7a613e29565b60009182526020808320909101546001600160a01b031683528201929092526040019020548490612967565b9250612fee60076000600b8481548110612fc257612fc2613e29565b60009182526020808320909101546001600160a01b031683528201929092526040019020548390612967565b915080612ffa81613e82565b915050612ebd565b50600c54600d54613012916121f6565b82101561302957600d54600c549350935050509091565b90939092509050565b60008060008061304185613a4a565b9050600061304e86613a6a565b90506000613066826130608986612967565b90612967565b979296509094509092505050565b60008080806130838886612177565b905060006130918887612177565b9050600061309f8888612177565b905060006130b1826130608686612967565b939b939a50919850919650505050505050565b60006130ce612896565b905060006130dc8383612177565b6001600160a01b0386166000908152600660205260409020549091506131029082612967565b6001600160a01b03808716600090815260066020526040808220939093559086168152205461313190826128b9565b6001600160a01b038086166000908152600660209081526040808320949094559188168152600a909152205460ff16156131a2576001600160a01b0385166000908152600760205260409020546131889084612967565b6001600160a01b0386166000908152600760205260409020555b6001600160a01b0384166000908152600a602052604090205460ff1615613200576001600160a01b0384166000908152600760205260409020546131e690846128b9565b6001600160a01b0385166000908152600760205260409020555b836001600160a01b0316856001600160a01b03167fddf252ad1be2c89b69c2b068fc378daa952ba7f163c4a11628f55a4df523b3ef8560405161324591815260200190565b60405180910390a35050505050565b604080516002808252606082018352600092602083019080368337019050509050308160008151811061328957613289613e29565b60200260200101906001600160a01b031690816001600160a01b0316815250507f00000000000000000000000000000000000000000000000000000000000000006001600160a01b031663ad5c46486040518163ffffffff1660e01b8152600401602060405180830381865afa158015613307573d6000803e3d6000fd5b505050506040513d601f19601f8201168201806040525081019061332b9190613f38565b8160018151811061333e5761333e613e29565b60200260200101906001600160a01b031690816001600160a01b031681525050613389307f000000000000000000000000000000000000000000000000000000000000000084612238565b60405163791ac94760e01b81526001600160a01b037f0000000000000000000000000000000000000000000000000000000000000000169063791ac947906133de908590600090869030904290600401613f99565b600060405180830381600087803b1580156133f857600080fd5b505af1158015612854573d6000803e3d6000fd5b613437307f000000000000000000000000000000000000000000000000000000000000000084612238565b60035460405163f305d71960e01b81523060048201526024810184905260006044820181905260648201526001600160a01b0391821660848201524260a48201527f00000000000000000000000000000000000000000000000000000000000000009091169063f305d71990839060c40160606040518083038185885af11580156134c6573d6000803e3d6000fd5b50505050506040513d601f19601f820116820180604052508101906134eb9190613fd5565b5050505050565b6040805160028082526060820183526000926020830190803683370190505090507f00000000000000000000000000000000000000000000000000000000000000006001600160a01b031663ad5c46486040518163ffffffff1660e01b8152600401602060405180830381865afa158015613571573d6000803e3d6000fd5b505050506040513d601f19601f820116820180604052508101906135959190613f38565b816000815181106135a8576135a8613e29565b60200260200101906001600160a01b031690816001600160a01b03168152505030816001815181106135dc576135dc613e29565b6001600160a01b0392831660209182029290920101526003547f000000000000000000000000000000000000000000000000000000000000000082169163b6f9de959185916000918691166136334261012c6128b9565b6040518663ffffffff1660e01b81526004016136529493929190614003565b6000604051808303818588803b15801561366b57600080fd5b505af115801561367f573d6000803e3d6000fd5b50505050505050565b601154610100900460ff161580156136aa57506011546301000000900460ff16155b80156136c05750601154600160281b900460ff16155b80156136d65750601154600160381b900460ff16155b80156136ec5750601154600160481b900460ff16155b156136f357565b601180546affff00ff00ff00ff00ff001968ff00ff0000000000001964ff00ff000019831664ff0000000019610100850460ff908116620100000291821692909217630100000062ff000019909616909117949094048116640100000000029390931790811668ff000000000000000019600160281b8304851666010000000000000290811691909117600160381b66ff00000000000019909316909117919091048316600160401b0217908116600160481b909104909116600160501b0269ff00ff00ff00ff00ff001916179055565b6000806000806000806137d687612918565b6001600160a01b038f16600090815260076020526040902054959b509399509197509550935091506138089088612967565b6001600160a01b038a166000908152600760209081526040808320939093556006905220546138379087612967565b6001600160a01b03808b1660009081526006602052604080822093909355908a168152205461386690866128b9565b6001600160a01b03891660009081526006602052604090205561388881613acb565b6138928483613b53565b876001600160a01b0316896001600160a01b03167fddf252ad1be2c89b69c2b068fc378daa952ba7f163c4a11628f55a4df523b3ef856040516138d791815260200190565b60405180910390a3505050505050505050565b6000806000806000806138fc87612918565b6001600160a01b038f16600090815260066020526040902054959b5093995091975095509350915061392e9087612967565b6001600160a01b03808b16600090815260066020908152604080832094909455918b1681526007909152205461396490846128b9565b6001600160a01b03891660009081526007602090815260408083209390935560069052205461386690866128b9565b6000806000806000806139a587612918565b6001600160a01b038f16600090815260066020526040902054959b509399509197509550935091506138379087612967565b6000806000806000806139e987612918565b6001600160a01b038f16600090815260076020526040902054959b50939950919750955093509150613a1b9088612967565b6001600160a01b038a1660009081526007602090815260408083209390935560069052205461392e9087612967565b601154600090610cb9906064906114b4908590610100900460ff16612177565b601154600090610cb9906064906114b49060ff600160481b8204811691600160381b8104821691613aad91600160281b8104821691630100000090910416613f13565b613ab79190613f13565b613ac19190613f13565b859060ff16612177565b6000613ad5612896565b90506000613ae38383612177565b30600090815260066020526040902054909150613b0090826128b9565b30600090815260066020908152604080832093909355600a9052205460ff1615611e795730600090815260076020526040902054613b3e90846128b9565b30600090815260076020526040902055505050565b600d54613b609083612967565b600d55600e54613b7090826128b9565b600e555050565b8015158114613b8557600080fd5b50565b600060208284031215613b9a57600080fd5b8135610d9281613b77565b600060208083528351808285015260005b81811015613bd257858101830151858201604001528201613bb6565b81811115613be4576000604083870101525b50601f01601f1916929092016040019392505050565b6001600160a01b0381168114613b8557600080fd5b60008060408385031215613c2257600080fd5b8235613c2d81613bfa565b946020939093013593505050565b600080600060608486031215613c5057600080fd5b8335613c5b81613bfa565b92506020840135613c6b81613bfa565b929592945050506040919091013590565b600060208284031215613c8e57600080fd5b5035919050565b600060208284031215613ca757600080fd5b8135610d9281613bfa565b60008060408385031215613cc557600080fd5b823591506020830135613cd781613b77565b809150509250929050565b60008060408385031215613cf557600080fd5b8235613d0081613bfa565b91506020830135613cd781613b77565b60008060408385031215613d2357600080fd5b8235613d2e81613bfa565b91506020830135613cd781613bfa565b803560ff81168114613d4f57600080fd5b919050565b600080600080600060a08688031215613d6c57600080fd5b613d7586613d3e565b9450613d8360208701613d3e565b9350613d9160408701613d3e565b9250613d9f60608701613d3e565b9150613dad60808701613d3e565b90509295509295909350565b6020808252818101527f4f776e61626c653a2063616c6c6572206973206e6f7420746865206f776e6572604082015260600190565b600181811c90821680613e0257607f821691505b60208210811415613e2357634e487b7160e01b600052602260045260246000fd5b50919050565b634e487b7160e01b600052603260045260246000fd5b634e487b7160e01b600052601160045260246000fd5b600082821015613e6757613e67613e3f565b500390565b634e487b7160e01b600052603160045260246000fd5b6000600019821415613e9657613e96613e3f565b5060010190565b6000816000190483118215151615613eb757613eb7613e3f565b500290565b60008219821115613ecf57613ecf613e3f565b500190565b600060208284031215613ee657600080fd5b8151610d9281613b77565b600082613f0e57634e487b7160e01b600052601260045260246000fd5b500490565b600060ff821660ff84168060ff03821115613f3057613f30613e3f565b019392505050565b600060208284031215613f4a57600080fd5b8151610d9281613bfa565b600081518084526020808501945080840160005b83811015613f8e5781516001600160a01b031687529582019590820190600101613f69565b509495945050505050565b85815284602082015260a060408201526000613fb860a0830186613f55565b6001600160a01b0394909416606083015250608001529392505050565b600080600060608486031215613fea57600080fd5b8351925060208401519150604084015190509250925092565b84815260806020820152600061401c6080830186613f55565b6001600160a01b0394909416604083015250606001529291505056fe45524332303a207472616e7366657220616d6f756e74206578636565647320616c6c6f77616e63658be0079c531659141344cd1fd0a4f28419497f9722a3daafe3b4186f6b6457e045524332303a2064656372656173656420616c6c6f77616e63652062656c6f77207a65726fa264697066735822122006b584de02099d71f22a66b199238acec48fbe6150abcd6ccf2b22552ec411fa64736f6c634300080a00338be0079c531659141344cd1fd0a4f28419497f9722a3daafe3b4186f6b6457e0a264697066735822122062bb92ffff1c350e18b63a087f6b0c1bbb87507cc2e0b070e19d8f3b07cb848964736f6c634300080a0033",
  "immutableReferences": {
    "4177": [
      {
        "length": 32,
        "start": 272
      },
      {
        "length": 32,
        "start": 846
      },
      {
        "length": 32,
        "start": 2772
      },
      {
        "length": 32,
        "start": 3059
      },
      {
        "length": 32,
        "start": 3249
      },
      {
        "length": 32,
        "start": 3401
      },
      {
        "length": 32,
        "start": 3616
      }
    ]
  },
  "source": "// SPDX-License-Identifier: MIT\npragma solidity 0.8.10;\nimport \"./Token.sol\";\n\ncontract TokenCreator is Ownable {\n  uint256 public creationTokenPrice = 10000000000000000;\n  IUniswapV2Router02 public immutable pcsV2Router;\n  address punk = 0x5A9A3cB7FBB13f1C5282057719e599C57e79d6E3;\n  address nkt = 0xaa0a8F8b43124131099528c4a663AfB5789FEC66;\n  address _platformToken = 0xaa0a8F8b43124131099528c4a663AfB5789FEC66;\n  uint8 _platformTokenDiscountPercent = 20;\n\n  constructor(address router) {\n    pcsV2Router = IUniswapV2Router02(router);\n  }\n\n  function getEstimatedTokensForETH(address tokenAddress, uint ethAmount) public view returns (uint256) {\n    return pcsV2Router.getAmountsIn(ethAmount, getPathForTokenETH(tokenAddress))[0];\n  }\n\n  function getPathForTokenETH(address tokenAddress) private view returns (address[] memory) {\n    address[] memory path = new address[](2);\n    path[0] = tokenAddress;\n    path[1] = pcsV2Router.WETH();\n    return path;\n  }\n\n  function createNewToken(\n    address paymentTokenAddress,\n    address tokenOwner,\n    address payable _feeWallet,\n    string memory tokenName,\n    string memory tokenSymbol,\n    uint256 amountOfTokenWei,\n    uint8 decimal,\n    uint8[] memory fees,\n    address routerAddress\n  ) public payable {\n\n    if (msg.sender != owner()) {\n\n      uint256 transferedAmount = 0;\n\n      if (paymentTokenAddress != pcsV2Router.WETH()) {\n        uint256 requiredTokenAmount = 0;\n\n        paymentTokenAddress == _platformToken ? requiredTokenAmount = getEstimatedTokensForETH(paymentTokenAddress, creationTokenPrice - (_platformTokenDiscountPercent * creationTokenPrice) / 100) : requiredTokenAmount = getEstimatedTokensForETH(paymentTokenAddress, creationTokenPrice);\n\n        require(IERC20(address(paymentTokenAddress)).transferFrom(msg.sender, address(this), requiredTokenAmount));\n        swapTokensForBNB(paymentTokenAddress, requiredTokenAmount);\n        transferedAmount = address(this).balance;\n      } else {\n        require(msg.value >= creationTokenPrice, \"low value\");\n        transferedAmount = msg.value;\n      }\n      payable(punk).transfer((50 * transferedAmount) / 100 );\n      payable(nkt).transfer((50 * transferedAmount) / 100 );\n    }\n\n    Token newToken = new Token(tokenOwner, tokenName, tokenSymbol, decimal, amountOfTokenWei, fees[5], fees[6], _feeWallet, routerAddress);\n    newToken.setAllFeePercent(fees[0],fees[1],fees[2],fees[3],fees[4]);\n  }\n\n  function updatePlatformTokenDiscountPercent(uint8 percent) public onlyOwner {\n    _platformTokenDiscountPercent = percent;\n  }\n\n  function updateCreatePrice(uint256 amount) public onlyOwner {\n    creationTokenPrice = amount;\n  }\n\n  function updatePlatformToken(address platformToken) public onlyOwner {\n    _platformToken = platformToken;\n  }\n\n  function swapTokensForBNB(address tokenAddress, uint256 tokenAmount) private {\n    address[] memory path = new address[](2);\n\n    path[0] = tokenAddress;\n    path[1] = pcsV2Router.WETH();\n\n    IERC20(tokenAddress).approve(address(pcsV2Router), tokenAmount);\n\n    pcsV2Router.swapExactTokensForETHSupportingFeeOnTransferTokens(\n      tokenAmount,\n      0, // accept any amount of ETH\n      path,\n      address(this),\n      block.timestamp\n    );\n  }\n  fallback() external payable {}\n  receive() external payable {}\n}\n",
  "sourcePath": "/home/lslha/Escritorio/tokenCreator/DeplyTokenCreatorCotracts/contracts/TokenCreator.sol",
  "compiler": {
    "name": "solc",
    "version": "0.8.10+commit.fc410830.Emscripten.clang"
  },
  "schemaVersion": "3.4.3",
  "updatedAt": "2021-12-04T10:45:38.890Z",
  "devdoc": {
    "kind": "dev",
    "methods": {
      "owner()": {
        "details": "Returns the address of the current owner."
      },
      "renounceOwnership()": {
        "details": "Leaves the contract without owner. It will not be possible to call `onlyOwner` functions anymore. Can only be called by the current owner. NOTE: Renouncing ownership will leave the contract without an owner, thereby removing any functionality that is only available to the owner."
      },
      "transferOwnership(address)": {
        "details": "Transfers ownership of the contract to a new account (`newOwner`). Can only be called by the current owner."
      }
    },
    "version": 1
  },
  "userdoc": {
    "kind": "user",
    "methods": {},
    "version": 1
  }
}