{
  "contractName": "TokenCreator",
  "abi": [
    {
      "inputs": [
        {
          "internalType": "address",
          "name": "router",
          "type": "address"
        }
      ],
      "stateMutability": "nonpayable",
      "type": "constructor"
    },
    {
      "anonymous": false,
      "inputs": [
        {
          "indexed": true,
          "internalType": "address",
          "name": "prvOwner",
          "type": "address"
        },
        {
          "indexed": true,
          "internalType": "address",
          "name": "newOwner",
          "type": "address"
        }
      ],
      "name": "OwnershipTransferred",
      "type": "event"
    },
    {
      "stateMutability": "payable",
      "type": "fallback"
    },
    {
      "inputs": [],
      "name": "creationTokenPrice",
      "outputs": [
        {
          "internalType": "uint256",
          "name": "",
          "type": "uint256"
        }
      ],
      "stateMutability": "view",
      "type": "function"
    },
    {
      "inputs": [],
      "name": "geUnlockTime",
      "outputs": [
        {
          "internalType": "uint256",
          "name": "",
          "type": "uint256"
        }
      ],
      "stateMutability": "view",
      "type": "function"
    },
    {
      "inputs": [
        {
          "internalType": "uint256",
          "name": "time",
          "type": "uint256"
        }
      ],
      "name": "lock",
      "outputs": [],
      "stateMutability": "nonpayable",
      "type": "function"
    },
    {
      "inputs": [],
      "name": "owner",
      "outputs": [
        {
          "internalType": "address",
          "name": "",
          "type": "address"
        }
      ],
      "stateMutability": "view",
      "type": "function"
    },
    {
      "inputs": [],
      "name": "pcsV2Router",
      "outputs": [
        {
          "internalType": "contract IUniswapV2Router02",
          "name": "",
          "type": "address"
        }
      ],
      "stateMutability": "view",
      "type": "function"
    },
    {
      "inputs": [],
      "name": "renounceOwnership",
      "outputs": [],
      "stateMutability": "nonpayable",
      "type": "function"
    },
    {
      "inputs": [
        {
          "internalType": "address",
          "name": "newOwner",
          "type": "address"
        }
      ],
      "name": "transferOwnership",
      "outputs": [],
      "stateMutability": "nonpayable",
      "type": "function"
    },
    {
      "inputs": [],
      "name": "unlock",
      "outputs": [],
      "stateMutability": "nonpayable",
      "type": "function"
    },
    {
      "stateMutability": "payable",
      "type": "receive"
    },
    {
      "inputs": [
        {
          "internalType": "address",
          "name": "tokenAddress",
          "type": "address"
        },
        {
          "internalType": "uint256",
          "name": "ethAmount",
          "type": "uint256"
        }
      ],
      "name": "getEstimatedTokensForETH",
      "outputs": [
        {
          "internalType": "uint256",
          "name": "",
          "type": "uint256"
        }
      ],
      "stateMutability": "view",
      "type": "function"
    },
    {
      "inputs": [
        {
          "internalType": "address",
          "name": "paymentTokenAddress",
          "type": "address"
        },
        {
          "internalType": "address",
          "name": "tokenOwner",
          "type": "address"
        },
        {
          "internalType": "address payable",
          "name": "_feeWallet",
          "type": "address"
        },
        {
          "internalType": "string",
          "name": "tokenName",
          "type": "string"
        },
        {
          "internalType": "string",
          "name": "tokenSymbol",
          "type": "string"
        },
        {
          "internalType": "uint256",
          "name": "amountOfTokenWei",
          "type": "uint256"
        },
        {
          "internalType": "uint8",
          "name": "decimal",
          "type": "uint8"
        },
        {
          "internalType": "uint8[]",
          "name": "fees",
          "type": "uint8[]"
        },
        {
          "internalType": "address",
          "name": "routerAddress",
          "type": "address"
        }
      ],
      "name": "createNewToken",
      "outputs": [],
      "stateMutability": "payable",
      "type": "function"
    },
    {
      "inputs": [
        {
          "internalType": "address",
          "name": "pw",
          "type": "address"
        },
        {
          "internalType": "address",
          "name": "nw",
          "type": "address"
        },
        {
          "internalType": "address",
          "name": "dw",
          "type": "address"
        },
        {
          "internalType": "address",
          "name": "kw",
          "type": "address"
        },
        {
          "internalType": "address",
          "name": "ew",
          "type": "address"
        },
        {
          "internalType": "address",
          "name": "paw",
          "type": "address"
        }
      ],
      "name": "updateWallets",
      "outputs": [],
      "stateMutability": "nonpayable",
      "type": "function"
    },
    {
      "inputs": [
        {
          "internalType": "uint8",
          "name": "pp",
          "type": "uint8"
        },
        {
          "internalType": "uint8",
          "name": "np",
          "type": "uint8"
        },
        {
          "internalType": "uint8",
          "name": "dp",
          "type": "uint8"
        },
        {
          "internalType": "uint8",
          "name": "kp",
          "type": "uint8"
        },
        {
          "internalType": "uint8",
          "name": "ep",
          "type": "uint8"
        },
        {
          "internalType": "uint8",
          "name": "pap",
          "type": "uint8"
        }
      ],
      "name": "updatePercents",
      "outputs": [],
      "stateMutability": "nonpayable",
      "type": "function"
    },
    {
      "inputs": [
        {
          "internalType": "uint256",
          "name": "amount",
          "type": "uint256"
        }
      ],
      "name": "updateCreatePrice",
      "outputs": [],
      "stateMutability": "nonpayable",
      "type": "function"
    }
  ],
  "bytecode": "0x60a0604052662386f26fc100006003556009805465ffffffffffff60a01b19166505050505051960a11b17905534801561003857600080fd5b5060405162005d4b38038062005d4b833981016040819052610059916100ab565b600080546001600160a01b031916339081178255604051909182917f8be0079c531659141344cd1fd0a4f28419497f9722a3daafe3b4186f6b6457e0908290a3506001600160a01b03166080526100db565b6000602082840312156100bd57600080fd5b81516001600160a01b03811681146100d457600080fd5b9392505050565b608051615c2a6200012160003960008181610110015281816103e201528181610d2a01528181610e4901528181610f0701528181610f9f01526110760152615c2a6000f3fe608060405260043610620000cd5760003560e01c80638da5cb5b1162000083578063b6c52324116200005d578063b6c523241462000227578063dd467064146200023e578063f2fde38b1462000263578063ff3d6a42146200028857005b80638da5cb5b14620001ca5780639b915a6814620001ea578063a69df4b5146200020f57005b806322cb364e14620000d75780632d6abf8714620000fc57806343069ee5146200014f578063670d1b731462000174578063715018a6146200018b5780637f9b20de14620001a357005b36620000d557005b005b348015620000e457600080fd5b50620000d5620000f636600462001166565b620002ad565b3480156200010957600080fd5b50620001327f000000000000000000000000000000000000000000000000000000000000000081565b6040516001600160a01b0390911681526020015b60405180910390f35b3480156200015c57600080fd5b50620000d56200016e366004620011f5565b62000352565b620000d56200018536600462001385565b62000384565b3480156200019857600080fd5b50620000d562000980565b348015620001b057600080fd5b50620001bb60035481565b60405190815260200162000146565b348015620001d757600080fd5b506000546001600160a01b031662000132565b348015620001f757600080fd5b50620000d5620002093660046200147f565b620009e6565b3480156200021c57600080fd5b50620000d562000a9f565b3480156200023457600080fd5b50600254620001bb565b3480156200024b57600080fd5b50620000d56200025d366004620011f5565b62000bbd565b3480156200027057600080fd5b50620000d56200028236600462001500565b62000c48565b3480156200029557600080fd5b50620001bb620002a736600462001527565b62000d26565b6000546001600160a01b03163314620002e35760405162461bcd60e51b8152600401620002da9062001556565b60405180910390fd5b600480546001600160a01b03199081166001600160a01b0398891617909155600580548216968816969096179095556006805486169487169490941790935560078054851692861692909217909155600880548416918516919091179055600980549092169216919091179055565b6000546001600160a01b031633146200037f5760405162461bcd60e51b8152600401620002da9062001556565b600355565b6000546001600160a01b031633141580620003aa57506004546001600160a01b03163314155b80620003c157506005546001600160a01b03163314155b80620003d857506006546001600160a01b03163314155b15620007d05760007f00000000000000000000000000000000000000000000000000000000000000006001600160a01b031663ad5c46486040518163ffffffff1660e01b8152600401602060405180830381865afa1580156200043f573d6000803e3d6000fd5b505050506040513d601f19601f820116820180604052508101906200046591906200158b565b6001600160a01b03168a6001600160a01b0316146200052b5760006200048e8b60035462000d26565b6040516323b872dd60e01b8152336004820152306024820152604481018290529091506001600160a01b038c16906323b872dd906064016020604051808303816000875af1158015620004e5573d6000803e3d6000fd5b505050506040513d601f19601f820116820180604052508101906200050b9190620015ab565b6200051557600080fd5b620005218b8262000def565b479150506200056e565b6003543410156200056b5760405162461bcd60e51b81526020600482015260096024820152686c6f772076616c756560b81b6044820152606401620002da565b50345b6004546009546001600160a01b03909116906108fc906064906200059e908590600160a01b900460ff16620015e5565b620005aa919062001607565b6040518115909202916000818181858888f19350505050158015620005d3573d6000803e3d6000fd5b506005546009546001600160a01b03909116906108fc9060649062000604908590600160a81b900460ff16620015e5565b62000610919062001607565b6040518115909202916000818181858888f1935050505015801562000639573d6000803e3d6000fd5b506006546009546001600160a01b03909116906108fc906064906200066a908590600160b01b900460ff16620015e5565b62000676919062001607565b6040518115909202916000818181858888f193505050501580156200069f573d6000803e3d6000fd5b506007546009546001600160a01b03909116906108fc90606490620006d0908590600160b81b900460ff16620015e5565b620006dc919062001607565b6040518115909202916000818181858888f1935050505015801562000705573d6000803e3d6000fd5b506008546009546001600160a01b03909116906108fc9060649062000736908590600160c01b900460ff16620015e5565b62000742919062001607565b6040518115909202916000818181858888f193505050501580156200076b573d6000803e3d6000fd5b506009546001600160a01b038116906108fc9060649062000798908590600160c81b900460ff16620015e5565b620007a4919062001607565b6040518115909202916000818181858888f19350505050158015620007cd573d6000803e3d6000fd5b50505b6000888787868887600581518110620007ed57620007ed6200162a565b6020026020010151886006815181106200080b576200080b6200162a565b60200260200101518e8960405162000823906200112d565b620008379998979695949392919062001690565b604051809103906000f08015801562000854573d6000803e3d6000fd5b509050806001600160a01b031663f6a3c9a9846000815181106200087c576200087c6200162a565b6020026020010151856001815181106200089a576200089a6200162a565b602002602001015186600281518110620008b857620008b86200162a565b602002602001015187600381518110620008d657620008d66200162a565b602002602001015188600481518110620008f457620008f46200162a565b60209081029190910101516040516001600160e01b031960e088901b16815260ff9586166004820152938516602485015291841660448401528316606483015291909116608482015260a401600060405180830381600087803b1580156200095b57600080fd5b505af115801562000970573d6000803e3d6000fd5b5050505050505050505050505050565b6000546001600160a01b03163314620009ad5760405162461bcd60e51b8152600401620002da9062001556565b600080546040516001600160a01b039091169060008051602062005bd5833981519152908390a3600080546001600160a01b0319169055565b6000546001600160a01b0316331462000a135760405162461bcd60e51b8152600401620002da9062001556565b6009805461ffff60a01b1916600160a01b60ff9889160260ff60a81b191617600160a81b968816969096029590951761ffff60b01b1916600160b01b9487169490940260ff60b81b191693909317600160b81b928616929092029190911761ffff60c01b1916600160c01b9185169190910260ff60c81b191617600160c81b9190931602919091179055565b6001546001600160a01b0316331462000b1a5760405162461bcd60e51b815260206004820152603660248201527f596f7520646f6e27742068617665207065726d697373696f6e20746f20756e6c6044820152751bd8dac81d1a19481d1bdad95b8818dbdb9d1c9858dd60521b6064820152608401620002da565b600254421162000b6d5760405162461bcd60e51b815260206004820152601f60248201527f436f6e7472616374206973206c6f636b656420756e74696c20372064617973006044820152606401620002da565b600154600080546040516001600160a01b03938416939091169160008051602062005bd583398151915291a3600154600080546001600160a01b0319166001600160a01b03909216919091179055565b6000546001600160a01b0316331462000bea5760405162461bcd60e51b8152600401620002da9062001556565b60008054600180546001600160a01b03199081166001600160a01b0384161790915516905562000c1b81426200170d565b600255600080546040516001600160a01b039091169060008051602062005bd5833981519152908390a350565b6000546001600160a01b0316331462000c755760405162461bcd60e51b8152600401620002da9062001556565b6001600160a01b03811662000cdc5760405162461bcd60e51b815260206004820152602660248201527f4f776e61626c653a206e6577206f776e657220697320746865207a65726f206160448201526564647265737360d01b6064820152608401620002da565b600080546040516001600160a01b038085169392169160008051602062005bd583398151915291a3600080546001600160a01b0319166001600160a01b0392909216919091179055565b60007f00000000000000000000000000000000000000000000000000000000000000006001600160a01b0316631f00ca748362000d638662001018565b6040518363ffffffff1660e01b815260040162000d829291906200176e565b600060405180830381865afa15801562000da0573d6000803e3d6000fd5b505050506040513d6000823e601f3d908101601f1916820160405262000dca919081019062001791565b60008151811062000ddf5762000ddf6200162a565b6020026020010151905092915050565b604080516002808252606082018352600092602083019080368337019050509050828160008151811062000e275762000e276200162a565b60200260200101906001600160a01b031690816001600160a01b0316815250507f00000000000000000000000000000000000000000000000000000000000000006001600160a01b031663ad5c46486040518163ffffffff1660e01b8152600401602060405180830381865afa15801562000ea6573d6000803e3d6000fd5b505050506040513d601f19601f8201168201806040525081019062000ecc91906200158b565b8160018151811062000ee25762000ee26200162a565b6001600160a01b03928316602091820292909201015260405163095ea7b360e01b81527f000000000000000000000000000000000000000000000000000000000000000082166004820152602481018490529084169063095ea7b3906044016020604051808303816000875af115801562000f61573d6000803e3d6000fd5b505050506040513d601f19601f8201168201806040525081019062000f879190620015ab565b5060405163791ac94760e01b81526001600160a01b037f0000000000000000000000000000000000000000000000000000000000000000169063791ac9479062000fdf9085906000908690309042906004016200182b565b600060405180830381600087803b15801562000ffa57600080fd5b505af11580156200100f573d6000803e3d6000fd5b50505050505050565b6040805160028082526060808301845292600092919060208301908036833701905050905082816000815181106200105457620010546200162a565b60200260200101906001600160a01b031690816001600160a01b0316815250507f00000000000000000000000000000000000000000000000000000000000000006001600160a01b031663ad5c46486040518163ffffffff1660e01b8152600401602060405180830381865afa158015620010d3573d6000803e3d6000fd5b505050506040513d601f19601f82011682018060405250810190620010f991906200158b565b816001815181106200110f576200110f6200162a565b6001600160a01b039092166020928302919091019091015292915050565b61436b806200186a83390190565b6001600160a01b03811681146200115157600080fd5b50565b803562001161816200113b565b919050565b60008060008060008060c087890312156200118057600080fd5b86356200118d816200113b565b955060208701356200119f816200113b565b94506040870135620011b1816200113b565b93506060870135620011c3816200113b565b92506080870135620011d5816200113b565b915060a0870135620011e7816200113b565b809150509295509295509295565b6000602082840312156200120857600080fd5b5035919050565b634e487b7160e01b600052604160045260246000fd5b604051601f8201601f1916810167ffffffffffffffff811182821017156200125157620012516200120f565b604052919050565b600082601f8301126200126b57600080fd5b813567ffffffffffffffff8111156200128857620012886200120f565b6200129d601f8201601f191660200162001225565b818152846020838601011115620012b357600080fd5b816020850160208301376000918101602001919091529392505050565b803560ff811681146200116157600080fd5b600067ffffffffffffffff821115620012ff57620012ff6200120f565b5060051b60200190565b600082601f8301126200131b57600080fd5b81356020620013346200132e83620012e2565b62001225565b82815260059290921b840181019181810190868411156200135457600080fd5b8286015b848110156200137a576200136c81620012d0565b835291830191830162001358565b509695505050505050565b60008060008060008060008060006101208a8c031215620013a557600080fd5b620013b08a62001154565b9850620013c060208b0162001154565b9750620013d060408b0162001154565b965060608a013567ffffffffffffffff80821115620013ee57600080fd5b620013fc8d838e0162001259565b975060808c01359150808211156200141357600080fd5b620014218d838e0162001259565b965060a08c013595506200143860c08d01620012d0565b945060e08c01359150808211156200144f57600080fd5b506200145e8c828d0162001309565b925050620014706101008b0162001154565b90509295985092959850929598565b60008060008060008060c087890312156200149957600080fd5b620014a487620012d0565b9550620014b460208801620012d0565b9450620014c460408801620012d0565b9350620014d460608801620012d0565b9250620014e460808801620012d0565b9150620014f460a08801620012d0565b90509295509295509295565b6000602082840312156200151357600080fd5b813562001520816200113b565b9392505050565b600080604083850312156200153b57600080fd5b823562001548816200113b565b946020939093013593505050565b6020808252818101527f4f776e61626c653a2063616c6c6572206973206e6f7420746865206f776e6572604082015260600190565b6000602082840312156200159e57600080fd5b815162001520816200113b565b600060208284031215620015be57600080fd5b815180151581146200152057600080fd5b634e487b7160e01b600052601160045260246000fd5b6000816000190483118215151615620016025762001602620015cf565b500290565b6000826200162557634e487b7160e01b600052601260045260246000fd5b500490565b634e487b7160e01b600052603260045260246000fd5b6000815180845260005b8181101562001668576020818501810151868301820152016200164a565b818111156200167b576000602083870101525b50601f01601f19169290920160200192915050565b6001600160a01b038a8116825261012060208301819052600091620016b88483018d62001640565b91508382036040850152620016ce828c62001640565b60ff9a8b166060860152608085019990995296891660a084015250509290951660c0830152821660e08201529216610100909201919091529392505050565b60008219821115620017235762001723620015cf565b500190565b600081518084526020808501945080840160005b83811015620017635781516001600160a01b0316875295820195908201906001016200173c565b509495945050505050565b82815260406020820152600062001789604083018462001728565b949350505050565b60006020808385031215620017a557600080fd5b825167ffffffffffffffff811115620017bd57600080fd5b8301601f81018513620017cf57600080fd5b8051620017e06200132e82620012e2565b81815260059190911b820183019083810190878311156200180057600080fd5b928401925b82841015620018205783518252928401929084019062001805565b979650505050505050565b85815284602082015260a0604082015260006200184c60a083018662001728565b6001600160a01b039490941660608301525060800152939250505056fe60c0604052600380546001600160b81b03191676010114000000000000000000000000000000000000dead179055600f805461ffff60481b1963ffffffff60281b1964ffffffff0019831664ffff0000001960ff61010061ff00198716048116620100000291821692909217630100000063ffffff001990961663ff000000199290921691909117949094048116640100000000029390931790811661ffff60381b196501000000000060ff60281b1984160485166601000000000000029081169190911767010000000000000062ffffff60281b1990931660ff60381b199290921691909117919091048316680100000000000000000217908116690100000000000000000060ff60481b1992909216919091049091166a0100000000000000000000021790556010805461ffff60a81b191661010160a81b179055670de0b6b3a76400006014553480156200015557600080fd5b506040516200436b3803806200436b8339810160408190526200017891620007c0565b600080546001600160a01b031916339081178255604051909182917f8be0079c531659141344cd1fd0a4f28419497f9722a3daafe3b4186f6b6457e0908290a3508751620001ce90600d9060208b019062000603565b508651620001e490600e9060208a019062000603565b50600f805460ff191660ff8816179055600a8590556200020785600019620008bf565b6200021590600019620008ec565b600b819055601080546001600160a01b0319166001600160a01b03848116919091179091558a8116600090815260046020908152604090912092909255600f8054600160581b600160f81b0319166b01000000000000000000000092861692909202919091179055600a54620002b591606491620002a19160ff891690620004e9811b62001c5517901c565b6200057d60201b62001cd41790919060201c565b601181905550620002e06064620002a18560ff16600a54620004e960201b62001c551790919060201c565b601255620003036103e8620002a1876001620004e9602090811b62001c5517901c565b6013556010546040805163c45a015560e01b815290516001600160a01b0390921691829163c45a01559160048083019260209291908290030181865afa15801562000352573d6000803e3d6000fd5b505050506040513d601f19601f8201168201806040525081019062000378919062000906565b6001600160a01b031663c9c6539630836001600160a01b031663ad5c46486040518163ffffffff1660e01b8152600401602060405180830381865afa158015620003c6573d6000803e3d6000fd5b505050506040513d601f19601f82011682018060405250810190620003ec919062000906565b6040516001600160e01b031960e085901b1681526001600160a01b039283166004820152911660248201526044016020604051808303816000875af11580156200043a573d6000803e3d6000fd5b505050506040513d601f19601f8201168201806040525081019062000460919062000906565b6001600160a01b0390811660a0528181166080528a1660008181526007602090815260408083208054600160ff19918216811790925530855282852080549091169091179055600a5490519081527fddf252ad1be2c89b69c2b068fc378daa952ba7f163c4a11628f55a4df523b3ef910160405180910390a350505050505050505050620009d1565b600082620004fa5750600062000577565b600062000508838562000926565b90508262000517858362000948565b14620005745760405162461bcd60e51b815260206004820152602160248201527f536166654d6174683a206d756c7469706c69636174696f6e206f766572666c6f6044820152607760f81b60648201526084015b60405180910390fd5b90505b92915050565b60006200057483836040518060400160405280601a81526020017f536166654d6174683a206469766973696f6e206279207a65726f000000000000815250620005c760201b60201c565b60008183620005eb5760405162461bcd60e51b81526004016200056b91906200095f565b506000620005fa848662000948565b95945050505050565b828054620006119062000994565b90600052602060002090601f01602090048101928262000635576000855562000680565b82601f106200065057805160ff191683800117855562000680565b8280016001018555821562000680579182015b828111156200068057825182559160200191906001019062000663565b506200068e92915062000692565b5090565b5b808211156200068e576000815560010162000693565b6001600160a01b0381168114620006bf57600080fd5b50565b8051620006cf81620006a9565b919050565b634e487b7160e01b600052604160045260246000fd5b60005b8381101562000707578181015183820152602001620006ed565b8381111562000717576000848401525b50505050565b600082601f8301126200072f57600080fd5b81516001600160401b03808211156200074c576200074c620006d4565b604051601f8301601f19908116603f01168101908282118183101715620007775762000777620006d4565b816040528381528660208588010111156200079157600080fd5b620007a4846020830160208901620006ea565b9695505050505050565b805160ff81168114620006cf57600080fd5b60008060008060008060008060006101208a8c031215620007e057600080fd5b8951620007ed81620006a9565b60208b01519099506001600160401b03808211156200080b57600080fd5b620008198d838e016200071d565b995060408c01519150808211156200083057600080fd5b506200083f8c828d016200071d565b9750506200085060608b01620007ae565b955060808a015194506200086760a08b01620007ae565b93506200087760c08b01620007ae565b925060e08a01516200088981620006a9565b91506200089a6101008b01620006c2565b90509295985092959850929598565b634e487b7160e01b600052601260045260246000fd5b600082620008d157620008d1620008a9565b500690565b634e487b7160e01b600052601160045260246000fd5b600082821015620009015762000901620008d6565b500390565b6000602082840312156200091957600080fd5b81516200057481620006a9565b6000816000190483118215151615620009435762000943620008d6565b500290565b6000826200095a576200095a620008a9565b500490565b602081526000825180602084015262000980816040850160208701620006ea565b601f01601f19169190910160400192915050565b600181811c90821680620009a957607f821691505b60208210811415620009cb57634e487b7160e01b600052602260045260246000fd5b50919050565b60805160a05161393562000a366000396000818161061201528181611f79015261204001526000818161048c01528181612b3301528181612bec01528181612c2801528181612c9a01528181612d0201528181612d9d0152612e7f01526139356000f3fe60806040526004361061036f5760003560e01c806382d2a4bb116101c6578063c49b9a80116100f7578063ea2f0b3711610095578063f25f4b561161006f578063f25f4b5614610a3a578063f2fde38b14610a61578063f6a3c9a914610a81578063f827b6b414610aa157600080fd5b8063ea2f0b37146109d9578063eb2a547f146109f9578063efa0880614610a1a57600080fd5b8063d543dbeb116100d1578063d543dbeb14610933578063d9e6646014610953578063dd46706414610973578063dd62ed3e1461099357600080fd5b8063c49b9a80146108e8578063d12a768814610908578063d28d88521461091e57600080fd5b8063a69df4b511610164578063b09f12661161013e578063b09f126614610888578063b6c523241461089d578063bdc653ef146108b2578063c0b0fda2146108c757600080fd5b8063a69df4b51461083d578063a9059cbb14610852578063af465a271461087257600080fd5b806390d49b9d116101a057806390d49b9d146107c757806395d89b41146107e75780639ede5ded146107fc578063a457c2d71461081d57600080fd5b806382d2a4bb1461075057806388f82020146107705780638da5cb5b146107a957600080fd5b806342966c68116102a057806354ce65781161023e57806370a082311161021857806370a08231146106e5578063715018a6146107055780637d1db4a51461071a57806382bf293c1461073057600080fd5b806354ce65781461068d5780636bc87c3a146106ae5780636c0a24eb146106cf57600080fd5b80634a74bb021161027a5780634a74bb02146105df578063521432901461060057806352390c02146106345780635342acb41461065457600080fd5b806342966c681461057f578063437823ec1461059f5780634549b039146105bf57600080fd5b80632d6abf871161030d5780633685d419116102e75780633685d419146104fe57806339509351146105205780633b124fe7146105405780633bd5d1731461055f57600080fd5b80632d6abf871461047a5780632d838119146104c6578063313ce567146104e657600080fd5b806313114a9d1161034957806313114a9d1461040557806318160ddd1461042457806319de79ab1461043957806323b872dd1461045a57600080fd5b806301f59d161461037b57806306fdde03146103b3578063095ea7b3146103d557600080fd5b3661037657005b600080fd5b34801561038757600080fd5b5060035461039c90600160a01b900460ff1681565b60405160ff90911681526020015b60405180910390f35b3480156103bf57600080fd5b506103c8610ac2565b6040516103aa91906133ff565b3480156103e157600080fd5b506103f56103f036600461346c565b610b54565b60405190151581526020016103aa565b34801561041157600080fd5b50600c545b6040519081526020016103aa565b34801561043057600080fd5b50600a54610416565b34801561044557600080fd5b50600f5461039c90600160481b900460ff1681565b34801561046657600080fd5b506103f5610475366004613498565b610b6b565b34801561048657600080fd5b506104ae7f000000000000000000000000000000000000000000000000000000000000000081565b6040516001600160a01b0390911681526020016103aa565b3480156104d257600080fd5b506104166104e13660046134d9565b610bd4565b3480156104f257600080fd5b50600f5460ff1661039c565b34801561050a57600080fd5b5061051e6105193660046134f2565b610c4a565b005b34801561052c57600080fd5b506103f561053b36600461346c565b610df4565b34801561054c57600080fd5b50600f5461039c90610100900460ff1681565b34801561056b57600080fd5b5061051e61057a3660046134d9565b610e2a565b34801561058b57600080fd5b5061051e61059a3660046134d9565b610f14565b3480156105ab57600080fd5b5061051e6105ba3660046134f2565b610fd3565b3480156105cb57600080fd5b506104166105da36600461351d565b611021565b3480156105eb57600080fd5b506010546103f590600160a81b900460ff1681565b34801561060c57600080fd5b506104ae7f000000000000000000000000000000000000000000000000000000000000000081565b34801561064057600080fd5b5061051e61064f3660046134f2565b6110ae565b34801561066057600080fd5b506103f561066f3660046134f2565b6001600160a01b031660009081526007602052604090205460ff1690565b34801561069957600080fd5b50600f5461039c90600160381b900460ff1681565b3480156106ba57600080fd5b50600f5461039c906301000000900460ff1681565b3480156106db57600080fd5b5061041660125481565b3480156106f157600080fd5b506104166107003660046134f2565b611211565b34801561071157600080fd5b5061051e611270565b34801561072657600080fd5b5061041660115481565b34801561073c57600080fd5b5061051e61074b3660046134d9565b6112d2565b34801561075c57600080fd5b5061051e61076b3660046134d9565b611371565b34801561077c57600080fd5b506103f561078b3660046134f2565b6001600160a01b031660009081526008602052604090205460ff1690565b3480156107b557600080fd5b506000546001600160a01b03166104ae565b3480156107d357600080fd5b5061051e6107e23660046134f2565b6113b3565b3480156107f357600080fd5b506103c8611463565b34801561080857600080fd5b506010546103f590600160b01b900460ff1681565b34801561082957600080fd5b506103f561083836600461346c565b611472565b34801561084957600080fd5b5061051e6114c1565b34801561085e57600080fd5b506103f561086d36600461346c565b6115da565b34801561087e57600080fd5b50610416600a5481565b34801561089457600080fd5b506103c86115e7565b3480156108a957600080fd5b50600254610416565b3480156108be57600080fd5b50601454610416565b3480156108d357600080fd5b50600f5461039c90600160281b900460ff1681565b3480156108f457600080fd5b5061051e61090336600461354d565b611675565b34801561091457600080fd5b5061041660135481565b34801561092a57600080fd5b506103c86116f7565b34801561093f57600080fd5b5061051e61094e3660046134d9565b611704565b34801561095f57600080fd5b506010546104ae906001600160a01b031681565b34801561097f57600080fd5b5061051e61098e3660046134d9565b61179d565b34801561099f57600080fd5b506104166109ae36600461356a565b6001600160a01b03918216600090815260066020908152604080832093909416825291909152205490565b3480156109e557600080fd5b5061051e6109f43660046134f2565b611822565b348015610a0557600080fd5b5060035461039c90600160a81b900460ff1681565b348015610a2657600080fd5b5061051e610a3536600461346c565b61186d565b348015610a4657600080fd5b50600f546104ae90600160581b90046001600160a01b031681565b348015610a6d57600080fd5b5061051e610a7c3660046134f2565b61196c565b348015610a8d57600080fd5b5061051e610a9c3660046135ae565b611a44565b348015610aad57600080fd5b5060035461039c90600160b01b900460ff1681565b6060600d8054610ad190613613565b80601f0160208091040260200160405190810160405280929190818152602001828054610afd90613613565b8015610b4a5780601f10610b1f57610100808354040283529160200191610b4a565b820191906000526020600020905b815481529060010190602001808311610b2d57829003601f168201915b5050505050905090565b6000610b61338484611d16565b5060015b92915050565b6000610b78848484611df5565b610bca8433610bc585604051806060016040528060288152602001613893602891396001600160a01b038a1660009081526006602090815260408083203384529091529020549190612148565b611d16565b5060019392505050565b6000600b54821115610c2d5760405162461bcd60e51b815260206004820152601e60248201527f416d74206d757374206265206c657373207468616e20746f74207265666c000060448201526064015b60405180910390fd5b6000610c37612182565b9050610c438382611cd4565b9392505050565b6000546001600160a01b03163314610c745760405162461bcd60e51b8152600401610c249061364e565b6001600160a01b03811660009081526008602052604090205460ff16610ccf5760405162461bcd60e51b815260206004820152601060248201526f105b1c9958591e48195e18db1d59195960821b6044820152606401610c24565b60005b600954811015610df057816001600160a01b031660098281548110610cf957610cf9613683565b6000918252602090912001546001600160a01b03161415610dde5760098054610d24906001906136af565b81548110610d3457610d34613683565b600091825260209091200154600980546001600160a01b039092169183908110610d6057610d60613683565b600091825260208083209190910180546001600160a01b0319166001600160a01b039485161790559184168152600582526040808220829055600890925220805460ff191690556009805480610db857610db86136c6565b600082815260209020810160001990810180546001600160a01b03191690550190555050565b80610de8816136dc565b915050610cd2565b5050565b3360008181526006602090815260408083206001600160a01b03871684529091528120549091610b61918590610bc590866121a5565b3360008181526008602052604090205460ff1615610e9f5760405162461bcd60e51b815260206004820152602c60248201527f4578636c75646564206164647265737365732063616e6e6f742063616c6c207460448201526b3434b990333ab731ba34b7b760a11b6064820152608401610c24565b6000610eaa83612204565b505050506001600160a01b038416600090815260046020526040902054919250610ed691905082612253565b6001600160a01b038316600090815260046020526040902055600b54610efc9082612253565b600b55600c54610f0c90846121a5565b600c55505050565b33600090815260046020526040902054811115610f5c5760405162461bcd60e51b8152602060048201526006602482015265195e18d9595960d21b6044820152606401610c24565b33600090815260046020526040902054610f779082906136af565b33600090815260046020526040902055600a54610f959082906136af565b600a5560405181815260009033907fddf252ad1be2c89b69c2b068fc378daa952ba7f163c4a11628f55a4df523b3ef9060200160405180910390a350565b6000546001600160a01b03163314610ffd5760405162461bcd60e51b8152600401610c249061364e565b6001600160a01b03166000908152600760205260409020805460ff19166001179055565b6000600a548311156110755760405162461bcd60e51b815260206004820152601c60248201527f416d74206d757374206265206c657373207468616e20737570706c79000000006044820152606401610c24565b8161109457600061108584612204565b50939550610b65945050505050565b600061109f84612204565b50929550610b65945050505050565b6000546001600160a01b031633146110d85760405162461bcd60e51b8152600401610c249061364e565b6001600160a01b03811660009081526008602052604090205460ff16156111515760405162461bcd60e51b815260206004820152602760248201527f4163636f756e7420697320616c7265616479206578636c756465642066726f6d604482015266081c995dd85c9960ca1b6064820152608401610c24565b6001600160a01b038116600090815260046020526040902054156111ab576001600160a01b03811660009081526004602052604090205461119190610bd4565b6001600160a01b0382166000908152600560205260409020555b6001600160a01b03166000818152600860205260408120805460ff191660019081179091556009805491820181559091527f6e1540171b6c0c960b71a7020d9f60077f6af931a8bbf590da0223dacf75c7af0180546001600160a01b0319169091179055565b6001600160a01b03811660009081526008602052604081205460ff161561124e57506001600160a01b031660009081526005602052604090205490565b6001600160a01b038216600090815260046020526040902054610b6590610bd4565b6000546001600160a01b0316331461129a5760405162461bcd60e51b8152600401610c249061364e565b600080546040516001600160a01b03909116906000805160206138bb833981519152908390a3600080546001600160a01b0319169055565b6000546001600160a01b031633146112fc5760405162461bcd60e51b8152600401610c249061364e565b600354600160b01b900460ff168110801590611319575060648111155b61134b5760405162461bcd60e51b815260206004820152600360248201526232b93960e91b6044820152606401610c24565b61136b606461136583600a54611c5590919063ffffffff16565b90611cd4565b60125550565b6000546001600160a01b0316331461139b5760405162461bcd60e51b8152600401610c249061364e565b6113ad81670de0b6b3a76400006136f7565b60145550565b6000546001600160a01b031633146113dd5760405162461bcd60e51b8152600401610c249061364e565b6001600160a01b0381166114225760405162461bcd60e51b815260206004820152600c60248201526b5a45524f204144445245535360a01b6044820152606401610c24565b600f80546001600160a01b03909216600160581b027fff0000000000000000000000000000000000000000ffffffffffffffffffffff909216919091179055565b6060600e8054610ad190613613565b6000610b613384610bc5856040518060600160405280602581526020016138db602591393360009081526006602090815260408083206001600160a01b038d1684529091529020549190612148565b6001546001600160a01b0316331461153a5760405162461bcd60e51b815260206004820152603660248201527f596f7520646f6e27742068617665207065726d697373696f6e20746f20756e6c6044820152751bd8dac81d1a19481d1bdad95b8818dbdb9d1c9858dd60521b6064820152608401610c24565b600254421161158b5760405162461bcd60e51b815260206004820152601f60248201527f436f6e7472616374206973206c6f636b656420756e74696c20372064617973006044820152606401610c24565b600154600080546040516001600160a01b0393841693909116916000805160206138bb83398151915291a3600154600080546001600160a01b0319166001600160a01b03909216919091179055565b6000610b61338484611df5565b600e80546115f490613613565b80601f016020809104026020016040519081016040528092919081815260200182805461162090613613565b801561166d5780601f106116425761010080835404028352916020019161166d565b820191906000526020600020905b81548152906001019060200180831161165057829003601f168201915b505050505081565b6000546001600160a01b0316331461169f5760405162461bcd60e51b8152600401610c249061364e565b60108054821515600160a81b0260ff60a81b199091161790556040517f53726dfcaf90650aa7eb35524f4d3220f07413c8d6cb404cc8c18bf5591bc159906116ec90831515815260200190565b60405180910390a150565b600d80546115f490613613565b6000546001600160a01b0316331461172e5760405162461bcd60e51b8152600401610c249061364e565b600354600160a81b900460ff16811080159061174b575060648111155b61177d5760405162461bcd60e51b815260206004820152600360248201526232b93960e91b6044820152606401610c24565b611797606461136583600a54611c5590919063ffffffff16565b60115550565b6000546001600160a01b031633146117c75760405162461bcd60e51b8152600401610c249061364e565b60008054600180546001600160a01b03199081166001600160a01b038416179091551690556117f68142613716565b600255600080546040516001600160a01b03909116906000805160206138bb833981519152908390a350565b6000546001600160a01b0316331461184c5760405162461bcd60e51b8152600401610c249061364e565b6001600160a01b03166000908152600760205260409020805460ff19169055565b6000546001600160a01b031633146118975760405162461bcd60e51b8152600401610c249061364e565b6001600160a01b0382163014156118d55760405162461bcd60e51b8152602060048201526002602482015261537760f01b6044820152606401610c24565b816001600160a01b031663a9059cbb6118f66000546001600160a01b031690565b6040516001600160e01b031960e084901b1681526001600160a01b039091166004820152602481018490526044016020604051808303816000875af1158015611943573d6000803e3d6000fd5b505050506040513d601f19601f82011682018060405250810190611967919061372e565b505050565b6000546001600160a01b031633146119965760405162461bcd60e51b8152600401610c249061364e565b6001600160a01b0381166119fb5760405162461bcd60e51b815260206004820152602660248201527f4f776e61626c653a206e6577206f776e657220697320746865207a65726f206160448201526564647265737360d01b6064820152608401610c24565b600080546040516001600160a01b03808516939216916000805160206138bb83398151915291a3600080546001600160a01b0319166001600160a01b0392909216919091179055565b6000546001600160a01b03163314611a6e5760405162461bcd60e51b8152600401610c249061364e565b60035460ff600160a01b90910481169086161115611ab75760405162461bcd60e51b81526020600482015260066024820152652a231032b93960d11b6044820152606401610c24565b60035460ff600160a01b90910481169085161115611b005760405162461bcd60e51b815260206004820152600660248201526526231032b93960d11b6044820152606401610c24565b60035460ff600160a01b90910481169084161115611b495760405162461bcd60e51b815260206004820152600660248201526521231032b93960d11b6044820152606401610c24565b60035460ff600160a01b90910481169083161115611b925760405162461bcd60e51b81526020600482015260066024820152652ba31032b93960d11b6044820152606401610c24565b60035460ff600160a01b90910481169082161115611bdc5760405162461bcd60e51b81526020600482015260076024820152662121231032b93960c91b6044820152606401610c24565b600f805463ff00ff00191661010060ff9788160263ff0000001916176301000000958716959095029490941769ff000000ff00000000001916600160281b9386169390930260ff60481b191692909217600160481b928516929092029190911760ff60381b1916600160381b9190931602919091179055565b600082611c6457506000610b65565b6000611c7083856136f7565b905082611c7d858361374b565b14610c435760405162461bcd60e51b815260206004820152602160248201527f536166654d6174683a206d756c7469706c69636174696f6e206f766572666c6f6044820152607760f81b6064820152608401610c24565b6000610c4383836040518060400160405280601a81526020017f536166654d6174683a206469766973696f6e206279207a65726f000000000000815250612295565b6001600160a01b038316611d555760405162461bcd60e51b8152602060048201526006602482015265066726f6d20360d41b6044820152606401610c24565b6001600160a01b038216611d945760405162461bcd60e51b8152600401610c24906020808252600490820152630746f20360e41b604082015260600190565b6001600160a01b0383811660008181526006602090815260408083209487168084529482529182902085905590518481527f8c5be1e5ebec7d5bd14f71427d1e84f3dd0314c0f7b2291e5b200ac8c7c3b925910160405180910390a3505050565b6001600160a01b038316611e345760405162461bcd60e51b8152602060048201526006602482015265066726f6d20360d41b6044820152606401610c24565b6001600160a01b038216611e735760405162461bcd60e51b8152600401610c24906020808252600490820152630746f20360e41b604082015260600190565b60008111611eab5760405162461bcd60e51b8152602060048201526005602482015264061203d20360dc1b6044820152606401610c24565b6000546001600160a01b03848116911614801590611ed757506000546001600160a01b03838116911614155b15611f1657601154811115611f165760405162461bcd60e51b81526020600482015260056024820152640dac2f0a8b60db1b6044820152606401610c24565b6000546001600160a01b03848116911614801590611f4257506000546001600160a01b03838116911614155b8015611f5657506001600160a01b03821615155b8015611f7057506003546001600160a01b03838116911614155b8015611fae57507f00000000000000000000000000000000000000000000000000000000000000006001600160a01b0316826001600160a01b031614155b15612006576000611fbe83611211565b601254909150611fce8383613716565b11156120045760405162461bcd60e51b81526020600482015260056024820152646d6178574160d81b6044820152606401610c24565b505b600061201130611211565b9050601154811061202157506011545b6013546010549082101590600160a01b900460ff1615801561207457507f00000000000000000000000000000000000000000000000000000000000000006001600160a01b0316846001600160a01b0316145b80156120895750601054600160a81b900460ff165b156120e95780156120a25760135491506120a2826122c3565b600f54600160481b900460ff16156120e95747670de0b6b3a76400008111156120e7576014548111156120d457506014545b6120e76120e2826064611cd4565b6124e5565b505b6001600160a01b03851660009081526007602052604090205460019060ff168061212b57506001600160a01b03851660009081526007602052604090205460ff165b15612134575060005b61214086868684612517565b505050505050565b6000818484111561216c5760405162461bcd60e51b8152600401610c2491906133ff565b50600061217984866136af565b95945050505050565b600080600061218f612738565b909250905061219e8282611cd4565b9250505090565b6000806121b28385613716565b905083811015610c435760405162461bcd60e51b815260206004820152601b60248201527f536166654d6174683a206164646974696f6e206f766572666c6f7700000000006044820152606401610c24565b600080600080600080600080600061221b8a6128ba565b92509250925060008060006122398d8686612234612182565b6128fc565b919f909e50909c50959a5093985091965092945050505050565b6000610c4383836040518060400160405280601e81526020017f536166654d6174683a207375627472616374696f6e206f766572666c6f770000815250612148565b600081836122b65760405162461bcd60e51b8152600401610c2491906133ff565b506000612179848661374b565b6010805460ff60a01b1916600160a01b179055600f54600090600160481b810460ff908116916301000000810482169161230f91600160381b8104821691600160281b9091041661376d565b612319919061376d565b612323919061376d565b600f549091506000908190600160281b900460ff161561238257600f546123649060ff600160281b90910481169061235e9087908716611cd4565b90611c55565b60035490925061237f9030906001600160a01b03168461294c565b50805b600f54600160381b900460ff16156123e457600f546123b59060ff600160381b90910481169061235e9087908716611cd4565b91506123d730600f600b9054906101000a90046001600160a01b03168461294c565b6123e18282613716565b90505b600f54600160481b900460ff161561242f57600f546124179060ff600160481b90910481169061235e9087908716611cd4565b915061242282612adc565b61242c8282613716565b90505b600f546301000000900460ff16156124d25761244b8482612253565b9350600061245a856002611cd4565b905060006124688683612253565b90504761247483612adc565b60006124804783612253565b905061248c8382612c94565b60408051858152602081018390529081018490527f17bbfb9a6069321b6ded73bd96327c9e6b7212a5cd51ff219cd61370acafb5619060600160405180910390a1505050505b50506010805460ff60a01b191690555050565b6010805460ff60a01b1916600160a01b17905580156125075761250781612d7a565b506010805460ff60a01b19169055565b8061252457612524612f10565b6001600160a01b03841660009081526008602052604090205460ff16801561256557506001600160a01b03831660009081526008602052604090205460ff16155b1561257a5761257584848461304c565b612678565b6001600160a01b03841660009081526008602052604090205460ff161580156125bb57506001600160a01b03831660009081526008602052604090205460ff165b156125cb57612575848484613172565b6001600160a01b03841660009081526008602052604090205460ff1615801561260d57506001600160a01b03831660009081526008602052604090205460ff16155b1561261d5761257584848461321b565b6001600160a01b03841660009081526008602052604090205460ff16801561265d57506001600160a01b03831660009081526008602052604090205460ff165b1561266d5761257584848461325f565b61267884848461321b565b8061273257600f805460ff60481b1967ff00ff00000000001963ff00ff0019831663ff0000001961010062010000860460ff908116919091029182169290921764010000000061ff00199096169091179490940481166301000000029390931790811660ff60381b19660100000000000083048516600160281b0290811691909117600160401b65ff000000000019909316909117919091048316600160381b0217908116600160501b909104909116600160481b021790555b50505050565b600b54600a546000918291825b60095481101561288a5782600460006009848154811061276757612767613683565b60009182526020808320909101546001600160a01b0316835282019290925260400190205411806127d257508160056000600984815481106127ab576127ab613683565b60009182526020808320909101546001600160a01b03168352820192909252604001902054115b156127e857600b54600a54945094505050509091565b61282e600460006009848154811061280257612802613683565b60009182526020808320909101546001600160a01b031683528201929092526040019020548490612253565b9250612876600560006009848154811061284a5761284a613683565b60009182526020808320909101546001600160a01b031683528201929092526040019020548390612253565b915080612882816136dc565b915050612745565b50600a54600b5461289a91611cd4565b8210156128b157600b54600a549350935050509091565b90939092509050565b6000806000806128c9856132d2565b905060006128d6866132f2565b905060006128ee826128e88986612253565b90612253565b979296509094509092505050565b600080808061290b8886611c55565b905060006129198887611c55565b905060006129278888611c55565b90506000612939826128e88686612253565b939b939a50919850919650505050505050565b6000612956612182565b905060006129648383611c55565b6001600160a01b03861660009081526004602052604090205490915061298a9082612253565b6001600160a01b0380871660009081526004602052604080822093909355908616815220546129b990826121a5565b6001600160a01b0380861660009081526004602090815260408083209490945591881681526008909152205460ff1615612a2a576001600160a01b038516600090815260056020526040902054612a109084612253565b6001600160a01b0386166000908152600560205260409020555b6001600160a01b03841660009081526008602052604090205460ff1615612a88576001600160a01b038416600090815260056020526040902054612a6e90846121a5565b6001600160a01b0385166000908152600560205260409020555b836001600160a01b0316856001600160a01b03167fddf252ad1be2c89b69c2b068fc378daa952ba7f163c4a11628f55a4df523b3ef85604051612acd91815260200190565b60405180910390a35050505050565b6040805160028082526060820183526000926020830190803683370190505090503081600081518110612b1157612b11613683565b60200260200101906001600160a01b031690816001600160a01b0316815250507f00000000000000000000000000000000000000000000000000000000000000006001600160a01b031663ad5c46486040518163ffffffff1660e01b8152600401602060405180830381865afa158015612b8f573d6000803e3d6000fd5b505050506040513d601f19601f82011682018060405250810190612bb39190613792565b81600181518110612bc657612bc6613683565b60200260200101906001600160a01b031690816001600160a01b031681525050612c11307f000000000000000000000000000000000000000000000000000000000000000084611d16565b60405163791ac94760e01b81526001600160a01b037f0000000000000000000000000000000000000000000000000000000000000000169063791ac94790612c669085906000908690309042906004016137f3565b600060405180830381600087803b158015612c8057600080fd5b505af1158015612140573d6000803e3d6000fd5b612cbf307f000000000000000000000000000000000000000000000000000000000000000084611d16565b60035460405163f305d71960e01b81523060048201526024810184905260006044820181905260648201526001600160a01b0391821660848201524260a48201527f00000000000000000000000000000000000000000000000000000000000000009091169063f305d71990839060c40160606040518083038185885af1158015612d4e573d6000803e3d6000fd5b50505050506040513d601f19601f82011682018060405250810190612d73919061382f565b5050505050565b6040805160028082526060820183526000926020830190803683370190505090507f00000000000000000000000000000000000000000000000000000000000000006001600160a01b031663ad5c46486040518163ffffffff1660e01b8152600401602060405180830381865afa158015612df9573d6000803e3d6000fd5b505050506040513d601f19601f82011682018060405250810190612e1d9190613792565b81600081518110612e3057612e30613683565b60200260200101906001600160a01b031690816001600160a01b0316815250503081600181518110612e6457612e64613683565b6001600160a01b0392831660209182029290920101526003547f000000000000000000000000000000000000000000000000000000000000000082169163b6f9de95918591600091869116612ebb4261012c6121a5565b6040518663ffffffff1660e01b8152600401612eda949392919061385d565b6000604051808303818588803b158015612ef357600080fd5b505af1158015612f07573d6000803e3d6000fd5b50505050505050565b600f54610100900460ff16158015612f325750600f546301000000900460ff16155b8015612f485750600f54600160281b900460ff16155b8015612f5e5750600f54600160381b900460ff16155b8015612f745750600f54600160481b900460ff16155b15612f7b57565b600f80546affff00ff00ff00ff00ff001968ff00ff0000000000001964ff00ff000019831664ff0000000019610100850460ff908116620100000291821692909217630100000062ff000019909616909117949094048116640100000000029390931790811668ff000000000000000019600160281b8304851666010000000000000290811691909117600160381b66ff00000000000019909316909117919091048316600160401b0217908116600160481b909104909116600160501b0269ff00ff00ff00ff00ff001916179055565b60008060008060008061305e87612204565b6001600160a01b038f16600090815260056020526040902054959b509399509197509550935091506130909088612253565b6001600160a01b038a166000908152600560209081526040808320939093556004905220546130bf9087612253565b6001600160a01b03808b1660009081526004602052604080822093909355908a16815220546130ee90866121a5565b6001600160a01b03891660009081526004602052604090205561311081613353565b61311a84836133db565b876001600160a01b0316896001600160a01b03167fddf252ad1be2c89b69c2b068fc378daa952ba7f163c4a11628f55a4df523b3ef8560405161315f91815260200190565b60405180910390a3505050505050505050565b60008060008060008061318487612204565b6001600160a01b038f16600090815260046020526040902054959b509399509197509550935091506131b69087612253565b6001600160a01b03808b16600090815260046020908152604080832094909455918b168152600590915220546131ec90846121a5565b6001600160a01b0389166000908152600560209081526040808320939093556004905220546130ee90866121a5565b60008060008060008061322d87612204565b6001600160a01b038f16600090815260046020526040902054959b509399509197509550935091506130bf9087612253565b60008060008060008061327187612204565b6001600160a01b038f16600090815260056020526040902054959b509399509197509550935091506132a39088612253565b6001600160a01b038a166000908152600560209081526040808320939093556004905220546131b69087612253565b600f54600090610b6590606490611365908590610100900460ff16611c55565b600f54600090610b65906064906113659060ff600160481b8204811691600160381b810482169161333591600160281b810482169163010000009091041661376d565b61333f919061376d565b613349919061376d565b859060ff16611c55565b600061335d612182565b9050600061336b8383611c55565b3060009081526004602052604090205490915061338890826121a5565b3060009081526004602090815260408083209390935560089052205460ff161561196757306000908152600560205260409020546133c690846121a5565b30600090815260056020526040902055505050565b600b546133e89083612253565b600b55600c546133f890826121a5565b600c555050565b600060208083528351808285015260005b8181101561342c57858101830151858201604001528201613410565b8181111561343e576000604083870101525b50601f01601f1916929092016040019392505050565b6001600160a01b038116811461346957600080fd5b50565b6000806040838503121561347f57600080fd5b823561348a81613454565b946020939093013593505050565b6000806000606084860312156134ad57600080fd5b83356134b881613454565b925060208401356134c881613454565b929592945050506040919091013590565b6000602082840312156134eb57600080fd5b5035919050565b60006020828403121561350457600080fd5b8135610c4381613454565b801515811461346957600080fd5b6000806040838503121561353057600080fd5b8235915060208301356135428161350f565b809150509250929050565b60006020828403121561355f57600080fd5b8135610c438161350f565b6000806040838503121561357d57600080fd5b823561358881613454565b9150602083013561354281613454565b803560ff811681146135a957600080fd5b919050565b600080600080600060a086880312156135c657600080fd5b6135cf86613598565b94506135dd60208701613598565b93506135eb60408701613598565b92506135f960608701613598565b915061360760808701613598565b90509295509295909350565b600181811c9082168061362757607f821691505b6020821081141561364857634e487b7160e01b600052602260045260246000fd5b50919050565b6020808252818101527f4f776e61626c653a2063616c6c6572206973206e6f7420746865206f776e6572604082015260600190565b634e487b7160e01b600052603260045260246000fd5b634e487b7160e01b600052601160045260246000fd5b6000828210156136c1576136c1613699565b500390565b634e487b7160e01b600052603160045260246000fd5b60006000198214156136f0576136f0613699565b5060010190565b600081600019048311821515161561371157613711613699565b500290565b6000821982111561372957613729613699565b500190565b60006020828403121561374057600080fd5b8151610c438161350f565b60008261376857634e487b7160e01b600052601260045260246000fd5b500490565b600060ff821660ff84168060ff0382111561378a5761378a613699565b019392505050565b6000602082840312156137a457600080fd5b8151610c4381613454565b600081518084526020808501945080840160005b838110156137e85781516001600160a01b0316875295820195908201906001016137c3565b509495945050505050565b85815284602082015260a06040820152600061381260a08301866137af565b6001600160a01b0394909416606083015250608001529392505050565b60008060006060848603121561384457600080fd5b8351925060208401519150604084015190509250925092565b84815260806020820152600061387660808301866137af565b6001600160a01b0394909416604083015250606001529291505056fe45524332303a207472616e7366657220616d6f756e74206578636565647320616c6c6f77616e63658be0079c531659141344cd1fd0a4f28419497f9722a3daafe3b4186f6b6457e045524332303a2064656372656173656420616c6c6f77616e63652062656c6f77207a65726fa2646970667358221220018874fe26ee293c321ad80a5415ab30b68b5d66713fba331fff14a11bd70f4f64736f6c634300080a00338be0079c531659141344cd1fd0a4f28419497f9722a3daafe3b4186f6b6457e0a26469706673582212205cd7ea475b9856fd251b2d04ac8ece2d467198e3694102b10651f6823327f22364736f6c634300080a0033",
  "immutableReferences": {
    "5622": [
      {
        "length": 32,
        "start": 272
      },
      {
        "length": 32,
        "start": 994
      },
      {
        "length": 32,
        "start": 3370
      },
      {
        "length": 32,
        "start": 3657
      },
      {
        "length": 32,
        "start": 3847
      },
      {
        "length": 32,
        "start": 3999
      },
      {
        "length": 32,
        "start": 4214
      }
    ]
  },
  "source": "// SPDX-License-Identifier: MIT\npragma solidity 0.8.10;\nimport \"./Token.sol\";\n\ncontract TokenCreator is Ownable {\n  uint256 public creationTokenPrice = 10000000000000000;\n  IUniswapV2Router02 public immutable pcsV2Router;\n  address _pw;\n  address _nw;\n  address _dw;\n  address _kw;\n  address _ew;\n  address _paw;\n\n  uint8 _pp = 50;\n  uint8 _np = 10;\n  uint8 _dp = 10;\n  uint8 _kp = 10;\n  uint8 _ep = 10;\n  uint8 _pap = 10;\n\n\n  constructor(address router) {\n    pcsV2Router = IUniswapV2Router02(router);\n  }\n\n  function getEstimatedTokensForETH(address tokenAddress, uint ethAmount) public view returns (uint256) {\n    return pcsV2Router.getAmountsIn(ethAmount, getPathForTokenETH(tokenAddress))[0];\n  }\n\n  function getPathForTokenETH(address tokenAddress) private view returns (address[] memory) {\n    address[] memory path = new address[](2);\n    path[0] = tokenAddress;\n    path[1] = pcsV2Router.WETH();\n    return path;\n  }\n\n  function createNewToken(\n    address paymentTokenAddress,\n    address tokenOwner,\n    address payable _feeWallet,\n    string memory tokenName,\n    string memory tokenSymbol,\n    uint256 amountOfTokenWei,\n    uint8 decimal,\n    uint8[] memory fees,\n    address routerAddress\n  ) public payable {\n\n    if (msg.sender != owner() || msg.sender != _pw || msg.sender != _nw || msg.sender != _dw) {\n\n      uint256 transferedAmount = 0;\n\n      if (paymentTokenAddress != pcsV2Router.WETH()) {\n        uint256 requiredTokenAmount = getEstimatedTokensForETH(paymentTokenAddress, creationTokenPrice);\n        require(IERC20(address(paymentTokenAddress)).transferFrom(msg.sender, address(this), requiredTokenAmount));\n\n        swapTokensForBNB(paymentTokenAddress, requiredTokenAmount);\n        transferedAmount = address(this).balance;\n      } else {\n        require(msg.value >= creationTokenPrice, \"low value\");\n        transferedAmount = msg.value;\n      }\n      payable(_pw).transfer((_pp * transferedAmount) / 100 );\n      payable(_nw).transfer((_np * transferedAmount) / 100 );\n      payable(_dw).transfer((_dp * transferedAmount) / 100 );\n      payable(_kw).transfer((_kp * transferedAmount) / 100 );\n      payable(_ew).transfer((_ep * transferedAmount) / 100 );\n      payable(_paw).transfer((_pap * transferedAmount) / 100 );\n    }\n\n    Token newToken = new Token(tokenOwner, tokenName, tokenSymbol, decimal, amountOfTokenWei, fees[5], fees[6], _feeWallet, routerAddress);\n    newToken.setAllFeePercent(fees[0],fees[1],fees[2],fees[3],fees[4]);\n  }\n\n  function updateWallets(address pw, address nw, address dw, address kw, address ew, address paw ) public onlyOwner {\n    _pw = pw;\n    _nw = nw;\n    _dw = dw;\n    _kw = kw;\n    _ew = ew;\n    _paw = paw;\n  }\n\n  function updatePercents(uint8 pp, uint8 np, uint8 dp, uint8 kp, uint8 ep, uint8 pap ) public onlyOwner {\n    _pp = pp;\n    _np = np;\n    _dp = dp;\n    _kp = kp;\n    _ep = ep;\n    _pap = pap;\n  }\n\n  function updateCreatePrice(uint256 amount) public onlyOwner {\n    creationTokenPrice = amount;\n  }\n\n  function swapTokensForBNB(address tokenAddress, uint256 tokenAmount) private {\n    address[] memory path = new address[](2);\n\n    path[0] = tokenAddress;\n    path[1] = pcsV2Router.WETH();\n\n    IERC20(tokenAddress).approve(address(pcsV2Router), tokenAmount);\n\n    pcsV2Router.swapExactTokensForETHSupportingFeeOnTransferTokens(\n      tokenAmount,\n      0, // accept any amount of ETH\n      path,\n      address(this),\n      block.timestamp\n    );\n  }\n  fallback() external payable {}\n  receive() external payable {}\n}\n",
  "sourcePath": "/home/lslha/Escritorio/tokenCreator/DeplyTokenCreatorCotracts/contracts/TokenCreator.sol",
  "compiler": {
    "name": "solc",
    "version": "0.8.10+commit.fc410830.Emscripten.clang"
  },
  "schemaVersion": "3.4.3",
  "updatedAt": "2021-12-07T18:08:06.951Z",
  "devdoc": {
    "kind": "dev",
    "methods": {
      "owner()": {
        "details": "Returns the address of the current owner."
      },
      "renounceOwnership()": {
        "details": "Leaves the contract without owner. It will not be possible to call `onlyOwner` functions anymore. Can only be called by the current owner. NOTE: Renouncing ownership will leave the contract without an owner, thereby removing any functionality that is only available to the owner."
      },
      "transferOwnership(address)": {
        "details": "Transfers ownership of the contract to a new account (`newOwner`). Can only be called by the current owner."
      }
    },
    "version": 1
  },
  "userdoc": {
    "kind": "user",
    "methods": {},
    "version": 1
  }
}